:100000000C942A000C943C000C943C000C943C0092
:100010000C943C000C9459060C949D060C943207E9
:100020000C943C000C9415070C9418060C94D40501
:100030000C943C000C943C000C943C000C943C0050
:100040000C943C000C943C000C943C000C943C0040
:100050000C943C0011241FBECFE5D8E0DEBFCDBF1D
:1000600010E0A0E6B0E001C01D92A738B107E1F7AB
:100070000E948F070C94CE070C940000DF93CF935F
:10008000CDB7DEB727970FB6F894DEBF0FBECDBF52
:1000900089836A834B838B81813009F06FC08981AA
:1000A000282F30E03F832E838E819F818130910500
:1000B00049F12E813F81223031052CF48E819F81C0
:1000C000009761F0D2C02E813F812230310571F15D
:1000D0008E819F8183309105E9F1C7C0AAE3B0E02A
:1000E000EAE3F0E08081482F8A81282F30E081E028
:1000F00090E0022E02C0880F991F0A94E2F7842B29
:100100008C93B3C0A7E3B0E0E7E3F0E08081482F31
:100110008A81282F30E081E090E0022E02C0880F13
:10012000991F0A94E2F7842B8C939FC0A4E3B0E05C
:10013000E4E3F0E08081482F8A81282F30E081E0DD
:1001400090E0022E02C0880F991F0A94E2F7842BD8
:100150008C938BC0A1E3B0E0E1E3F0E08081482F15
:100160008A81282F30E081E090E0022E02C0880FC3
:10017000991F0A94E2F7842B8C9377C08B81882394
:1001800009F073C08981282F30E03D832C838C8156
:100190009D818130910559F12C813D8122303105BD
:1001A0002CF48C819D81009769F05FC02C813D818A
:1001B0002230310589F18C819D818330910509F4CC
:1001C00040C053C0AAE3B0E0EAE3F0E08081482FEA
:1001D0008A81282F30E081E090E0022E02C0880F53
:1001E000991F0A94E2F7809584238C933EC0A7E37D
:1001F000B0E0E7E3F0E08081482F8A81282F30E0EB
:1002000081E090E0022E02C0880F991F0A94E2F765
:10021000809584238C9329C0A4E3B0E0E4E3F0E06C
:100220008081482F8A81282F30E081E090E0022EE3
:1002300002C0880F991F0A94E2F7809584238C935B
:1002400014C0A1E3B0E0E1E3F0E08081482F8A81AF
:10025000282F30E081E090E0022E02C0880F991F25
:100260000A94E2F7809584238C9327960FB6F8942E
:10027000DEBF0FBECDBFCF91DF910895DF93CF9347
:10028000CDB7DEB727970FB6F894DEBF0FBECDBF50
:1002900089836A834B838B81813009F06FC08981A8
:1002A000282F30E03F832E838E819F8181309105FE
:1002B00049F12E813F81223031052CF48E819F81BE
:1002C000009761F0D2C02E813F812230310571F15B
:1002D0008E819F8183309105E9F1C7C0ABE3B0E027
:1002E000EBE3F0E08081482F8A81282F30E081E025
:1002F00090E0022E02C0880F991F0A94E2F7842B27
:100300008C93B3C0A8E3B0E0E8E3F0E08081482F2D
:100310008A81282F30E081E090E0022E02C0880F11
:10032000991F0A94E2F7842B8C939FC0A5E3B0E059
:10033000E5E3F0E08081482F8A81282F30E081E0DA
:1003400090E0022E02C0880F991F0A94E2F7842BD6
:100350008C938BC0A2E3B0E0E2E3F0E08081482F11
:100360008A81282F30E081E090E0022E02C0880FC1
:10037000991F0A94E2F7842B8C9377C08B81882392
:1003800009F073C08981282F30E03D832C838C8154
:100390009D818130910559F12C813D8122303105BB
:1003A0002CF48C819D81009769F05FC02C813D8188
:1003B0002230310589F18C819D818330910509F4CA
:1003C00040C053C0ABE3B0E0EBE3F0E08081482FE6
:1003D0008A81282F30E081E090E0022E02C0880F51
:1003E000991F0A94E2F7809584238C933EC0A8E37A
:1003F000B0E0E8E3F0E08081482F8A81282F30E0E8
:1004000081E090E0022E02C0880F991F0A94E2F763
:10041000809584238C9329C0A5E3B0E0E5E3F0E068
:100420008081482F8A81282F30E081E090E0022EE1
:1004300002C0880F991F0A94E2F7809584238C9359
:1004400014C0A2E3B0E0E2E3F0E08081482F8A81AB
:10045000282F30E081E090E0022E02C0880F991F23
:100460000A94E2F7809584238C9327960FB6F8942C
:10047000DEBF0FBECDBFCF91DF910895DF93CF9345
:1004800000D000D00F92CDB7DEB78A836B8319827C
:100490008A81282F30E03D832C834C815D8141305F
:1004A000510541F18C819D818230910534F42C817C
:1004B0003D812115310561F052C04C815D81423092
:1004C000510551F18C819D8183309105B9F147C06F
:1004D000E9E3F0E08081282F30E08B81882F90E0E5
:1004E000A90102C0559547958A95E2F7CA01817026
:1004F000898335C0E6E3F0E08081282F30E08B81EE
:10050000882F90E0A90102C0559547958A95E2F79A
:10051000CA018170898323C0E3E3F0E08081282F42
:1005200030E08B81882F90E0A90102C05595479556
:100530008A95E2F7CA018170898311C0E0E3F0E097
:100540008081282F30E08B81882F90E0A90102C0A4
:10055000559547958A95E2F7CA018170898389810B
:100560000F900F900F900F900F90CF91DF91089503
:10057000DF93CF9300D000D000D0CDB7DEB7898312
:100580006A838A81813099F58981282F30E03E8302
:100590002D838D819E8181309105D1F02D813E8109
:1005A000223031052CF48D819E81009761F050C07E
:1005B0002D813E812230310581F08D819E818330F5
:1005C000910581F045C0EAE3F0E08FEF808340C001
:1005D000E7E3F0E08FEF80833BC0E4E3F0E08FEFF0
:1005E000808336C0E1E3F0E08FEF808331C08A8101
:1005F000882371F58981282F30E03C832B838B8100
:100600009C8181309105C9F02B813C8122303105DC
:100610002CF48B819C81009761F01AC02B813C8166
:100620002230310571F08B819C818330910569F016
:100630000FC0EAE3F0E010820BC0E7E3F0E01082C5
:1006400007C0E4E3F0E0108203C0E1E3F0E01082D1
:1006500026960FB6F894DEBF0FBECDBFCF91DF91C7
:100660000895DF93CF9300D000D0CDB7DEB7898354
:100670006A838981282F30E03C832B838B819C8186
:1006800081309105D1F02B813C81223031052CF451
:100690008B819C81009761F01EC02B813C812230B0
:1006A000310581F08B819C818330910581F013C0ED
:1006B000EBE3F0E08A8180830EC0E8E3F0E08A811A
:1006C000808309C0E5E3F0E08A81808304C0E2E32F
:1006D000F0E08A8180830F900F900F900F90CF9160
:1006E000DF910895DF93CF9300D000D0CDB7DEB770
:1006F00089836A838981282F30E03C832B838B8117
:100700009C818130910549F12B813C81223031055A
:100710002CF48B819C81009761F05AC02B813C8125
:100720002230310571F18B819C8183309105E9F193
:100730004FC0ABE3B0E0EBE3F0E08081482F8A816B
:10074000282F30E081E090E0022E02C0880F991F30
:100750000A94E2F784278C933BC0A8E3B0E0E8E377
:10076000F0E08081482F8A81282F30E081E090E0FE
:10077000022E02C0880F991F0A94E2F784278C93F7
:1007800027C0A5E3B0E0E5E3F0E08081482F8A814F
:10079000282F30E081E090E0022E02C0880F991FE0
:1007A0000A94E2F784278C9313C0A2E3B0E0E2E35B
:1007B000F0E08081482F8A81282F30E081E090E0AE
:1007C000022E02C0880F991F0A94E2F784278C93A7
:1007D0000F900F900F900F90CF91DF910895DF93BE
:1007E000CF9300D000D0CDB7DEB78A8319828A813B
:1007F000282F30E03C832B838B819C8181309105B5
:10080000D1F02B813C81223031052CF48B819C81ED
:10081000009761F01EC02B813C812230310581F0B0
:100820008B819C818330910581F013C0E9E3F0E076
:10083000808189830EC0E6E3F0E08081898309C06E
:10084000E3E3F0E08081898304C0E0E3F0E08081AD
:10085000898389810F900F900F900F90CF91DF9136
:100860000895DF93CF93CDB7DEB789EC94E00E9473
:1008700025050E943705CF91DF910895DF93CF932F
:1008800000D000D00F92CDB7DEB789837B836A8317
:100890004C832D838C81882F90E0880F991F0196BF
:1008A000880F991FFC01E05AFF4F898180838C815A
:1008B000882F90E0880F991F880F991FFC01E05A3C
:1008C000FF4F8A819B81918380838C81882F90E068
:1008D000880F991F880F991FFC01ED59FF4F8D81DB
:1008E00080830F900F900F900F900F90CF91DF911A
:1008F0000895DF93CF930F92CDB7DEB789838981B7
:10090000882F90E0880F991F880F991FFC01ED59DF
:10091000FF4F10820F90CF91DF910895DF93CF9317
:100920000F92CDB7DEB789838981882F90E0880F39
:10093000991F880F991FFC01ED59FF4F81E08083BB
:100940000F90CF91DF910895DF93CF930F92CDB7A2
:10095000DEB789838981882F90E0880F991F880FDF
:10096000991FFC01ED59FF4F8081882F90E000977F
:1009700061F48981882F90E0880F991F880F991F53
:10098000FC01E05AFF4F118210820F90CF91DF914E
:100990000895DF93CF930F92CDB7DEB780917000AB
:1009A000909171000196909371008093700019826C
:1009B00044C08981882F90E0880F991F880F991F64
:1009C000FC01E05AFF4F80819181009799F140919D
:1009D0007000509171008981882F90E0880F991FD5
:1009E0000196880F991FFC01E05AFF4F8081282F44
:1009F00030E0CA01B9010E94BA070097D9F4898191
:100A0000882F90E0880F991F880F991FFC01ED59DE
:100A1000FF4F8081813071F48981882F90E0880FA9
:100A2000991F880F991FFC01E05AFF4F0190F08138
:100A3000E02D099589818F5F89838981843008F44D
:100A4000B8CF0F90CF91DF910895DF93CF9300D06F
:100A5000CDB7DEB79A83898389819A819093760096
:100A6000809375000F900F90CF91DF910895DF93E1
:100A7000CF93CDB7DEB7AEE4B0E0EEE4F0E0808136
:100A800091819E7F11969C938E93AEE4B0E0EEE44C
:100A9000F0E0808191819D7F11969C938E93AEE4CE
:100AA000B0E0EEE4F0E080819181886011969C9343
:100AB0008E93AEE4B0E0EEE4F0E0808191818F7E31
:100AC00011969C938E93EAE4F0E082E19AE7918399
:100AD0008083A9E5B0E0E9E5F0E0808180618C9356
:100AE000AEE4B0E0EEE4F0E0808191818E7F11967B
:100AF0009C938E93AEE4B0E0EEE4F0E080819181CF
:100B00008D7F11969C938E93AEE4B0E0EEE4F0E01E
:100B100080819181846011969C938E93AFE5B0E0C3
:100B2000EFE5F0E0808180688C93CF91DF910895AC
:100B3000DF93CF93CDB7DEB7ECE4F0E08CED90E03F
:100B400091838083CF91DF910895DF93CF9300D07D
:100B5000CDB7DEB79A838983EAE4F0E089819A8190
:100B6000918380830F900F90CF91DF910895DF9351
:100B7000CF93CDB7DEB783E067E040E00E943E0050
:100B8000A9E5B0E0E9E5F0E0808180628C93AEE415
:100B9000B0E0EEE4F0E080819181806411969C9356
:100BA0008E93CF91DF9108951F920F920FB60F92FF
:100BB00011242F933F934F935F936F937F938F9362
:100BC0009F93AF93BF93EF93FF93DF93CF93CDB7F3
:100BD000DEB780917700909178000196909378002D
:100BE000809377008091770090917800853F910500
:100BF00061F4E2E5F0E08CED808380E060E00E944B
:100C000072031092780010927700CF91DF91FF91DC
:100C1000EF91BF91AF919F918F917F916F915F9174
:100C20004F913F912F910F900FBE0F901F901895ED
:100C30001F920F920FB60F9211242F933F934F9351
:100C40005F936F937F938F939F93AF93BF93EF9334
:100C5000FF93DF93CF93CDB7DEB78091790090916A
:100C60007A00019690937A008093790080917900C0
:100C700090917A0023E18838920741F480E060E0A7
:100C80000E94720310927A0010927900CF91DF9146
:100C9000FF91EF91BF91AF919F918F917F916F9154
:100CA0005F914F913F912F910F900FBE0F901F902A
:100CB00018951F920F920FB60F9211242F933F9306
:100CC0004F935F936F937F938F939F93AF93BF9354
:100CD000EF93FF93DF93CF93CDB7DEB780917B0087
:100CE00090917C00019690937C0080937B00809192
:100CF0007B0090917C00853F910561F4E4E4F0E095
:100D00008CED808380E060E00E94720310927C0092
:100D100010927B00CF91DF91FF91EF91BF91AF9146
:100D20009F918F917F916F915F914F913F912F9103
:100D30000F900FBE0F901F901895DF93CF93CDB7F4
:100D4000DEB7809174008823D1F4E6E4F0E080817E
:100D5000918190937E0080937D0010927300109299
:100D60007200AEE4B0E0EEE4F0E0808191818F7B30
:100D700011969C938E9381E08093740053C0809170
:100D80007400813059F5E6E4F0E0808191819C01A6
:100D900040E050E08091720090917300CC01A0E09F
:100DA000B0E0DC0199278827820F931FA41FB51F8D
:100DB00080937F0090938000A0938100B093820085
:100DC00082E080937400AEE4B0E0EEE4F0E0808175
:100DD0009181806411969C938E9324C080917400BD
:100DE000823001F5E6E4F0E0808191819C0140E0F1
:100DF00050E08091720090917300CC01A0E0B0E0CF
:100E0000DC0199278827820F931FA41FB51F8093A9
:100E1000830090938400A0938500B093860083E0C4
:100E200080937400CF91DF9108951F920F920FB6B7
:100E30000F9211248F939F93DF93CF93CDB7DEB79B
:100E4000809172009091730001969093730080934B
:100E50007200CF91DF919F918F910F900FBE0F90F5
:100E60001F9018951F920F920FB60F9211242F9377
:100E70003F934F935F936F937F938F939F93AF9322
:100E8000BF93EF93FF93DF93CF93CDB7DEB780E0AF
:100E900064E00E947203E0917500F091760009957C
:100EA000CF91DF91FF91EF91BF91AF919F918F9182
:100EB0007F916F915F914F913F912F910F900FBE56
:100EC0000F901F901895DF93CF93CDB7DEB780E0DA
:100ED00060E00E947203CF91DF910895DF93CF937A
:100EE000CDB7DEB780E061E00E947203CF91DF9161
:100EF0000895DF93CF93CDB7DEB780E062E00E9424
:100F00007203CF91DF910895DF93CF93CDB7DEB712
:100F100080E063E00E947203CF91DF910895DF9338
:100F2000CF93CDB7DEB780E061E00E94B80223E640
:100F300037E085E0B90140E020E00E943E042EE663
:100F400037E081E0B90141E020E00E943E0429E75A
:100F500037E08AE0B90142E021E00E943E0424E843
:100F600037E085E0B90143E021E00E943E040E94A1
:100F70003104FFCFAA1BBB1B51E107C0AA1FBB1F37
:100F8000A617B70710F0A61BB70B881F991F5A9515
:100F9000A9F780959095BC01CD010895F894FFCFF5
:00000001FF
