:100000000C942A000C943C000C943C000C943C0092
:100010000C943C000C94D9050C941D060C94B2066B
:100020000C943C000C9495060C9498050C94540583
:100030000C943C000C943C000C943C000C943C0050
:100040000C943C000C943C000C943C000C943C0040
:100050000C943C0011241FBECFE5D8E0DEBFCDBF1D
:1000600010E0A0E6B0E001C01D92AF37B107E1F7A4
:100070000E940F070C943F070C940000DF93CF936E
:10008000CDB7DEB727970FB6F894DEBF0FBECDBF52
:1000900089836A834B838B81813009F06FC08981AA
:1000A000282F30E03F832E838E819F818130910500
:1000B00049F12E813F81223031052CF48E819F81C0
:1000C000009761F0D2C02E813F812230310571F15D
:1000D0008E819F8183309105E9F1C7C0AAE3B0E02A
:1000E000EAE3F0E08081482F8A81282F30E081E028
:1000F00090E0022E02C0880F991F0A94E2F7842B29
:100100008C93B3C0A7E3B0E0E7E3F0E08081482F31
:100110008A81282F30E081E090E0022E02C0880F13
:10012000991F0A94E2F7842B8C939FC0A4E3B0E05C
:10013000E4E3F0E08081482F8A81282F30E081E0DD
:1001400090E0022E02C0880F991F0A94E2F7842BD8
:100150008C938BC0A1E3B0E0E1E3F0E08081482F15
:100160008A81282F30E081E090E0022E02C0880FC3
:10017000991F0A94E2F7842B8C9377C08B81882394
:1001800009F073C08981282F30E03D832C838C8156
:100190009D818130910559F12C813D8122303105BD
:1001A0002CF48C819D81009769F05FC02C813D818A
:1001B0002230310589F18C819D818330910509F4CC
:1001C00040C053C0AAE3B0E0EAE3F0E08081482FEA
:1001D0008A81282F30E081E090E0022E02C0880F53
:1001E000991F0A94E2F7809584238C933EC0A7E37D
:1001F000B0E0E7E3F0E08081482F8A81282F30E0EB
:1002000081E090E0022E02C0880F991F0A94E2F765
:10021000809584238C9329C0A4E3B0E0E4E3F0E06C
:100220008081482F8A81282F30E081E090E0022EE3
:1002300002C0880F991F0A94E2F7809584238C935B
:1002400014C0A1E3B0E0E1E3F0E08081482F8A81AF
:10025000282F30E081E090E0022E02C0880F991F25
:100260000A94E2F7809584238C9327960FB6F8942E
:10027000DEBF0FBECDBFCF91DF910895DF93CF9347
:10028000CDB7DEB727970FB6F894DEBF0FBECDBF50
:1002900089836A834B838B81813009F06FC08981A8
:1002A000282F30E03F832E838E819F8181309105FE
:1002B00049F12E813F81223031052CF48E819F81BE
:1002C000009761F0D2C02E813F812230310571F15B
:1002D0008E819F8183309105E9F1C7C0ABE3B0E027
:1002E000EBE3F0E08081482F8A81282F30E081E025
:1002F00090E0022E02C0880F991F0A94E2F7842B27
:100300008C93B3C0A8E3B0E0E8E3F0E08081482F2D
:100310008A81282F30E081E090E0022E02C0880F11
:10032000991F0A94E2F7842B8C939FC0A5E3B0E059
:10033000E5E3F0E08081482F8A81282F30E081E0DA
:1003400090E0022E02C0880F991F0A94E2F7842BD6
:100350008C938BC0A2E3B0E0E2E3F0E08081482F11
:100360008A81282F30E081E090E0022E02C0880FC1
:10037000991F0A94E2F7842B8C9377C08B81882392
:1003800009F073C08981282F30E03D832C838C8154
:100390009D818130910559F12C813D8122303105BB
:1003A0002CF48C819D81009769F05FC02C813D8188
:1003B0002230310589F18C819D818330910509F4CA
:1003C00040C053C0ABE3B0E0EBE3F0E08081482FE6
:1003D0008A81282F30E081E090E0022E02C0880F51
:1003E000991F0A94E2F7809584238C933EC0A8E37A
:1003F000B0E0E8E3F0E08081482F8A81282F30E0E8
:1004000081E090E0022E02C0880F991F0A94E2F763
:10041000809584238C9329C0A5E3B0E0E5E3F0E068
:100420008081482F8A81282F30E081E090E0022EE1
:1004300002C0880F991F0A94E2F7809584238C9359
:1004400014C0A2E3B0E0E2E3F0E08081482F8A81AB
:10045000282F30E081E090E0022E02C0880F991F23
:100460000A94E2F7809584238C9327960FB6F8942C
:10047000DEBF0FBECDBFCF91DF910895DF93CF9345
:1004800000D000D00F92CDB7DEB78A836B8319827C
:100490008A81282F30E03D832C834C815D8141305F
:1004A000510541F18C819D818230910534F42C817C
:1004B0003D812115310561F052C04C815D81423092
:1004C000510551F18C819D8183309105B9F147C06F
:1004D000E9E3F0E08081282F30E08B81882F90E0E5
:1004E000A90102C0559547958A95E2F7CA01817026
:1004F000898335C0E6E3F0E08081282F30E08B81EE
:10050000882F90E0A90102C0559547958A95E2F79A
:10051000CA018170898323C0E3E3F0E08081282F42
:1005200030E08B81882F90E0A90102C05595479556
:100530008A95E2F7CA018170898311C0E0E3F0E097
:100540008081282F30E08B81882F90E0A90102C0A4
:10055000559547958A95E2F7CA018170898389810B
:100560000F900F900F900F900F90CF91DF91089503
:10057000DF93CF9300D000D000D0CDB7DEB7898312
:100580006A838A81813099F58981282F30E03E8302
:100590002D838D819E8181309105D1F02D813E8109
:1005A000223031052CF48D819E81009761F050C07E
:1005B0002D813E812230310581F08D819E818330F5
:1005C000910581F045C0EAE3F0E08FEF808340C001
:1005D000E7E3F0E08FEF80833BC0E4E3F0E08FEFF0
:1005E000808336C0E1E3F0E08FEF808331C08A8101
:1005F000882371F58981282F30E03C832B838B8100
:100600009C8181309105C9F02B813C8122303105DC
:100610002CF48B819C81009761F01AC02B813C8166
:100620002230310571F08B819C818330910569F016
:100630000FC0EAE3F0E010820BC0E7E3F0E01082C5
:1006400007C0E4E3F0E0108203C0E1E3F0E01082D1
:1006500026960FB6F894DEBF0FBECDBFCF91DF91C7
:100660000895DF93CF9300D000D0CDB7DEB7898354
:100670006A838981282F30E03C832B838B819C8186
:1006800081309105D1F02B813C81223031052CF451
:100690008B819C81009761F01EC02B813C812230B0
:1006A000310581F08B819C818330910581F013C0ED
:1006B000EBE3F0E08A8180830EC0E8E3F0E08A811A
:1006C000808309C0E5E3F0E08A81808304C0E2E32F
:1006D000F0E08A8180830F900F900F900F90CF9160
:1006E000DF910895DF93CF9300D000D0CDB7DEB770
:1006F00089836A838981282F30E03C832B838B8117
:100700009C818130910549F12B813C81223031055A
:100710002CF48B819C81009761F05AC02B813C8125
:100720002230310571F18B819C8183309105E9F193
:100730004FC0ABE3B0E0EBE3F0E08081482F8A816B
:10074000282F30E081E090E0022E02C0880F991F30
:100750000A94E2F784278C933BC0A8E3B0E0E8E377
:10076000F0E08081482F8A81282F30E081E090E0FE
:10077000022E02C0880F991F0A94E2F784278C93F7
:1007800027C0A5E3B0E0E5E3F0E08081482F8A814F
:10079000282F30E081E090E0022E02C0880F991FE0
:1007A0000A94E2F784278C9313C0A2E3B0E0E2E35B
:1007B000F0E08081482F8A81282F30E081E090E0AE
:1007C000022E02C0880F991F0A94E2F784278C93A7
:1007D0000F900F900F900F90CF91DF910895DF93BE
:1007E000CF9300D000D0CDB7DEB78A8319828A813B
:1007F000282F30E03C832B838B819C8181309105B5
:10080000D1F02B813C81223031052CF48B819C81ED
:10081000009761F01EC02B813C812230310581F0B0
:100820008B819C818330910581F013C0E9E3F0E076
:10083000808189830EC0E6E3F0E08081898309C06E
:10084000E3E3F0E08081898304C0E0E3F0E08081AD
:10085000898389810F900F900F900F90CF91DF9136
:100860000895DF93CF93CDB7DEB78BE694E00E9477
:10087000A5040E94B704CF91DF910895DF93CF9331
:1008800000D000D0CDB7DEB789837B836A834C83E9
:100890008C81282F30E0C901880F991F820F931F88
:1008A000FC01EE59FF4F898180838C81282F30E035
:1008B000C901880F991F820F931FFC01E05AFF4F57
:1008C0008A819B81918380830F900F900F900F906E
:1008D000CF91DF910895DF93CF930F92CDB7DEB71D
:1008E000809169008F5F80936900198227C04091D1
:1008F00069008981282F30E0C901880F991F820F74
:10090000931FFC01EE59FF4F9081842F692F0E94A5
:100910003307892F882379F48981282F30E0C90192
:10092000880F991F820F931FFC01E05AFF4F01901F
:10093000F081E02D099589818F5F898389818330DA
:10094000B0F20F90CF91DF910895DF93CF9300D055
:10095000CDB7DEB79A83898389819A8190936E009F
:1009600080936D000F900F90CF91DF910895DF93EA
:10097000CF93CDB7DEB7AEE4B0E0EEE4F0E0808137
:1009800091819E7F11969C938E93AEE4B0E0EEE44D
:10099000F0E0808191819D7F11969C938E93AEE4CF
:1009A000B0E0EEE4F0E080819181886011969C9344
:1009B0008E93AEE4B0E0EEE4F0E0808191818F7E32
:1009C00011969C938E93EAE4F0E082E19AE791839A
:1009D0008083A9E5B0E0E9E5F0E0808180618C9357
:1009E000AEE4B0E0EEE4F0E0808191818E7F11967C
:1009F0009C938E93AEE4B0E0EEE4F0E080819181D0
:100A00008D7F11969C938E93AEE4B0E0EEE4F0E01F
:100A100080819181846011969C938E93AFE5B0E0C4
:100A2000EFE5F0E0808180688C93CF91DF910895AD
:100A3000DF93CF93CDB7DEB7ECE4F0E08CED90E040
:100A400091838083CF91DF910895DF93CF9300D07E
:100A5000CDB7DEB79A838983EAE4F0E089819A8191
:100A6000918380830F900F90CF91DF910895DF9352
:100A7000CF93CDB7DEB783E067E040E00E943E0051
:100A8000A9E5B0E0E9E5F0E0808180628C93AEE416
:100A9000B0E0EEE4F0E080819181806411969C9357
:100AA0008E93CF91DF9108951F920F920FB60F9200
:100AB00011242F933F934F935F936F937F938F9363
:100AC0009F93AF93BF93EF93FF93DF93CF93CDB7F4
:100AD000DEB780916F009091700001969093700046
:100AE00080936F0080916F0090917000853F910519
:100AF00061F4E2E5F0E08CED808380E060E00E944C
:100B000072031092700010926F00CF91DF91FF91ED
:100B1000EF91BF91AF919F918F917F916F915F9175
:100B20004F913F912F910F900FBE0F901F901895EE
:100B30001F920F920FB60F9211242F933F934F9352
:100B40005F936F937F938F939F93AF93BF93EF9335
:100B5000FF93DF93CF93CDB7DEB780917100909173
:100B600072000196909372008093710080917100E1
:100B70009091720023E18838920741F480E060E0B0
:100B80000E9472031092720010927100CF91DF9157
:100B9000FF91EF91BF91AF919F918F917F916F9155
:100BA0005F914F913F912F910F900FBE0F901F902B
:100BB00018951F920F920FB60F9211242F933F9307
:100BC0004F935F936F937F938F939F93AF93BF9355
:100BD000EF93FF93DF93CF93CDB7DEB78091730090
:100BE00090917400019690937400809373008091AB
:100BF000730090917400853F910561F4E4E4F0E0A6
:100C00008CED808380E060E00E947203109274009B
:100C100010927300CF91DF91FF91EF91BF91AF914F
:100C20009F918F917F916F915F914F913F912F9104
:100C30000F900FBE0F901F901895DF93CF93CDB7F5
:100C4000DEB780916C008823D1F4E6E4F0E0808187
:100C50009181909376008093750010926B001092B2
:100C60006A00AEE4B0E0EEE4F0E0808191818F7B39
:100C700011969C938E9381E080936C0053C0809179
:100C80006C00813059F5E6E4F0E0808191819C01AF
:100C900040E050E080916A0090916B00CC01A0E0B0
:100CA000B0E0DC0199278827820F931FA41FB51F8E
:100CB0008093770090937800A0937900B0937A00A6
:100CC00082E080936C00AEE4B0E0EEE4F0E080817E
:100CD0009181806411969C938E9324C080916C00C6
:100CE000823001F5E6E4F0E0808191819C0140E0F2
:100CF00050E080916A0090916B00CC01A0E0B0E0E0
:100D0000DC0199278827820F931FA41FB51F8093AA
:100D10007B0090937C00A0937D00B0937E0083E0E5
:100D200080936C00CF91DF9108951F920F920FB6C0
:100D30000F9211248F939F93DF93CF93CDB7DEB79C
:100D400080916A0090916B00019690936B00809364
:100D50006A00CF91DF919F918F910F900FBE0F90FE
:100D60001F9018951F920F920FB60F9211242F9378
:100D70003F934F935F936F937F938F939F93AF9323
:100D8000BF93EF93FF93DF93CF93CDB7DEB780E0B0
:100D900064E00E947203E0916D00F0916E0009958D
:100DA000CF91DF91FF91EF91BF91AF919F918F9183
:100DB0007F916F915F914F913F912F910F900FBE57
:100DC0000F901F901895DF93CF93CDB7DEB780E0DB
:100DD00060E00E947203CF91DF910895DF93CF937B
:100DE000CDB7DEB780E061E00E947203CF91DF9162
:100DF0000895DF93CF93CDB7DEB780E062E00E9425
:100E00007203CF91DF910895DF93CF93CDB7DEB713
:100E100080E063E00E947203CF91DF910895DF9339
:100E2000CF93CDB7DEB780E061E00E94B80280E0EA
:100E300061E00E94310323EE36E085E0B90140E035
:100E40000E943E042EEE36E081E0B90141E00E94AE
:100E50003E0429EF36E08AE0B90142E00E943E04F8
:100E60000E943104FFCF991B79E004C0991F9617A7
:100E700008F0961B881F7A95C9F780950895F89415
:020E8000FFCFA2
:00000001FF
