:100000000C942A000C9447000C9447000C94470071
:100010000C9447000C9447000C9447000C940E126B
:100020000C9447000C9447000C9447000C94470034
:100030000C9447000C9447000C9447000C94470024
:100040000C9447000C9447000C9447000C94470014
:100050000C94470011241FBECFE5D8E0DEBFCDBF12
:1000600010E0A0E6B0E0EAEAFBE302C005900D92E2
:10007000A037B107D9F717E0A0E7B0E001C01D92A3
:10008000A337B107E1F70E94550E0C94D31D0C94D1
:100090000000EF92FF920F931F937B018C0120E0F1
:1000A00030E040E05FE40E94490388238CF0C801FF
:1000B000B70120E030E040E05FE40E94C1010E940F
:1000C000A9039B01AC01205030404040504806C07D
:1000D000C801B7010E94A9039B01AC01B901CA0183
:1000E0001F910F91FF90EF900895A0E0B0E0EBE733
:1000F000F0E00C947D1DDC012B01FA019C91923003
:1001000008F439C1EB018881823008F433C194309E
:1001100069F4843009F02FC111969C91119789815F
:10012000981709F428C1A5E6B0E025C1843009F488
:1001300021C18230A9F4923009F01DC19A01AD01AC
:1001400088E0EA010990AE01E90109929E0181501F
:10015000C1F7E201898111969C918923818308C1AD
:10016000923009F407C112962D903C901397EB0141
:100170008A819B811496AD90BD90CD90DC901797AD
:10018000EC80FD800E811F819101281B390BB90184
:1001900037FF04C066277727621B730B6032710537
:1001A0000CF061C0121613066CF537014801062EDB
:1001B00004C096948794779467940A94D2F721E0C8
:1001C00030E040E050E004C0220F331F441F551FB1
:1001D0006A95D2F721503040404050402E213F21B7
:1001E00040235123211531054105510521F021E01E
:1001F00030E040E050E079018A01E628F72808293C
:1002000019293CC0232BD1F1260E371E350146019A
:10021000062E04C096948794779467940A94D2F734
:1002200021E030E040E050E004C0220F331F441FC3
:10023000551F6A95D2F721503040404050402A2146
:100240003B214C215D21211531054105510521F04E
:1002500021E030E040E050E059016A01A628B728CB
:10026000C828D9280BC0821593052CF01C01AA249C
:10027000BB24650103C0EE24FF24870111969C91E5
:10028000D20111968C91981709F445C0992339F041
:10029000A80197012A193B094C095D0906C0A6016E
:1002A00095012E193F09400B510B57FD08C01182D3
:1002B0003382228224833583468357831DC081E0A5
:1002C00081833382228288279927DC01821B930B4A
:1002D000A40BB50B84839583A683B7830DC0220F2F
:1002E000331F441F551F24833583468357838281E0
:1002F000938101979383828324813581468157813D
:10030000DA01C9010197A109B1098F5F9F4FAF4F72
:10031000BF4328F30BC0918333822282EA0CFB1C7B
:100320000C1D1D1DE482F5820683178383E0808304
:10033000248135814681578157FF1AC0C901AA27F8
:1003400097FDA095BA2F81709070A070B0705695EF
:10035000479537952795822B932BA42BB52B848318
:100360009583A683B7838281938101969383828349
:10037000DF0101C0D201CD01CDB7DEB7E2E10C94BF
:10038000991DA0E2B0E0E7ECF1E00C94891D6983CF
:100390007A838B839C832D833E834F835887E9E048
:1003A000EE2EF12CEC0EFD1ECE010196B7010E943F
:1003B000D2048E010F5E1F4FCE010596B8010E9438
:1003C000D2048A8991E089278A8BC701B801AE01DE
:1003D000475E5F4F0E9475000E94FD03A096E6E015
:1003E0000C94A51DA0E2B0E0E8EFF1E00C94891DAB
:1003F00069837A838B839C832D833E834F835887C5
:10040000F9E0EF2EF12CEC0EFD1ECE010196B701A6
:100410000E94D2048E010F5E1F4FCE010596B801D7
:100420000E94D204C701B801AE01475E5F4F0E942F
:1004300075000E94FD03A096E6E00C94A51DA0E2C5
:10044000B0E0E5E2F2E00C947D1D69837A838B8352
:100450009C832D833E834F835887CE010196BE0136
:10046000675F7F4F0E94D204CE010596BE016F5E8A
:100470007F4F0E94D2049985923088F0898982301A
:10048000C8F0943019F4823051F404C0843029F457
:10049000923081F485E690E0C6C0923049F420E0C5
:1004A0009A858A89981321E02A87CE010996BBC0D4
:1004B000823049F420E09A858A89981321E02A8BBA
:1004C000CE014196B0C02D843E844F8458886D88FB
:1004D0007E888F88988CEE24FF248701AA24BB2471
:1004E000650140E050E060E070E0E0E0F0E0C10174
:1004F00081709070892BE9F0E60CF71C081D191D1E
:100500009A01AB012A0D3B1D4C1D5D1D80E090E062
:10051000A0E0B0E0E614F7040805190520F481E036
:1005200090E0A0E0B0E0BA01A901480F591F6A1F8E
:100530007B1FAA0CBB1CCC1CDD1C97FE08C081E0F5
:1005400090E0A0E0B0E0A82AB92ACA2ADB2A3196B6
:10055000E032F10549F0660C771C881C991C569412
:10056000479437942794C3CFFA85EA892B893C892D
:100570008B859C85280F391F2E5F3F4F17C0CA01FE
:1005800081709070892B61F016950795F794E79428
:1005900080E090E0A0E0B0E8E82AF92A0A2B1B2BC3
:1005A00076956795579547952F5F3F4F77FDE7CF36
:1005B0000CC0440F551F661F771F17FD4160EE0CDE
:1005C000FF1C001F111F21503040403090E05907A0
:1005D00090E0690790E4790760F32B8F3C8FDB0193
:1005E000CA018F779070A070B07080349105A1051A
:1005F000B10561F447FD0AC0E114F10401051105DC
:1006000029F0405C5F4F6F4F7F4F40781A8EFE1786
:1006100011F081E08A8F4D8F5E8F6F8F78A383E01A
:10062000898FCE0149960E94FD03A096E2E10C94C9
:10063000991DA8E1B0E0EFE1F3E00C94891D698316
:100640007A838B839C832D833E834F83588789E0F5
:10065000E82EF12CEC0EFD1ECE010196B7010E9492
:10066000D2048E010F5E1F4FCE010596B8010E9485
:10067000D2048985823040F08989823028F0C70110
:10068000B8010E944A0501C08FEF6896E6E00C941D
:10069000A51DA8E1B0E0EFE4F3E00C94891D6983A7
:1006A0007A838B839C832D833E834F83588789E095
:1006B000E82EF12CEC0EFD1ECE010196B7010E9432
:1006C000D2048E010F5E1F4FCE010596B8010E9425
:1006D000D2048985823040F08989823028F0C701B0
:1006E000B8010E944A0501C08FEF6896E6E00C94BD
:1006F000A51DA8E1B0E0EFE7F3E00C94891D698344
:100700007A838B839C832D833E834F83588789E034
:10071000E82EF12CEC0EFD1ECE010196B7010E94D1
:10072000D2048E010F5E1F4FCE010596B8010E94C4
:10073000D2048985823040F08989823028F0C7014F
:10074000B8010E944A0501C081E06896E6E00C9479
:10075000A51DACE0B0E0EFEAF3E00C948D1D6983D9
:100760007A838B839C83CE010196BE016B5F7F4FA2
:100770000E94D2048D81823061F1823050F1843048
:1007800021F48E81882351F12EC02F81388537FDC9
:1007900020C06E812F3131051CF06623F9F023C093
:1007A0008EE190E0821B930B29853A854B855C8511
:1007B00004C056954795379527958A95D2F76623B5
:1007C000B1F050954095309521953F4F4F4F5F4F79
:1007D0000EC020E030E040E050E009C02FEF3FEFD6
:1007E0004FEF5FE704C020E030E040E050E8B9019F
:1007F000CA012C96E2E00C94A91DDF92EF92FF92C1
:100800000F931F93FC01E480F58006811781D1804E
:100810008081823048F480E090E0A0E1B0E0E82AF6
:10082000F92A0A2B1B2BA5C0843009F49FC0823003
:1008300021F4EE24FF24870105C0E114F104010531
:10084000110519F4E0E0F0E096C0628173819FEF3A
:10085000623879070CF05BC022E83FEF261B370BAC
:100860002A3131052CF020E030E040E050E02AC091
:10087000B801A701022E04C0769567955795479554
:100880000A94D2F781E090E0A0E0B0E004C0880FC5
:10089000991FAA1FBB1F2A95D2F70197A109B10979
:1008A0008E219F21A023B1230097A105B10521F03E
:1008B00081E090E0A0E0B0E09A01AB01282B392B59
:1008C0004A2B5B2BDA01C9018F779070A070B07052
:1008D00080349105A105B10539F427FF09C0205CDA
:1008E0003F4F4F4F5F4F04C0215C3F4F4F4F5F4F13
:1008F000E0E0F0E02030A0E03A07A0E04A07A0E402
:100900005A0710F0E1E0F0E079018A0127C0603871
:10091000710564F5FB01E158FF4FD801C7018F77DE
:100920009070A070B07080349105A105B10539F4C4
:10093000E7FE0DC080E490E0A0E0B0E004C08FE3EB
:1009400090E0A0E0B0E0E80EF91E0A1F1B1F17FFA1
:1009500005C016950795F794E794319687E01695AC
:100960000795F794E7948A95D1F705C0EE24FF2404
:100970008701EFEFF0E06E2F679566276795902F60
:100980009F77D794DD24D7948E2F8695492F462BB9
:10099000582F5D29B701CA011F910F91FF90EF9069
:1009A000DF900895FC01DB01408151812281622F9B
:1009B0006F7770E0221F2227221F9381892F880FD3
:1009C000822B282F30E0991F9927991F11969C930D
:1009D000119721153105A9F54115510561057105DD
:1009E00011F482E037C082E89FEF13969C938E93B8
:1009F00012979A01AB0167E0220F331F441F551F66
:100A00006A95D1F783E08C930DC0220F331F441FEA
:100A1000551F12968D919C911397019713969C9355
:100A20008E931297203080E0380780E0480780E4FA
:100A3000580758F314962D933D934D935C93179755
:100A400008952F3F310579F4411551056105710570
:100A500019F484E08C93089564FF03C081E08C93C3
:100A600012C01C9210C02F57304013963C932E9307
:100A7000129783E08C9387E0440F551F661F771F02
:100A80008A95D1F7706414964D935D936D937C9322
:100A9000179708951F93DC01FB019C91923008F495
:100AA00047C08081823008F443C0943051F41196DD
:100AB0001C91843099F58181682F70E0611B710968
:100AC0003FC0843021F0923031F48230B9F181811D
:100AD000882389F12DC011961C9111978230F1F075
:100AE00081811817D9F412962D913C911397828128
:100AF00093818217930794F028173907BCF0149656
:100B00008D919D910D90BC91A02D248135814681C0
:100B10005781281739074A075B0718F4112341F05A
:100B20000AC082179307A407B50740F4112319F0F0
:100B300061E070E005C06FEF7FEF02C060E070E041
:100B4000CB011F910895DF93CF93CDB7DEB72797E1
:100B50000FB6F894DEBF0FBECDBF89836A834B8387
:100B60008B81813009F06FC08981282F30E03F836D
:100B70002E838E819F818130910549F12E813F81A5
:100B8000223031052CF48E819F81009761F0D2C014
:100B90002E813F812230310571F18E819F8183301A
:100BA0009105E9F1C7C0AAE3B0E0EAE3F0E0808193
:100BB000482F8A81282F30E081E090E0022E02C089
:100BC000880F991F0A94E2F7842B8C93B3C0A7E394
:100BD000B0E0E7E3F0E08081482F8A81282F30E001
:100BE00081E090E0022E02C0880F991F0A94E2F77C
:100BF000842B8C939FC0A4E3B0E0E4E3F0E0808119
:100C0000482F8A81282F30E081E090E0022E02C038
:100C1000880F991F0A94E2F7842B8C938BC0A1E371
:100C2000B0E0E1E3F0E08081482F8A81282F30E0B6
:100C300081E090E0022E02C0880F991F0A94E2F72B
:100C4000842B8C9377C08B81882309F073C08981B2
:100C5000282F30E03D832C838C819D81813091054C
:100C600059F12C813D81223031052CF48C819D81FC
:100C7000009769F05FC02C813D812230310589F1F8
:100C80008C819D818330910509F440C053C0AAE353
:100C9000B0E0EAE3F0E08081482F8A81282F30E03D
:100CA00081E090E0022E02C0880F991F0A94E2F7BB
:100CB000809584238C933EC0A7E3B0E0E7E3F0E0A7
:100CC0008081482F8A81282F30E081E090E0022E39
:100CD00002C0880F991F0A94E2F7809584238C93B1
:100CE00029C0A4E3B0E0E4E3F0E08081482F8A81EA
:100CF000282F30E081E090E0022E02C0880F991F7B
:100D00000A94E2F7809584238C9314C0A1E3B0E0A9
:100D1000E1E3F0E08081482F8A81282F30E081E0F4
:100D200090E0022E02C0880F991F0A94E2F7809586
:100D300084238C9327960FB6F894DEBF0FBECDBFE9
:100D4000CF91DF910895DF93CF93CDB7DEB727978B
:100D50000FB6F894DEBF0FBECDBF89836A834B8385
:100D60008B81813009F06FC08981282F30E03F836B
:100D70002E838E819F818130910549F12E813F81A3
:100D8000223031052CF48E819F81009761F0D2C012
:100D90002E813F812230310571F18E819F81833018
:100DA0009105E9F1C7C0ABE3B0E0EBE3F0E080818F
:100DB000482F8A81282F30E081E090E0022E02C087
:100DC000880F991F0A94E2F7842B8C93B3C0A8E391
:100DD000B0E0E8E3F0E08081482F8A81282F30E0FE
:100DE00081E090E0022E02C0880F991F0A94E2F77A
:100DF000842B8C939FC0A5E3B0E0E5E3F0E0808115
:100E0000482F8A81282F30E081E090E0022E02C036
:100E1000880F991F0A94E2F7842B8C938BC0A2E36E
:100E2000B0E0E2E3F0E08081482F8A81282F30E0B3
:100E300081E090E0022E02C0880F991F0A94E2F729
:100E4000842B8C9377C08B81882309F073C08981B0
:100E5000282F30E03D832C838C819D81813091054A
:100E600059F12C813D81223031052CF48C819D81FA
:100E7000009769F05FC02C813D812230310589F1F6
:100E80008C819D818330910509F440C053C0ABE350
:100E9000B0E0EBE3F0E08081482F8A81282F30E03A
:100EA00081E090E0022E02C0880F991F0A94E2F7B9
:100EB000809584238C933EC0A8E3B0E0E8E3F0E0A3
:100EC0008081482F8A81282F30E081E090E0022E37
:100ED00002C0880F991F0A94E2F7809584238C93AF
:100EE00029C0A5E3B0E0E5E3F0E08081482F8A81E6
:100EF000282F30E081E090E0022E02C0880F991F79
:100F00000A94E2F7809584238C9314C0A2E3B0E0A6
:100F1000E2E3F0E08081482F8A81282F30E081E0F1
:100F200090E0022E02C0880F991F0A94E2F7809584
:100F300084238C9327960FB6F894DEBF0FBECDBFE7
:100F4000CF91DF910895DF93CF9300D000D00F921F
:100F5000CDB7DEB78A836B8319828A81282F30E070
:100F60003D832C834C815D814130510541F18C8161
:100F70009D818230910534F42C813D81211531050C
:100F800061F052C04C815D814230510551F18C813C
:100F90009D8183309105B9F147C0E9E3F0E080819C
:100FA000282F30E08B81882F90E0A90102C0559551
:100FB00047958A95E2F7CA018170898335C0E6E3D7
:100FC000F0E08081282F30E08B81882F90E0A9010C
:100FD00002C0559547958A95E2F7CA0181708983C9
:100FE00023C0E3E3F0E08081282F30E08B81882F5D
:100FF00090E0A90102C0559547958A95E2F7CA018C
:101000008170898311C0E0E3F0E08081282F30E017
:101010008B81882F90E0A90102C0559547958A954C
:10102000E2F7CA018170898389810F900F900F9038
:101030000F900F90CF91DF910895DF93CF9300D061
:1010400000D000D0CDB7DEB789836A838A81813032
:1010500099F58981282F30E03E832D838D819E81F3
:1010600081309105D1F02D813E81223031052CF463
:101070008D819E81009761F050C02D813E8122308C
:10108000310581F08D819E818330910581F045C0CD
:10109000EAE3F0E08FEF808340C0E7E3F0E08FEF1A
:1010A00080833BC0E4E3F0E08FEF808336C0E1E370
:1010B000F0E08FEF808331C08A81882371F58981C8
:1010C000282F30E03C832B838B819C8181309105DC
:1010D000C9F02B813C81223031052CF48B819C811D
:1010E000009761F01AC02B813C812230310571F0EC
:1010F0008B819C818330910569F00FC0EAE3F0E0B9
:1011000010820BC0E7E3F0E0108207C0E4E3F0E0F8
:10111000108203C0E1E3F0E0108226960FB6F89447
:10112000DEBF0FBECDBFCF91DF910895DF93CF9388
:1011300000D000D0CDB7DEB789836A838981282F9C
:1011400030E03C832B838B819C8181309105D1F0F1
:101150002B813C81223031052CF48B819C810097BE
:1011600061F01EC02B813C812230310581F08B81E2
:101170009C818330910581F013C0EBE3F0E08A811C
:1011800080830EC0E8E3F0E08A81808309C0E5E354
:10119000F0E08A81808304C0E2E3F0E08A8180830A
:1011A0000F900F900F900F90CF91DF910895DF93E4
:1011B000CF9300D000D0CDB7DEB789836A83898111
:1011C000282F30E03C832B838B819C8181309105DB
:1011D00049F12B813C81223031052CF48B819C819B
:1011E000009761F05AC02B813C812230310571F1AA
:1011F0008B819C8183309105E9F14FC0ABE3B0E076
:10120000EBE3F0E08081482F8A81282F30E081E0F5
:1012100090E0022E02C0880F991F0A94E2F78427FB
:101220008C933BC0A8E3B0E0E8E3F0E08081482F76
:101230008A81282F30E081E090E0022E02C0880FE2
:10124000991F0A94E2F784278C9327C0A5E3B0E0A6
:10125000E5E3F0E08081482F8A81282F30E081E0AB
:1012600090E0022E02C0880F991F0A94E2F78427AB
:101270008C9313C0A2E3B0E0E2E3F0E08081482F5A
:101280008A81282F30E081E090E0022E02C0880F92
:10129000991F0A94E2F784278C930F900F900F9078
:1012A0000F90CF91DF910895DF93CF9300D000D0BE
:1012B000CDB7DEB78A8319828A81282F30E03C833C
:1012C0002B838B819C8181309105D1F02B813C81D6
:1012D000223031052CF48B819C81009761F01EC077
:1012E0002B813C812230310581F08B819C818330C0
:1012F000910581F013C0E9E3F0E0808189830EC09D
:10130000E6E3F0E08081898309C0E3E3F0E08081D7
:10131000898304C0E0E3F0E08081898389810F90B4
:101320000F900F900F90CF91DF910895DF93CF939F
:10133000CDB7DEB727970FB6F894DEBF0FBECDBF8F
:101340009D838C836E834F838AE190E00E946E0CB4
:101350009A83898389819A81009709F46FC080916B
:10136000700090917100009741F489819A81909367
:101370007100809370000E94FD0B8E81823010F00E
:1013800081E08E83E981FA81118E108EE981FA81E4
:101390008E81868BE981FA818F81878BE981FA8141
:1013A0008C819D819183808389819A8102960E949C
:1013B000040D89819A810C960E94040DE981FA81BD
:1013C00089819A8191878087E981FA8189819A81CF
:1013D000938B828B8E81282F30E089E090E0821BF6
:1013E000930BE981FA8195878487E981FA8196894F
:1013F00080917200891728F4E981FA8186898093A7
:101400007200E981FA818689282F30E0C901880FAE
:10141000991F880F991F880F991F820F931FAC0186
:1014200047585F4F89819A819C012E5F3F4FCA01C7
:10143000B9010E94140D81E08B8302C08FEF8B8372
:101440008B8127960FB6F894DEBF0FBECDBFCF912C
:10145000DF910895DF93CF9300D000D000D0CDB7B7
:10146000DEB79C838B837E836D83209173003091E4
:1014700074008B819C81820F931F9A838983809152
:1014800070009091710002960E94CC0DE091700066
:10149000F091710089819A819383828320917300F6
:1014A0003091740089819A818217930770F480913A
:1014B0009F009091A00020917000309171002E5FEC
:1014C0003F4FB9010E94600D0DC080919D00909129
:1014D0009E0020917000309171002E5F3F4FB90146
:1014E0000E94600D8D819E81009761F08091700057
:1014F000909171009C01245F3F4F8D819E81B901C5
:101500000E94600D26960FB6F894DEBF0FBECDBFC9
:10151000CF91DF910895DF93CF9300D0CDB7DEB7A1
:101520003AC0F894E091A600F091A70086819781D7
:101530009A83898389819A810C960E94CC0D789434
:1015400089819A8102960E94CC0DE981FA8196895F
:1015500080917200891728F4E981FA818689809345
:101560007200E981FA818689282F30E0C901880F4D
:10157000991F880F991F880F991F820F931FAC0125
:1015800047585F4F89819A819C012E5F3F4FCA0166
:10159000B9010E94140D8091A100882309F0C1CFE8
:1015A0000F900F90CF91DF910895DF93CF9300D0EC
:1015B00000D0CDB7DEB70E9464192091750030913C
:1015C0007600821B930B909378008093770085C000
:1015D00080917300909174000196909374008093B1
:1015E0007300809177009091780001979093780034
:1015F000809377008091730090917400009709F0B8
:1016000064C080919D0090919E009A83898380910F
:101610009F009091A00090939E0080939D008981EF
:101620009A819093A00080939F004FC0E0919D000D
:10163000F0919E000580F681E02D868197819C8344
:101640008B83EB81FC8122813381809173009091A7
:1016500074008217930708F440C0F8948B819C8132
:1016600002960E94CC0DEB81FC81848995890097BC
:1016700029F08B819C810C960E94CC0D7894EB8193
:10168000FC81968980917200891728F4EB81FC8196
:10169000868980937200EB81FC818689282F30E057
:1016A000C901880F991F880F991F880F991F820FF2
:1016B000931FAC0147585F4F8B819C819C012E5F2B
:1016C0003F4FCA01B9010E94140DE0919D00F091B5
:1016D0009E008081882309F0A9CF809177009091A6
:1016E0007800009709F074CF809173009091740096
:1016F00090937600809375000F900F900F900F904D
:10170000CF91DF910895DF93CF9300D0CDB7DEB7AF
:101710000E948B0A0E94D50A0AC080917200882319
:1017200009F466C0809172008150809372008091AC
:101730007200282F30E0C901880F991F880F991F68
:10174000880F991F820F931FFC01E758FF4F80817C
:10175000882319F380917200282F30E0C901880F87
:10176000991F880F991F880F991F820F931F875801
:101770009F4F9A838983E981FA810180F281E02D6C
:1017800082819381E981FA8192838183E981FA815F
:101790002181328189819A8103962817390759F46A
:1017A000E981FA810180F281E02D82819381E981D2
:1017B000FA8192838183E981FA810180F281E02DAF
:1017C000868197819093710080937000E091700002
:1017D000F091710040815181809170009091710071
:1017E000E0917000F09171002789622FFA0109954C
:1017F0000F900F90CF91DF910895DF93CF930F92C9
:10180000CDB7DEB7198213C08981282F30E0C90116
:10181000880F991F880F991F880F991F820F931F98
:1018200087589F4F0E94DA0C89818F5F8983898155
:10183000823050F38BE890E00E94DA0C84E990E06B
:101840000E94DA0C81EA90E00E94DA0C8BE890E0CA
:1018500090939E0080939D0084E990E09093A00077
:1018600080939F000F90CF91DF910895DF93CF93E6
:1018700000D000D00F92CDB7DEB79D838C83EC8172
:10188000FD810580F681E02D868197819B838A8387
:101890008A819B810C960E94CC0D8A819B819C0140
:1018A000245F3F4F81EA90E0B9010E94140DEA8164
:1018B000FB819689E0917000F091710086899817FC
:1018C00018F081E0898301C0198289810F900F90FF
:1018D0000F900F900F90CF91DF910895DF93CF93EA
:1018E00000D000D0CDB7DEB79C838B831A821982DB
:1018F0000E94CE188091AA009091AB002B813C8170
:10190000820F931F26E08034920718F52091AA00D9
:101910003091AB008B819C81280F391F8091AA00E8
:101920009091AB0082179307A0F48091AA00909148
:10193000AB0084559F4F9A8389832091AA003091F0
:10194000AB008B819C81820F931F9093AB0080939F
:10195000AA000E94DA1889819A810F900F900F9047
:101960000F90CF91DF910895DF93CF9300D0CDB743
:10197000DEB79A8389830F900F90CF91DF910895FE
:10198000DF93CF93CDB7DEB71092AB001092AA00D1
:10199000CF91DF910895DF93CF93CDB7DEB720913C
:1019A000AA003091AB0080E496E0821B930BCF91AC
:1019B000DF910895DF93CF9300D0CDB7DEB79A8340
:1019C000898389819A810396E981FA81928381834F
:1019D000E981FA818FEF9FEF9483838389819A81D4
:1019E0000396E981FA819683858389819A8103969A
:1019F000E981FA8190878783E981FA8110820F90CB
:101A00000F90CF91DF910895DF93CF9300D0CDB7A2
:101A1000DEB79A838983E981FA81118610860F9057
:101A20000F90CF91DF910895DF93CF9300D000D036
:101A300000D0CDB7DEB79C838B837E836D83EB8133
:101A4000FC81818192819A838983E981FA818281F3
:101A50009381ED81FE8193838283EB81FC8181817F
:101A60009281ED81FE8195838483E981FA810280F0
:101A7000F381E02D8D819E81958384838D819E816C
:101A8000E981FA81938382838D819E81EB81FC8140
:101A900092838183ED81FE818B819C8191878087F8
:101AA000EB81FC8180818F5FEB81FC8180832696B6
:101AB0000FB6F894DEBF0FBECDBFCF91DF91089572
:101AC000DF93CF93CDB7DEB728970FB6F894DEBF7C
:101AD0000FBECDBF9E838D8378876F83EF81F8859E
:101AE000808191819A83898389819A812FEF8F3FA9
:101AF000920739F4ED81FE81878190859C838B83E9
:101B000018C08D819E8103969C838B8306C0EB81D8
:101B1000FC81828193819C838B83EB81FC81028099
:101B2000F381E02D2081318189819A818217930789
:101B300070F7EB81FC8182819381EF81F88593833B
:101B40008283EF81F8850280F381E02D8F81988573
:101B500095838483EF81F8858B819C819583848331
:101B60008F819885EB81FC8193838283EF81F88557
:101B70008D819E8191878087ED81FE8180818F5F3D
:101B8000ED81FE81808328960FB6F894DEBF0FBEEC
:101B9000CDBFCF91DF910895DF93CF9300D000D0D8
:101BA000CDB7DEB79C838B83EB81FC81A281B381AF
:101BB000EB81FC818481958115969C938E9314977B
:101BC000EB81FC81A481B581EB81FC8182819381D1
:101BD00013969C938E931297EB81FC81808591855F
:101BE0009A838983E981FA81218132818B819C8169
:101BF0002817390741F4EB81FC8184819581E981C3
:101C0000FA8192838183EB81FC8111861086E981C0
:101C1000FA8180818150E981FA8180830F900F9051
:101C20000F900F90CF91DF910895DF93CF9300D065
:101C3000CDB7DEB79A83898380E060E00E94D70841
:101C400080EA9FE00E945618F7CFDF93CF9300D031
:101C5000CDB7DEB79A83898380E061E00E94D70820
:101C600088EB9BE00E945618F7CFDF93CF9300D00C
:101C7000CDB7DEB79A83898380E062E00E94D708FF
:101C800080ED97E00E945618F7CFDF93CF9300D0F6
:101C9000CDB7DEB79A83898380E063E00E94D708DE
:101CA00088EE93E00E945618F7CFAF92BF92CF9282
:101CB000DF92EF92FF920F93DF93CF93CDB7DEB712
:101CC00066970FB6F894DEBF0FBECDBF80E061E02F
:101CD0000E941D0880E060E00E94960880E090E08D
:101CE000AAEFB3E48B879C87AD87BE876B857C8525
:101CF0008D859E8520E030E04AEF54E40E941F026B
:101D0000DC01CB018F839887A987BA876F8178859B
:101D100089859A8520E030E040E85FE30E947903FE
:101D200088232CF481E090E09E838D833FC06F81F7
:101D3000788589859A8520E03FEF4FE757E40E9438
:101D4000190318164CF56B857C858D859E8520E0E2
:101D500030E040E251E40E941F02DC01CB01BC01F3
:101D6000CD010E944900DC01CB019E838D830FC011
:101D700088EC90E09C838B838B819C810197F1F7A9
:101D80009C838B838D819E8101979E838D838D8122
:101D90009E81009769F714C06F81788589859A853F
:101DA0000E944900DC01CB019E838D838D819E8141
:101DB0009A83898389819A810197F1F79A8389832C
:101DC00085E19EE060E070E04AE550E020E030E030
:101DD00003E0EE24FF24CC24DD24AA24BB240E94AB
:101DE0009216813029F480E066E041E00E94A3066B
:101DF00085E29EE060E070E04AE550E020E030E0FF
:101E000002E0EE24FF24CC24DD24AA24BB240E947B
:101E1000921685E39EE060E070E04AE550E020E045
:101E200030E001E0EE24FF24CC24DD24AA24BB24EE
:101E30000E94921685E49EE060E070E04AE550E082
:101E400020E030E000E0EE24FF24CC24DD24AA24AE
:101E5000BB240E9492160E948B1880E090E0669648
:101E60000FB6F894DEBF0FBECDBFCF91DF910F91BB
:101E7000FF90EF90DF90CF90BF90AF900895DF93E9
:101E8000CF93CDB7DEB728970FB6F894DEBF0FBE5D
:101E9000CDBF9C838B837E836D8358874F83EB817B
:101EA000FC8181E180838B819C8101979C838B8362
:101EB000EB81FC8182E280838B819C8101979C83F2
:101EC0008B83EB81FC8183E380838B819C810197F1
:101ED0009C838B838D819E819A8389838981EB8109
:101EE000FC8180838B819C8101979C838B8389817A
:101EF0009A81892F99279A8389838981EB81FC8133
:101F000080838B819C8101979C838B83EB81FC81F7
:101F100010828B819C8101979C838B83EB81FC8158
:101F200080E880838B819C8101979C838B83EB81EC
:101F3000FC8110828B819C8101979C838B83EB8138
:101F4000FC8182E080838B819C8101979C838B83C1
:101F5000EB81FC8183E080838B819C8101979C8352
:101F60008B83EB81FC8184E080838B819C81019752
:101F70009C838B83EB81FC8185E080838B819C81BA
:101F800001979C838B83EB81FC8186E080838B812E
:101F90009C8101979C838B83EB81FC8187E080830C
:101FA0008B819C8101979C838B83EB81FC8188E0F2
:101FB00080838B819C8101979C838B83EB81FC8147
:101FC00089E080838B819C8101979C838B83EB814B
:101FD000FC8180E180838B819C8101979C838B8332
:101FE000EB81FC8181E180838B819C8101979C83C3
:101FF0008B83EB81FC8182E180838B819C810197C3
:102000009C838B83EB81FC8183E180838B819C812A
:1020100001979C838B83EB81FC8184E180838B819E
:102020009C8101979C838B83EB81FC8185E180837C
:102030008B819C8101979C838B83EB81FC8186E162
:1020400080838B819C8101979C838B83EB81FC81B6
:1020500087E180838B819C8101979C838B83EB81BB
:10206000FC8188E180838B819C8101979C838B8399
:10207000EB81FC8189E180838B819C8101979C832A
:102080008B83EB81FC8180E280838B819C81019733
:102090009C838B83EB81FC8181E280838B819C819B
:1020A00001979C838B83EB81FC8182E280838B810F
:1020B0009C8101979C838B83EB81FC8183E28083ED
:1020C0008B819C8101979C838B838F8198859A83D8
:1020D00089838981EB81FC8180838B819C8101973D
:1020E0009C838B8389819A81892F99279A838983FD
:1020F0008981EB81FC8180838B819C8101979C830A
:102100008B83EB81FC8186E280838B819C810197AC
:102110009C838B83EB81FC8187E280838B819C8114
:1021200001979C838B83EB81FC8188E280838B8188
:102130009C8101979C838B83EB81FC8189E2808366
:102140008B819C8101979C838B83EB81FC8180E355
:1021500080838B819C8101979C838B83EB81FC81A5
:1021600081E380838B819C8101979C838B838B810E
:102170009C8128960FB6F894DEBF0FBECDBFCF91DD
:10218000DF910895DF93CF93CDB7DEB70E94B211F0
:10219000A091EC06B091ED06CD91CDBFDD91DEBFF3
:1021A000FF91EF91DF91CF91BF91AF919F918F916F
:1021B0007F916F915F914F913F912F911F910F915F
:1021C000FF90EF90DF90CF90BF90AF909F908F9057
:1021D0007F906F905F904F903F902F901F900F9047
:1021E0000FBE0F90089581E0CF91DF910895DF93A6
:1021F000CF93CDB7DEB7CF91DF9108950F920FB691
:10220000F8940F921F9211242F923F924F925F9257
:102210006F927F928F929F92AF92BF92CF92DF92F6
:10222000EF92FF920F931F932F933F934F935F93E0
:102230006F937F938F939F93AF93BF93CF93DF93CE
:10224000EF93FF93A091EC06B091ED060DB60D92C1
:102250000EB60D920E946E1AA091EC06B091ED069A
:10226000CD91CDBFDD91DEBFFF91EF91DF91CF9199
:10227000BF91AF919F918F917F916F915F914F919E
:102280003F912F911F910F91FF90EF90DF90CF9092
:10229000BF90AF909F908F907F906F905F904F9086
:1022A0003F902F901F900F900FBE0F9008950F92A8
:1022B0000FB6F8940F921F9211242F923F924F92D3
:1022C0005F926F927F928F929F92AF92BF92CF92C6
:1022D000DF92EF92FF920F931F932F933F934F93B1
:1022E0005F936F937F938F939F93AF93BF93CF939E
:1022F000DF93EF93FF93A091EC06B091ED060DB63E
:102300000D920EB60D920E9499190E946E1AA0911C
:10231000EC06B091ED06CD91CDBFDD91DEBFFF9112
:10232000EF91DF91CF91BF91AF919F918F917F916D
:102330006F915F914F913F912F911F910F91FF905E
:10234000EF90DF90CF90BF90AF909F908F907F9055
:102350006F905F904F903F902F901F900F900FBE07
:102360000F900895DF93CF9300D000D000D0CDB769
:10237000DEB780E49FE1A0E0B0E08B839C83AD8377
:10238000BE838B819C81AD81BE81689415F8B69522
:10239000A795979587951694D1F78B839C83AD83EA
:1023A000BE838B819C81AD81BE810197A109B1095A
:1023B0008B839C83AD83BE838B8189838B819C813E
:1023C000AD81BE81892F9A2FAB2FBB278B839C8336
:1023D000AD83BE838B818A83EBE4F0E08A818083C6
:1023E000EAE4F0E0898180838BE08983EEE4F0E029
:1023F00089818083E9E5F0E080818983898180613A
:102400008983E9E5F0E08981808326960FB6F89408
:10241000DEBF0FBECDBFCF91DF9108950E9457114F
:102420001895DF93CF93CDB7DEB728970FB6F89402
:10243000DEBF0FBECDBF8F8368871A8219828F815E
:10244000882309F48CC08FE190E00E946E0C9E837B
:102450008D838D819E81009709F481C08F81282F03
:1024600030E08885882F90E0AC01249FC001259F33
:10247000900D349F900D112401969C838B838B814A
:102480009C810E946E0CED81FE8191838083ED81A1
:10249000FE8180819181009709F45DC0ED81FE810C
:1024A000408151818F81282F30E08885882F90E0EE
:1024B000BC01269FC001279F900D369F900D1124CF
:1024C000840F951FED81FE8193838283ED81FE81D0
:1024D000128EED81FE8180819181ED81FE81958357
:1024E0008483ED81FE81408151818F81882F90E02E
:1024F0009C01215030408885882F90E0BC01269FA8
:10250000C001279F900D369F900D1124840F951FB9
:10251000ED81FE8197838683ED81FE818F81838F9C
:10252000ED81FE818885848FED81FE818FEF858F1F
:10253000ED81FE818FEF868F8D819E8108960E94AE
:10254000DA0C8D819E8141960E94DA0C8D819E81EC
:102550009A83898304C08D819E810E94B40C8981F5
:102560009A8128960FB6F894DEBF0FBECDBFCF91EB
:10257000DF910895DF93CF93CDB7DEB72C970FB6D9
:10258000F894DEBF0FBECDBF9E838D8378876F83A7
:102590005A8749872B8719820FB6F8940F92ED81DD
:1025A000FE81928DED81FE81838D9817D8F48D8107
:1025B0009E812F813885B9014B850E94F514ED81EC
:1025C000FE818189882349F08D819E8141960E94F8
:1025D0000A1B813011F40E94FE100F900FBE81E0A3
:1025E0008C875CC089859A85009721F40F900FBE77
:1025F0001C8654C08981882331F4CE0102960E9442
:10260000721B81E089830F900FBE0E94CE180FB617
:10261000F8940F92ED81FE81858D8F3F19F4ED8145
:10262000FE81158EED81FE81868D8F3F19F4ED813F
:10263000FE81168E0F900FBECE0102969E01275F7F
:102640003F4FB9010E948B1B882309F58D819E8124
:102650000E9459168823A1F08D819E8108962985B4
:102660003A85B9010E94D41A8D819E810E94D215AB
:102670000E94DA18882309F08FCF0E94FE108CCFB9
:102680008D819E810E94D2150E94DA1885CF8D819E
:102690009E810E94D2150E94DA181C868C852C9689
:1026A0000FB6F894DEBF0FBECDBFCF91DF91089576
:1026B000DF93CF93CDB7DEB729970FB6F894DEBF7F
:1026C0000FBECDBF9C838B837E836D8358874F83E2
:1026D00029871982EB81FC81928DEB81FC81838DAE
:1026E000981740F58B819C812D813E81B9014985E8
:1026F0000E94F514EB81FC81868D8F3F89F4EB817C
:10270000FC818189882399F08B819C8141960E946C
:102710000A1B882361F0EF81F88581E0808307C080
:10272000EB81FC81868D8F5FEB81FC81868F81E060
:102730008A8301C01A828A8129960FB6F894DEBF77
:102740000FBECDBFCF91DF910895DF93CF93CDB76B
:10275000DEB72E970FB6F894DEBF0FBECDBF9887B9
:102760008F837A8769875C874B872D871B820FB69B
:10277000F8940F92EF81F885828D882309F43FC089
:10278000EF81F885868197819A8389838F819885E7
:1027900029853A85B9010E948A158D858823B1F46F
:1027A000EF81F885828D8150EF81F885828FEF81EE
:1027B000F88580858823F1F08F81988508960E949E
:1027C0000A1B8130B9F40E94FE1014C0EF81F88515
:1027D00089819A8197838683EF81F885818988230F
:1027E00049F08F81988541960E940A1B882311F039
:1027F0000E94FE100F900FBE81E08E875CC08B851B
:102800009C85009721F40F900FBE1E8654C08B81CB
:10281000882331F4CE0104960E94721B81E08B83E1
:102820000F900FBE0E94CE180FB6F8940F92EF8152
:10283000F885858D8F3F19F4EF81F885158EEF812E
:10284000F885868D8F3F19F4EF81F885168E0F90ED
:102850000FBECE0104969E01255F3F4FB9010E9435
:102860008B1B882309F58F8198850E942616882363
:10287000A1F08F81988541962B853C85B9010E94F6
:10288000D41A8F8198850E94D2150E94DA18882365
:1028900009F06DCF0E94FE106ACF8F8198850E944B
:1028A000D2150E94DA1863CF8F8198850E94D215C5
:1028B0000E94DA181E868E852E960FB6F894DEBF1B
:1028C0000FBECDBFCF91DF910895DF93CF93CDB7EA
:1028D000DEB728970FB6F894DEBF0FBECDBF9C833E
:1028E0008B837E836D8358874F831982EB81FC81B4
:1028F000828D882371F18B819C812D813E81B9016C
:102900000E948A15EB81FC81828D8150EB81FC81D4
:10291000828FEB81FC81858D8F3F89F4EB81FC8177
:102920008085882399F08B819C8108960E940A1BE0
:10293000882361F0EF81F88581E0808307C0EB8117
:10294000FC81858D8F5FEB81FC81858F81E08A839F
:1029500001C01A828A8128960FB6F894DEBF0FBE96
:10296000CDBFCF91DF910895DF93CF9300D00F9229
:10297000CDB7DEB79B838A830FB6F8940F92EA81B6
:10298000FB81828D89830F900FBE89810F900F90FC
:102990000F90CF91DF910895DF93CF9300D00F92E6
:1029A000CDB7DEB79B838A83EA81FB81828D8983E1
:1029B00089810F900F900F90CF91DF910895DF9351
:1029C000CF9300D0CDB7DEB79A838983E981FA81AE
:1029D000808191810E94B40C89819A810E94B40CFB
:1029E0000F900F90CF91DF910895DF93CF9300D098
:1029F00000D00F92CDB7DEB79A8389837C836B8337
:102A00004D83E981FA81848D882309F474C08D8116
:102A1000882399F5E981FA8164817581E981FA81D8
:102A2000848D482F50E02B813C81CB01B9010E945D
:102A3000B41DE981FA8124813581E981FA81848D8F
:102A4000882F90E0820F931FE981FA819583848318
:102A5000E981FA8124813581E981FA81828193813A
:102A60002817390708F447C0E981FA8180819181EC
:102A7000E981FA81958384833EC0E981FA81668188
:102A80007781E981FA81848D482F50E02B813C8148
:102A9000CB01B9010E94B41DE981FA8126813781F9
:102AA000E981FA81848D882F90E0909581959F4FE0
:102AB000820F931FE981FA8197838683E981FA81E6
:102AC00026813781E981FA81808191812817390730
:102AD00090F4E981FA8122813381E981FA81848D40
:102AE000882F90E0909581959F4F820F931FE981E9
:102AF000FA8197838683E981FA81828D8F5FE981EC
:102B0000FA81828F0F900F900F900F900F90CF91BE
:102B1000DF910895DF93CF9300D000D0CDB7DEB71B
:102B20009A8389837C836B83E981FA818081918197
:102B3000009789F1E981FA8126813781E981FA815B
:102B4000848D882F90E0820F931FE981FA8197830B
:102B50008683E981FA8126813781E981FA81828140
:102B600093812817390740F0E981FA8180819181AA
:102B7000E981FA8197838683E981FA8146815781C9
:102B8000E981FA81848D282F30E08B819C81BA0104
:102B9000A9010E94B41D0F900F900F900F90CF913C
:102BA000DF910895DF93CF9300D0CDB7DEB79A833E
:102BB00089830FB6F8940F9215C0E981FA81818953
:102BC0008823A9F089819A8141960E940A1B882353
:102BD00011F00E94E81BE981FA81868D8150E9811C
:102BE000FA81868FE981FA81868D181634F3E9819E
:102BF000FA818FEF868F0F900FBE0FB6F8940F9269
:102C000015C0E981FA8180858823A9F089819A819C
:102C100008960E940A1B882311F00E94E81BE98194
:102C2000FA81858D8150E981FA81858FE981FA8168
:102C3000858D181634F3E981FA818FEF858F0F9017
:102C40000FBE0F900F90CF91DF910895DF93CF9338
:102C500000D00F92CDB7DEB79B838A830FB6F8946E
:102C60000F92EA81FB81828D1982882311F481E021
:102C700089830F900FBE89810F900F900F90CF9195
:102C8000DF910895DF93CF9300D00F92CDB7DEB7D9
:102C90009B838A83EA81FB81828D1982882311F4C8
:102CA00081E0898389810F900F900F90CF91DF9100
:102CB0000895DF93CF9300D00F92CDB7DEB79B83FB
:102CC0008A830FB6F8940F92EA81FB81928DEA8194
:102CD000FB81838D1982981711F481E089830F900D
:102CE0000FBE89810F900F900F90CF91DF910895C3
:102CF000DF93CF9300D00F92CDB7DEB79B838A834B
:102D0000EA81FB81928DEA81FB81838D198298177C
:102D100011F481E0898389810F900F900F90CF91FA
:102D2000DF910895AF92BF92CF92DF92EF92FF9220
:102D30000F931F93DF93CF93CDB7DEB764970FB692
:102D4000F894DEBF0FBECDBF9F838E8379876887DF
:102D50005B874A873D872C870E87F88AEF86DA8A59
:102D6000C98ABC8AAB8A8A859B8529893A89B90137
:102D70000E94171D9C838B838B819C81009709F493
:102D800099C0EB81FC812789308D8A859B850197CD
:102D9000820F931F9A8389838B819C812885398533
:102DA000EB89FC89AA85BB85B9014E859F018D0100
:102DB0000E94FC1B89819A812E813F814C855D8513
:102DC000B9010E943F0FEB81FC81918380838F8545
:102DD0009889009731F0EF85F8898B819C819183E8
:102DE00080830FB6F8940F928091EF068F5F8093E7
:102DF000EF068091EC069091ED06009769F48B81C7
:102E00009C819093ED068093EC068091EF068130D3
:102E1000A9F40E94531C12C08091F406882371F417
:102E2000E091EC06F091ED0696898E85891730F0D9
:102E30008B819C819093ED068093EC06EB81FC8165
:102E400096898091F206891728F4EB81FC818689A6
:102E50008093F2068091F9068F5F8093F906EB81EB
:102E6000FC8196898091F306891728F4EB81FC8117
:102E700086898093F306EB81FC818689282F30E0D8
:102E8000C901880F991F880F991F880F991F820FFA
:102E9000931FAC014650594F8B819C819C012E5F42
:102EA0003F4FCA01B9010E94140D81E08D830F903C
:102EB0000FBE02C08FEF8D838D81813071F48091C0
:102EC000F406882351F0E091EC06F091ED06968926
:102ED0008E85981710F40E94FE108D8164960FB6AF
:102EE000F894DEBF0FBECDBFCF91DF911F910F9140
:102EF000FF90EF90DF90CF90BF90AF900895DF9359
:102F0000CF9300D000D000D0CDB7DEB79C838B83A9
:102F10000FB6F8940F922091EC063091ED068B815C
:102F20009C818217930711F41C821B828B819C81E8
:102F3000009739F48091EC069091ED069E838D8385
:102F400004C08B819C819E838D838D819E819A8319
:102F5000898389819A8102960E94CC0DE981FA8148
:102F600084899589009729F089819A810C960E941D
:102F7000CC0D89819A819C012E5F3F4F8AE697E0B4
:102F8000B9010E94140D8091EE068F5F8093EE06CA
:102F90008091F9068F5F8093F9060F900FBE8091A4
:102FA000F406882331F08B819C81009711F40E94F4
:102FB000FE1026960FB6F894DEBF0FBECDBFCF91A0
:102FC000DF910895DF93CF93CDB7DEB728970FB683
:102FD000F894DEBF0FBECDBF9E838D8378876F834D
:102FE00019820E94CE18ED81FE81208131818F816E
:102FF0009885820F931F9C838B83ED81FE812081B6
:1030000031818091F0069091F10682179307A8F420
:10301000ED81FE81208131818B819C818217930714
:1030200000F52091F0063091F1068B819C812817E4
:103030003907B8F481E0898314C0ED81FE812081D5
:1030400031818B819C818217930748F02091F00693
:103050003091F1068B819C812817390710F481E0AB
:103060008983ED81FE818B819C819183808389811D
:10307000882359F08091EC069091ED0602960E940B
:10308000CC0D8B819C810E94CE1C0E94DA188A8311
:103090008A81882311F40E94FE1028960FB6F894B6
:1030A000DEBF0FBECDBFCF91DF910895DF93CF93E9
:1030B00000D000D00F92CDB7DEB79D838C831982EC
:1030C0008C819D810097D1F00E94CE182091F0064E
:1030D0003091F1068C819D81820F931F9B838A839F
:1030E0008091EC069091ED0602960E94CC0D8A81AB
:1030F0009B810E94CE1C0E94DA18898389818823D3
:1031000011F40E94FE100F900F900F900F900F90EF
:10311000CF91DF910895AF92BF92CF92DF92EF925D
:10312000FF920F93DF93CF930F92CDB7DEB720E6D8
:1031300030E082EF9BE1B9014AE550E020E030E069
:1031400000E0EE24FF24CC24DD24AA24BB240E942A
:10315000921689838981813051F4F89481E08093BB
:10316000F4061092F1061092F0060E94C2100F9021
:10317000CF91DF910F91FF90EF90DF90CF90BF90B4
:10318000AF900895DF93CF93CDB7DEB7F894109248
:10319000F4060E94F710CF91DF910895DF93CF934B
:1031A000CDB7DEB78091F5068F5F8093F506CF919E
:1031B000DF910895DF93CF9300D000D0CDB7DEB775
:1031C0001A820FB6F8940F928091F5068150809381
:1031D000F5068091F506882309F06CC08091EF0612
:1031E000882309F467C0198241C0E0916607F09115
:1031F0006707868197819C838B838B819C810C964A
:103200000E94CC0D8B819C8102960E94CC0DEB819B
:10321000FC8196898091F306891728F4EB81FC8163
:1032200086898093F306EB81FC818689282F30E024
:10323000C901880F991F880F991F880F991F820F46
:10324000931F8650994F2B813C812E5F3F4FB901D0
:103250000E94140DEB81FC819689E091EC06F091BF
:10326000ED068689981710F081E0898380916107C7
:10327000882309F0BACF8091F606882371F007C041
:103280000E9499198091F60681508093F6068091EC
:10329000F6068823A9F781E089838981813021F0AE
:1032A0008091F706813031F481E08A831092F7062D
:1032B0000E94FE100F900FBE8A810F900F900F900A
:1032C0000F90CF91DF910895DF93CF9300D0CDB7CA
:1032D000DEB70FB6F8940F928091F0069091F10648
:1032E0009A8389830F900FBE89819A810F900F90E6
:1032F000CF91DF910895DF93CF9300D00F92CDB798
:10330000DEB719828091F0069091F1069B838A8343
:103310008A819B810F900F900F90CF91DF9108953C
:10332000DF93CF93CDB7DEB78091EF06CF91DF91DA
:103330000895DF93CF9300D000D000D0CDB7DEB793
:103340008091F506882309F0BBC08091F00690912A
:10335000F10601969093F1068093F0068091F006B5
:103360009091F1060097D1F580915D0790915E07ED
:103370009C838B8380915F079091600790935E0799
:1033800080935D078B819C819093600780935F079A
:103390008091F8068F5F8093F806E0915D07F091C9
:1033A0005E078081882339F48FEF9FEF90936E0042
:1033B00080936D0013C0E0915D07F0915E0705807A
:1033C000F681E02D868197819E838D83ED81FE813C
:1033D0008281938190936E0080936D002091F0061E
:1033E0003091F10680916D0090916E002817390799
:1033F00008F46BC0E0915D07F0915E07808188233F
:1034000039F48FEF9FEF90936E0080936D005DC055
:10341000E0915D07F0915E070580F681E02D8681E1
:1034200097819E838D83ED81FE81828193819A8332
:1034300089832091F0063091F10689819A812817BD
:10344000390738F489819A8190936E0080936D00DA
:103450003CC08D819E8102960E94CC0DED81FE8143
:1034600084899589009729F08D819E810C960E9410
:10347000CC0DED81FE8196898091F306891728F4A1
:10348000ED81FE8186898093F306ED81FE81868938
:10349000282F30E0C901880F991F880F991F880FC6
:1034A000991F820F931FAC014650594F8D819E8109
:1034B0009C012E5F3F4FCA01B9010E94140D9ACFA3
:1034C0008091F6068F5F8093F60626960FB6F894E5
:1034D000DEBF0FBECDBFCF91DF910895DF93CF93B5
:1034E00000D0CDB7DEB78091F506882349F081E0A2
:1034F0008093F70654C08091F30681508093F306C1
:103500008091F306282F30E0C901880F991F880F9A
:10351000991F880F991F820F931FFC01E650F94FE6
:103520008081882341F38091F306282F30E0C90180
:10353000880F991F880F991F880F991F820F931F5B
:103540008650994F9A838983E981FA810180F281BB
:10355000E02D82819381E981FA8192838183E981DF
:10356000FA812181328189819A810396281739074E
:1035700059F4E981FA810180F281E02D8281938101
:10358000E981FA8192838183E981FA810180F28164
:10359000E02D868197819093ED068093EC060F9045
:1035A0000F90CF91DF910895DF93CF9300D000D09B
:1035B00000D0CDB7DEB79C838B837E836D834B8138
:1035C0005C818091EC069091ED069C01245F3F4F59
:1035D000CA01B9010E94600D8091EC069091ED0640
:1035E00002960E94CC0D2091F0063091F1068D815B
:1035F0009E81820F931F9A83898389819A810E9479
:10360000CE1C26960FB6F894DEBF0FBECDBFCF916D
:10361000DF910895DF93CF9300D000D00F92CDB704
:10362000DEB79D838C83EC81FD810580F681E02DE2
:10363000868197819B838A838A819B810C960E94D5
:10364000CC0D8091F506882361F58A819B810296D5
:103650000E94CC0DEA81FB8196898091F30689173F
:1036600028F4EA81FB8186898093F306EA81FB8155
:103670008689282F30E0C901880F991F880F991F6C
:10368000880F991F820F931FAC014650594F8A81B2
:103690009B819C012E5F3F4FCA01B9010E94140D0E
:1036A0000AC08A819B819C01245F3F4F81E697E09D
:1036B000B9010E94140DEA81FB819689E091EC0624
:1036C000F091ED068689981718F081E0898301C092
:1036D000198289810F900F900F900F900F90CF91CA
:1036E000DF910895DF93CF9300D0CDB7DEB79A83F3
:1036F00089838091F806E981FA8180838091F006C0
:103700009091F106E981FA81928381830F900F9065
:10371000CF91DF910895DF93CF9300D000D00F9227
:10372000CDB7DEB79B838A837D836C830FB6F89415
:103730000F92EA81FB8190818091F806981771F0D1
:10374000EA81FB81218132818091F0069091F1061E
:103750008217930718F081E089832FC02091F0062B
:103760003091F106EA81FB8181819281281B390B1E
:10377000EC81FD818081918128173907E0F4EC818B
:10378000FD8140815181EA81FB81218132818091DB
:10379000F0069091F106B901681B790BCB01840FFB
:1037A000951FEC81FD81918380838A819B810E949A
:1037B000721B198202C081E089830F900FBE89813C
:1037C0000F900F900F900F900F90CF91DF91089571
:1037D000DF93CF93CDB7DEB781E08093F706CF912B
:1037E000DF910895DF93CF9300D0CDB7DEB79A83F2
:1037F00089830E94901CFDCF0F931F93DF93CF937B
:10380000CDB7DEB729970FB6F894DEBF0FBECDBF98
:103810009A8389837C836B834D833F832E831987AF
:10382000088789819A8149962B813C81B90148E0BA
:1038300050E00E94C41DE981FA8110A28D81893077
:1038400010F088E08D83E981FA818D81868B8981F2
:103850009A8102960E94040D89819A810C960E9499
:10386000040DE981FA8189819A81918780878D8110
:10387000282F30E089E090E0821B930BE981FA81E8
:1038800095878487E981FA8189819A81938B828BDC
:1038900029960FB6F894DEBF0FBECDBFCF91DF9152
:1038A0001F910F910895DF93CF930F92CDB7DEB79D
:1038B000198213C08981282F30E0C901880F991F10
:1038C000880F991F880F991F820F931F8650994F59
:1038D0000E94DA0C89818F5F89838981893050F356
:1038E0008BE497E00E94DA0C84E597E00E94DA0C02
:1038F00081E697E00E94DA0C8AE697E00E94DA0CF3
:103900008BE497E090935E0780935D0784E597E0F2
:103910009093600780935F070F90CF91DF91089598
:10392000DF93CF9300D00F92CDB7DEB78091EE0634
:10393000882371F10E94CE1880916A071B82882328
:1039400011F481E08B830E94DA188B81882301F5C2
:103950000FB6F8940F92E0916F07F091700786818F
:1039600097819A83898389819A8102960E94CC0DDE
:103970008091EF0681508093EF068091EE06815092
:103980008093EE060F900FBE89819A810E94671D79
:103990000F900F900F90CF91DF910895DF93CF9309
:1039A00000D0CDB7DEB79A838983E091EC06F09121
:1039B000ED0689819A81938382832091F00630916C
:1039C000F10689819A818217930770F480915F07CD
:1039D000909160072091EC063091ED062E5F3F4FED
:1039E000B9010E94600D1EC040915D0750915E07B5
:1039F0008091EC069091ED069C012E5F3F4FCA012D
:103A0000B9010E94600D20916D0030916E00898196
:103A10009A818217930730F489819A8190936E007E
:103A200080936D000F900F90CF91DF910895DF93F9
:103A3000CF93CDB7DEB728970FB6F894DEBF0FBE91
:103A4000CDBF9C838B837E836D8381E290E00E9457
:103A50006E0C9A83898389819A81009769F18D819F
:103A60009E81009739F48B819C810E946E0C98870F
:103A70008F8304C08D819E8198878F83E981FA812D
:103A80008F819885908F878BE981FA818789908DC6
:103A9000009739F489819A810E94B40C1A821982A4
:103AA0000BC0E981FA818789908D2B813C8165EA81
:103AB00070E0A9010E94BD1D89819A8128960FB6E8
:103AC000F894DEBF0FBECDBFCF91DF910895DF9395
:103AD000CF9300D0CDB7DEB79A838983E981FA818D
:103AE0008789908D0E94B40C89819A810E94B40CC0
:103AF0000F900F90CF91DF9108952F923F924F92A8
:103B00005F926F927F928F929F92AF92BF92CF926D
:103B1000DF92EF92FF920F931F93CF93DF93CDB776
:103B2000DEB7CA1BDB0B0FB6F894DEBF0FBECDBFEE
:103B300009942A88398848885F846E847D848C84BF
:103B40009B84AA84B984C884DF80EE80FD800C81C8
:103B50001B81AA81B981CE0FD11D0FB6F894DEBFAB
:103B60000FBECDBFED010895FB01DC0102C0019045
:103B70000D9241505040D8F70895DC0101C06D937B
:103B800041505040E0F70895FB01DC0141505040A6
:103B900048F001900D920020C9F701C01D924150DC
:0A3BA0005040E0F70895F894FFCFBD
:103BAA0049444C45000000000000000000FFFF00EF
:00000001FF
