:100000000C942A000C9447000C9447000C94470071
:100010000C9447000C9447000C9447000C944F1824
:100020000C9447000C9447000C9447000C94470034
:100030000C9447000C9447000C9447000C94470024
:100040000C9447000C9447000C9447000C94470014
:100050000C94470011241FBECFE5D8E0DEBFCDBF12
:1000600010E0A0E6B0E0E4E4F8E402C005900D92F0
:10007000A039B107D9F716E0A0E9B0E001C01D92A0
:10008000A530B107E1F70E9423150C9420240C94AD
:100090000000EF92FF920F931F937B018C0120E0F1
:1000A00030E040E05FE40E94490388238CF0C801FF
:1000B000B70120E030E040E05FE40E94C1010E940F
:1000C000A9039B01AC01205030404040504806C07D
:1000D000C801B7010E94A9039B01AC01B901CA0183
:1000E0001F910F91FF90EF900895A0E0B0E0EBE733
:1000F000F0E00C94CA23DC012B01FA019C919230B0
:1001000008F439C1EB018881823008F433C194309E
:1001100069F4843009F02FC111969C91119789815F
:10012000981709F428C1A6E8B0E025C1843009F485
:1001300021C18230A9F4923009F01DC19A01AD01AC
:1001400088E0EA010990AE01E90109929E0181501F
:10015000C1F7E201898111969C918923818308C1AD
:10016000923009F407C112962D903C901397EB0141
:100170008A819B811496AD90BD90CD90DC901797AD
:10018000EC80FD800E811F819101281B390BB90184
:1001900037FF04C066277727621B730B6032710537
:1001A0000CF061C0121613066CF537014801062EDB
:1001B00004C096948794779467940A94D2F721E0C8
:1001C00030E040E050E004C0220F331F441F551FB1
:1001D0006A95D2F721503040404050402E213F21B7
:1001E00040235123211531054105510521F021E01E
:1001F00030E040E050E079018A01E628F72808293C
:1002000019293CC0232BD1F1260E371E350146019A
:10021000062E04C096948794779467940A94D2F734
:1002200021E030E040E050E004C0220F331F441FC3
:10023000551F6A95D2F721503040404050402A2146
:100240003B214C215D21211531054105510521F04E
:1002500021E030E040E050E059016A01A628B728CB
:10026000C828D9280BC0821593052CF01C01AA249C
:10027000BB24650103C0EE24FF24870111969C91E5
:10028000D20111968C91981709F445C0992339F041
:10029000A80197012A193B094C095D0906C0A6016E
:1002A00095012E193F09400B510B57FD08C01182D3
:1002B0003382228224833583468357831DC081E0A5
:1002C00081833382228288279927DC01821B930B4A
:1002D000A40BB50B84839583A683B7830DC0220F2F
:1002E000331F441F551F24833583468357838281E0
:1002F000938101979383828324813581468157813D
:10030000DA01C9010197A109B1098F5F9F4FAF4F72
:10031000BF4328F30BC0918333822282EA0CFB1C7B
:100320000C1D1D1DE482F5820683178383E0808304
:10033000248135814681578157FF1AC0C901AA27F8
:1003400097FDA095BA2F81709070A070B0705695EF
:10035000479537952795822B932BA42BB52B848318
:100360009583A683B7838281938101969383828349
:10037000DF0101C0D201CD01CDB7DEB7E2E10C94BF
:10038000E623A0E2B0E0E7ECF1E00C94D623698329
:100390007A838B839C832D833E834F835887E9E048
:1003A000EE2EF12CEC0EFD1ECE010196B7010E943F
:1003B000D2048E010F5E1F4FCE010596B8010E9438
:1003C000D2048A8991E089278A8BC701B801AE01DE
:1003D000475E5F4F0E9475000E94FD03A096E6E015
:1003E0000C94F223A0E2B0E0E8EFF1E00C94D62305
:1003F00069837A838B839C832D833E834F835887C5
:10040000F9E0EF2EF12CEC0EFD1ECE010196B701A6
:100410000E94D2048E010F5E1F4FCE010596B801D7
:100420000E94D204C701B801AE01475E5F4F0E942F
:1004300075000E94FD03A096E6E00C94F223A0E272
:10044000B0E0E5E2F2E00C94CA2369837A838B83FF
:100450009C832D833E834F835887CE010196BE0136
:10046000675F7F4F0E94D204CE010596BE016F5E8A
:100470007F4F0E94D2049985923088F0898982301A
:10048000C8F0943019F4823051F404C0843029F457
:10049000923081F486E890E0C6C0923049F420E0C2
:1004A0009A858A89981321E02A87CE010996BBC0D4
:1004B000823049F420E09A858A89981321E02A8BBA
:1004C000CE014196B0C02D843E844F8458886D88FB
:1004D0007E888F88988CEE24FF248701AA24BB2471
:1004E000650140E050E060E070E0E0E0F0E0C10174
:1004F00081709070892BE9F0E60CF71C081D191D1E
:100500009A01AB012A0D3B1D4C1D5D1D80E090E062
:10051000A0E0B0E0E614F7040805190520F481E036
:1005200090E0A0E0B0E0BA01A901480F591F6A1F8E
:100530007B1FAA0CBB1CCC1CDD1C97FE08C081E0F5
:1005400090E0A0E0B0E0A82AB92ACA2ADB2A3196B6
:10055000E032F10549F0660C771C881C991C569412
:10056000479437942794C3CFFA85EA892B893C892D
:100570008B859C85280F391F2E5F3F4F17C0CA01FE
:1005800081709070892B61F016950795F794E79428
:1005900080E090E0A0E0B0E8E82AF92A0A2B1B2BC3
:1005A00076956795579547952F5F3F4F77FDE7CF36
:1005B0000CC0440F551F661F771F17FD4160EE0CDE
:1005C000FF1C001F111F21503040403090E05907A0
:1005D00090E0690790E4790760F32B8F3C8FDB0193
:1005E000CA018F779070A070B07080349105A1051A
:1005F000B10561F447FD0AC0E114F10401051105DC
:1006000029F0405C5F4F6F4F7F4F40781A8EFE1786
:1006100011F081E08A8F4D8F5E8F6F8F78A383E01A
:10062000898FCE0149960E94FD03A096E2E10C94C9
:10063000E623A8E1B0E0EFE1F3E00C94D623698370
:100640007A838B839C832D833E834F83588789E0F5
:10065000E82EF12CEC0EFD1ECE010196B7010E9492
:10066000D2048E010F5E1F4FCE010596B8010E9485
:10067000D2048985823040F08989823028F0C70110
:10068000B8010E944A0501C08FEF6896E6E00C941D
:10069000F223A8E1B0E0EFE4F3E00C94D623698301
:1006A0007A838B839C832D833E834F83588789E095
:1006B000E82EF12CEC0EFD1ECE010196B7010E9432
:1006C000D2048E010F5E1F4FCE010596B8010E9425
:1006D000D2048985823040F08989823028F0C701B0
:1006E000B8010E944A0501C08FEF6896E6E00C94BD
:1006F000F223A8E1B0E0EFE7F3E00C94D62369839E
:100700007A838B839C832D833E834F83588789E034
:10071000E82EF12CEC0EFD1ECE010196B7010E94D1
:10072000D2048E010F5E1F4FCE010596B8010E94C4
:10073000D2048985823040F08989823028F0C7014F
:10074000B8010E944A0501C081E06896E6E00C9479
:10075000F223ACE0B0E0EFEAF3E00C94DA23698333
:100760007A838B839C83CE010196BE016B5F7F4FA2
:100770000E94D2048D81823061F1823050F1843048
:1007800021F48E81882351F12EC02F81388537FDC9
:1007900020C06E812F3131051CF06623F9F023C093
:1007A0008EE190E0821B930B29853A854B855C8511
:1007B00004C056954795379527958A95D2F76623B5
:1007C000B1F050954095309521953F4F4F4F5F4F79
:1007D0000EC020E030E040E050E009C02FEF3FEFD6
:1007E0004FEF5FE704C020E030E040E050E8B9019F
:1007F000CA012C96E2E00C94F623DF92EF92FF926E
:100800000F931F93FC01E480F58006811781D1804E
:100810008081823048F480E090E0A0E1B0E0E82AF6
:10082000F92A0A2B1B2BA5C0843009F49FC0823003
:1008300021F4EE24FF24870105C0E114F104010531
:10084000110519F4E0E0F0E096C0628173819FEF3A
:10085000623879070CF05BC022E83FEF261B370BAC
:100860002A3131052CF020E030E040E050E02AC091
:10087000B801A701022E04C0769567955795479554
:100880000A94D2F781E090E0A0E0B0E004C0880FC5
:10089000991FAA1FBB1F2A95D2F70197A109B10979
:1008A0008E219F21A023B1230097A105B10521F03E
:1008B00081E090E0A0E0B0E09A01AB01282B392B59
:1008C0004A2B5B2BDA01C9018F779070A070B07052
:1008D00080349105A105B10539F427FF09C0205CDA
:1008E0003F4F4F4F5F4F04C0215C3F4F4F4F5F4F13
:1008F000E0E0F0E02030A0E03A07A0E04A07A0E402
:100900005A0710F0E1E0F0E079018A0127C0603871
:10091000710564F5FB01E158FF4FD801C7018F77DE
:100920009070A070B07080349105A105B10539F4C4
:10093000E7FE0DC080E490E0A0E0B0E004C08FE3EB
:1009400090E0A0E0B0E0E80EF91E0A1F1B1F17FFA1
:1009500005C016950795F794E794319687E01695AC
:100960000795F794E7948A95D1F705C0EE24FF2404
:100970008701EFEFF0E06E2F679566276795902F60
:100980009F77D794DD24D7948E2F8695492F462BB9
:10099000582F5D29B701CA011F910F91FF90EF9069
:1009A000DF900895FC01DB01408151812281622F9B
:1009B0006F7770E0221F2227221F9381892F880FD3
:1009C000822B282F30E0991F9927991F11969C930D
:1009D000119721153105A9F54115510561057105DD
:1009E00011F482E037C082E89FEF13969C938E93B8
:1009F00012979A01AB0167E0220F331F441F551F66
:100A00006A95D1F783E08C930DC0220F331F441FEA
:100A1000551F12968D919C911397019713969C9355
:100A20008E931297203080E0380780E0480780E4FA
:100A3000580758F314962D933D934D935C93179755
:100A400008952F3F310579F4411551056105710570
:100A500019F484E08C93089564FF03C081E08C93C3
:100A600012C01C9210C02F57304013963C932E9307
:100A7000129783E08C9387E0440F551F661F771F02
:100A80008A95D1F7706414964D935D936D937C9322
:100A9000179708951F93DC01FB019C91923008F495
:100AA00047C08081823008F443C0943051F41196DD
:100AB0001C91843099F58181682F70E0611B710968
:100AC0003FC0843021F0923031F48230B9F181811D
:100AD000882389F12DC011961C9111978230F1F075
:100AE00081811817D9F412962D913C911397828128
:100AF00093818217930794F028173907BCF0149656
:100B00008D919D910D90BC91A02D248135814681C0
:100B10005781281739074A075B0718F4112341F05A
:100B20000AC082179307A407B50740F4112319F0F0
:100B300061E070E005C06FEF7FEF02C060E070E041
:100B4000CB011F910895DF93CF93CDB7DEB72797E1
:100B50000FB6F894DEBF0FBECDBF89836A834B8387
:100B60008B81813009F06FC08981282F30E03F836D
:100B70002E838E819F818130910549F12E813F81A5
:100B8000223031052CF48E819F81009761F0D2C014
:100B90002E813F812230310571F18E819F8183301A
:100BA0009105E9F1C7C0AAE3B0E0EAE3F0E0808193
:100BB000482F8A81282F30E081E090E0022E02C089
:100BC000880F991F0A94E2F7842B8C93B3C0A7E394
:100BD000B0E0E7E3F0E08081482F8A81282F30E001
:100BE00081E090E0022E02C0880F991F0A94E2F77C
:100BF000842B8C939FC0A4E3B0E0E4E3F0E0808119
:100C0000482F8A81282F30E081E090E0022E02C038
:100C1000880F991F0A94E2F7842B8C938BC0A1E371
:100C2000B0E0E1E3F0E08081482F8A81282F30E0B6
:100C300081E090E0022E02C0880F991F0A94E2F72B
:100C4000842B8C9377C08B81882309F073C08981B2
:100C5000282F30E03D832C838C819D81813091054C
:100C600059F12C813D81223031052CF48C819D81FC
:100C7000009769F05FC02C813D812230310589F1F8
:100C80008C819D818330910509F440C053C0AAE353
:100C9000B0E0EAE3F0E08081482F8A81282F30E03D
:100CA00081E090E0022E02C0880F991F0A94E2F7BB
:100CB000809584238C933EC0A7E3B0E0E7E3F0E0A7
:100CC0008081482F8A81282F30E081E090E0022E39
:100CD00002C0880F991F0A94E2F7809584238C93B1
:100CE00029C0A4E3B0E0E4E3F0E08081482F8A81EA
:100CF000282F30E081E090E0022E02C0880F991F7B
:100D00000A94E2F7809584238C9314C0A1E3B0E0A9
:100D1000E1E3F0E08081482F8A81282F30E081E0F4
:100D200090E0022E02C0880F991F0A94E2F7809586
:100D300084238C9327960FB6F894DEBF0FBECDBFE9
:100D4000CF91DF910895DF93CF93CDB7DEB727978B
:100D50000FB6F894DEBF0FBECDBF89836A834B8385
:100D60008B81813009F06FC08981282F30E03F836B
:100D70002E838E819F818130910549F12E813F81A3
:100D8000223031052CF48E819F81009761F0D2C012
:100D90002E813F812230310571F18E819F81833018
:100DA0009105E9F1C7C0ABE3B0E0EBE3F0E080818F
:100DB000482F8A81282F30E081E090E0022E02C087
:100DC000880F991F0A94E2F7842B8C93B3C0A8E391
:100DD000B0E0E8E3F0E08081482F8A81282F30E0FE
:100DE00081E090E0022E02C0880F991F0A94E2F77A
:100DF000842B8C939FC0A5E3B0E0E5E3F0E0808115
:100E0000482F8A81282F30E081E090E0022E02C036
:100E1000880F991F0A94E2F7842B8C938BC0A2E36E
:100E2000B0E0E2E3F0E08081482F8A81282F30E0B3
:100E300081E090E0022E02C0880F991F0A94E2F729
:100E4000842B8C9377C08B81882309F073C08981B0
:100E5000282F30E03D832C838C819D81813091054A
:100E600059F12C813D81223031052CF48C819D81FA
:100E7000009769F05FC02C813D812230310589F1F6
:100E80008C819D818330910509F440C053C0ABE350
:100E9000B0E0EBE3F0E08081482F8A81282F30E03A
:100EA00081E090E0022E02C0880F991F0A94E2F7B9
:100EB000809584238C933EC0A8E3B0E0E8E3F0E0A3
:100EC0008081482F8A81282F30E081E090E0022E37
:100ED00002C0880F991F0A94E2F7809584238C93AF
:100EE00029C0A5E3B0E0E5E3F0E08081482F8A81E6
:100EF000282F30E081E090E0022E02C0880F991F79
:100F00000A94E2F7809584238C9314C0A2E3B0E0A6
:100F1000E2E3F0E08081482F8A81282F30E081E0F1
:100F200090E0022E02C0880F991F0A94E2F7809584
:100F300084238C9327960FB6F894DEBF0FBECDBFE7
:100F4000CF91DF910895DF93CF9300D000D00F921F
:100F5000CDB7DEB78A836B8319828A81282F30E070
:100F60003D832C834C815D814130510541F18C8161
:100F70009D818230910534F42C813D81211531050C
:100F800061F052C04C815D814230510551F18C813C
:100F90009D8183309105B9F147C0E9E3F0E080819C
:100FA000282F30E08B81882F90E0A90102C0559551
:100FB00047958A95E2F7CA018170898335C0E6E3D7
:100FC000F0E08081282F30E08B81882F90E0A9010C
:100FD00002C0559547958A95E2F7CA0181708983C9
:100FE00023C0E3E3F0E08081282F30E08B81882F5D
:100FF00090E0A90102C0559547958A95E2F7CA018C
:101000008170898311C0E0E3F0E08081282F30E017
:101010008B81882F90E0A90102C0559547958A954C
:10102000E2F7CA018170898389810F900F900F9038
:101030000F900F90CF91DF910895DF93CF9300D061
:1010400000D000D0CDB7DEB789836A838A81813032
:1010500099F58981282F30E03E832D838D819E81F3
:1010600081309105D1F02D813E81223031052CF463
:101070008D819E81009761F050C02D813E8122308C
:10108000310581F08D819E818330910581F045C0CD
:10109000EAE3F0E08FEF808340C0E7E3F0E08FEF1A
:1010A00080833BC0E4E3F0E08FEF808336C0E1E370
:1010B000F0E08FEF808331C08A81882371F58981C8
:1010C000282F30E03C832B838B819C8181309105DC
:1010D000C9F02B813C81223031052CF48B819C811D
:1010E000009761F01AC02B813C812230310571F0EC
:1010F0008B819C818330910569F00FC0EAE3F0E0B9
:1011000010820BC0E7E3F0E0108207C0E4E3F0E0F8
:10111000108203C0E1E3F0E0108226960FB6F89447
:10112000DEBF0FBECDBFCF91DF910895DF93CF9388
:1011300000D000D0CDB7DEB789836A838981282F9C
:1011400030E03C832B838B819C8181309105D1F0F1
:101150002B813C81223031052CF48B819C810097BE
:1011600061F01EC02B813C812230310581F08B81E2
:101170009C818330910581F013C0EBE3F0E08A811C
:1011800080830EC0E8E3F0E08A81808309C0E5E354
:10119000F0E08A81808304C0E2E3F0E08A8180830A
:1011A0000F900F900F900F90CF91DF910895DF93E4
:1011B000CF9300D000D0CDB7DEB789836A83898111
:1011C000282F30E03C832B838B819C8181309105DB
:1011D00049F12B813C81223031052CF48B819C819B
:1011E000009761F05AC02B813C812230310571F1AA
:1011F0008B819C8183309105E9F14FC0ABE3B0E076
:10120000EBE3F0E08081482F8A81282F30E081E0F5
:1012100090E0022E02C0880F991F0A94E2F78427FB
:101220008C933BC0A8E3B0E0E8E3F0E08081482F76
:101230008A81282F30E081E090E0022E02C0880FE2
:10124000991F0A94E2F784278C9327C0A5E3B0E0A6
:10125000E5E3F0E08081482F8A81282F30E081E0AB
:1012600090E0022E02C0880F991F0A94E2F78427AB
:101270008C9313C0A2E3B0E0E2E3F0E08081482F5A
:101280008A81282F30E081E090E0022E02C0880F92
:10129000991F0A94E2F784278C930F900F900F9078
:1012A0000F90CF91DF910895DF93CF9300D000D0BE
:1012B000CDB7DEB78A8319828A81282F30E03C833C
:1012C0002B838B819C8181309105D1F02B813C81D6
:1012D000223031052CF48B819C81009761F01EC077
:1012E0002B813C812230310581F08B819C818330C0
:1012F000910581F013C0E9E3F0E0808189830EC09D
:10130000E6E3F0E08081898309C0E3E3F0E08081D7
:10131000898304C0E0E3F0E08081898389810F90B4
:101320000F900F900F90CF91DF9108950F931F931F
:10133000DF93CF93CDB7DEB7C654D0400FB6F89445
:10134000DEBF0FBECDBF80E060E041E00E94A3059C
:1013500080E061E041E00E94A30580E062E041E0BE
:101360000E94A305FE01ED5BFF4F80E090E0A0E24C
:10137000B2E480839183A283B3838E01015C1F4F0B
:10138000FE01ED5BFF4F608171818281938120E0DE
:1013900030E04AEF54E40E941F02DC01CB01F80167
:1013A00080839183A283B383FE01FF966081718164
:1013B0008281938120E030E040E85FE30E9479037E
:1013C00088232CF481E090E09EAF8DAF46C0FE01F3
:1013D000FF96608171818281938120E03FEF4FE72A
:1013E00057E40E941903181664F5FE01ED5BFF4FE8
:1013F000608171818281938120E030E040E251E49C
:101400000E941F02DC01CB01BC01CD010E944900FA
:10141000DC01CB019EAF8DAF0FC088EC90E09CAF9C
:101420008BAF8BAD9CAD0197F1F79CAF8BAF8DADC2
:101430009EAD01979EAF8DAF8DAD9EAD009769F7C4
:1014400016C0FE01FF9660817181828193810E94A6
:101450004900DC01CB019EAF8DAF8DAD9EAD9AAF43
:1014600089AF89AD9AAD0197F1F79AAF89AF82E064
:1014700061E00E941D0888E30E940F0E80E090E06A
:10148000A0E8BFE38DAB9EABAFABB8AF6DA97EA9B3
:101490008FA998AD20E030E04AEF54E40E941F028B
:1014A000DC01CB0189AB9AABABABBCAB69A97AA928
:1014B0008BA99CA920E030E040E85FE30E9479031B
:1014C00088232CF481E090E098AB8FA73FC069A9F6
:1014D0007AA98BA99CA920E03FEF4FE757E40E942F
:1014E000190318164CF56DA97EA98FA998AD20E0B7
:1014F00030E040E251E40E941F02DC01CB01BC015C
:10150000CD010E944900DC01CB0198AB8FA70FC031
:1015100088EC90E09EA78DA78DA59EA50197F1F779
:101520009EA78DA78FA598A9019798AB8FA78FA588
:1015300098A9009769F714C069A97AA98BA99CA9F1
:101540000E944900DC01CB0198AB8FA78FA598A919
:101550009CA78BA78BA59CA50197F1F79CA78BA7B0
:101560008FE00E940F0E80E090E0A0E8BFE38FA321
:1015700098A7A9A7BAA76FA178A589A59AA520E0E1
:1015800030E04AEF54E40E941F02DC01CB018BA340
:101590009CA3ADA3BEA36BA17CA18DA19EA120E0C5
:1015A00030E040E85FE30E94790388232CF481E077
:1015B00090E09AA389A33FC06BA17CA18DA19EA1BD
:1015C00020E03FEF4FE757E40E94190318164CF54F
:1015D0006FA178A589A59AA520E030E040E251E40A
:1015E0000E941F02DC01CB01BC01CD010E94490019
:1015F000DC01CB019AA389A30FC088EC90E098A3EB
:101600008F8F8F8D98A10197F1F798A38F8F89A164
:101610009AA101979AA389A389A19AA1009769F732
:1016200014C06BA17CA18DA19EA10E944900DC0188
:10163000CB019AA389A389A19AA19E8F8D8F8D8DAD
:101640009E8D0197F1F79E8F8D8F81E00E940F0E86
:1016500080E090E0A0E0B0E4898F9A8FAB8FBC8FE0
:10166000698D7A8D8B8D9C8D20E030E04AEF54E4BB
:101670000E941F02DC01CB018D8B9E8BAF8BB88F3C
:101680006D897E898F89988D20E030E040E85FE3A6
:101690000E94790388232CF481E090E09C8B8B8B53
:1016A0003FC06D897E898F89988D20E03FEF4FE79D
:1016B00057E40E94190318164CF5698D7A8D8B8DAD
:1016C0009C8D20E030E040E251E40E941F02DC01EA
:1016D000CB01BC01CD010E944900DC01CB019C8BF8
:1016E0008B8B0FC088EC90E09A8B898B89899A89C3
:1016F0000197F1F79A8B898B8B899C8901979C8B39
:101700008B8B8B899C89009769F714C06D897E89C2
:101710008F89988D0E944900DC01CB019C8B8B8BBB
:101720008B899C89988B8F878F8598890197F1F792
:10173000988B8F8786E00E940F0E80E090E0A0E8F3
:10174000BFE38B879C87AD87BE876B857C858D8546
:101750009E8520E030E04AEF54E40E941F02DC0145
:10176000CB018F839887A987BA876F817885898510
:101770009A8520E030E040E85FE30E947903882307
:101780002CF481E090E09E838D833FC06F8178854B
:1017900089859A8520E03FEF4FE757E40E941903BF
:1017A00018164CF56B857C858D859E8520E030E094
:1017B00040E251E40E941F02DC01CB01BC01CD01DB
:1017C0000E944900DC01CB019E838D830FC088EC11
:1017D00090E09C838B838B819C810197F1F79C83A4
:1017E0008B838D819E8101979E838D838D819E81C8
:1017F000009769F714C06F81788589859A850E9462
:101800004900DC01CB019E838D838D819E819A836B
:10181000898389819A810197F1F79A838983CA5BC9
:10182000DF4F0FB6F894DEBF0FBECDBFCF91DF9173
:101830001F910F910895DF93CF93CDB7DEB7E9974E
:101840000FB6F894DEBF0FBECDBF89AF80E060E079
:1018500041E00E94A30680E061E040E00E94A30610
:1018600080E090E0A0E8BFE38DAB9EABAFABB8AF3C
:101870006DA97EA98FA998AD20E030E04AEF54E42D
:101880000E941F02DC01CB0189AB9AABABABBCABB6
:1018900069A97AA98BA99CA920E030E040E85FE320
:1018A0000E94790388232CF481E090E098AB8FA705
:1018B0003FC069A97AA98BA99CA920E03FEF4FE717
:1018C00057E40E94190318164CF56DA97EA98FA93B
:1018D00098AD20E030E040E251E40E941F02DC01BC
:1018E000CB01BC01CD010E944900DC01CB0198ABCA
:1018F0008FA70FC088EC90E09EA78DA78DA59EA511
:101900000197F1F79EA78DA78FA598A9019798AB8E
:101910008FA78FA598A9009769F714C069A97AA91C
:101920008BA99CA90E944900DC01CB0198AB8FA731
:101930008FA598A99CA78BA78BA59CA50197F1F7CC
:101940009CA78BA782E069AD0E94960880E090E09A
:10195000A0E8BFE38FA398A7A9A7BAA76FA178A50E
:1019600089A59AA520E030E04AEF54E40E941F02C6
:10197000DC01CB018BA39CA3ADA3BEA36BA17CA177
:101980008DA19EA120E030E040E85FE30E94790352
:1019900088232CF481E090E09AA389A33FC06BA137
:1019A0007CA18DA19EA120E03FEF4FE757E40E946C
:1019B000190318164CF56FA178A589A59AA520E002
:1019C00030E040E251E40E941F02DC01CB01BC0187
:1019D000CD010E944900DC01CB019AA389A30FC06D
:1019E00088EC90E098A38F8F8F8D98A10197F1F7E5
:1019F00098A38F8F89A19AA101979AA389A389A1FE
:101A00009AA1009769F714C06BA17CA18DA19EA13A
:101A10000E944900DC01CB019AA389A389A19AA164
:101A20009E8F8D8F8D8D9E8D0197F1F79E8F8D8F5F
:101A300080E062E041E00E94A30680E090E0A0E840
:101A4000BFE3898F9A8FAB8FBC8F698D7A8D8B8D19
:101A50009C8D20E030E04AEF54E40E941F02DC013C
:101A6000CB018D8B9E8BAF8BB88F6D897E898F89D3
:101A7000988D20E030E040E85FE30E9479038823FE
:101A80002CF481E090E09C8B8B8B3FC06D897E892C
:101A90008F89988D20E03FEF4FE757E40E941903AC
:101AA00018164CF5698D7A8D8B8D9C8D20E030E079
:101AB00040E251E40E941F02DC01CB01BC01CD01D8
:101AC0000E944900DC01CB019C8B8B8B0FC088EC02
:101AD00090E09A8B898B89899A890197F1F79A8B83
:101AE000898B8B899C8901979C8B8B8B8B899C899B
:101AF000009769F714C06D897E898F89988D0E943F
:101B00004900DC01CB019C8B8B8B8B899C89988B4A
:101B10008F878F8598890197F1F7988B8F8780E061
:101B200062E040E00E94A30680E090E0A0E8BFE30E
:101B30008B879C87AD87BE876B857C858D859E85D1
:101B400020E030E04AEF54E40E941F02DC01CB01A8
:101B50008F839887A987BA876F81788589859A85C9
:101B600020E030E040E85FE30E94790388232CF412
:101B700081E090E09E838D833FC06F817885898569
:101B80009A8520E03FEF4FE757E40E9419031816AB
:101B90004CF56B857C858D859E8520E030E040E2AC
:101BA00051E40E941F02DC01CB01BC01CD010E9467
:101BB0004900DC01CB019E838D830FC088EC90E04F
:101BC0009C838B838B819C810197F1F79C838B8312
:101BD0008D819E8101979E838D838D819E8100974B
:101BE00069F714C06F81788589859A850E944900BC
:101BF000DC01CB019E838D838D819E819A838983B5
:101C000089819A810197F1F79A838983E9960FB6C2
:101C1000F894DEBF0FBECDBFCF91DF910895DF9363
:101C2000CF93CDB7DEB76D970FB6F894DEBF0FBE7A
:101C3000CDBF8D8F80E060E040E00E94A30680E091
:101C400061E040E00E94A30682E06D8D0E9496084C
:101C500080E062E041E00E94A30680E090E0A0E81E
:101C6000BFE3898F9A8FAB8FBC8F698D7A8D8B8DF7
:101C70009C8D20E030E04AEF54E40E941F02DC011A
:101C8000CB018D8B9E8BAF8BB88F6D897E898F89B1
:101C9000988D20E030E040E85FE30E9479038823DC
:101CA0002CF481E090E09C8B8B8B3FC06D897E890A
:101CB0008F89988D20E03FEF4FE757E40E9419038A
:101CC00018164CF5698D7A8D8B8D9C8D20E030E057
:101CD00040E251E40E941F02DC01CB01BC01CD01B6
:101CE0000E944900DC01CB019C8B8B8B0FC088ECE0
:101CF00090E09A8B898B89899A890197F1F79A8B61
:101D0000898B8B899C8901979C8B8B8B8B899C8978
:101D1000009769F714C06D897E898F89988D0E941C
:101D20004900DC01CB019C8B8B8B8B899C89988B28
:101D30008F878F8598890197F1F7988B8F8780E03F
:101D400062E040E00E94A3068D8D813009F072C0F0
:101D500080E090E0A0E0B0E48B879C87AD87BE87F1
:101D60006B857C858D859E8520E030E04AEF54E4CC
:101D70000E941F02DC01CB018F839887A987BA8755
:101D80006F81788589859A8520E030E040E85FE3BF
:101D90000E94790388232CF481E090E09E838D8358
:101DA0003FC06F81788589859A8520E03FEF4FE7B6
:101DB00057E40E94190318164CF56B857C858D85B8
:101DC0009E8520E030E040E251E40E941F02DC01E9
:101DD000CB01BC01CD010E944900DC01CB019E83F7
:101DE0008D830FC088EC90E09C838B838B819C81DA
:101DF0000197F1F79C838B838D819E8101979E8350
:101E00008D838D819E81009769F714C06F817885DD
:101E100089859A850E944900DC01CB019E838D83D0
:101E20008D819E819A83898389819A810197F1F7B7
:101E30009A8389836D960FB6F894DEBF0FBECDBF2F
:101E4000CF91DF910895DF93CF9300D00F92CDB75C
:101E5000DEB79B838A8319820EC08981282F30E0E8
:101E60008A819B81FC01E20FF31F80810E941B0C81
:101E700089818F5F89838981282F30E08A819B81C6
:101E8000FC01E20FF31F8081882339F70F900F9038
:101E90000F90CF91DF910895DF93CF93CDB7DEB749
:101EA00029970FB6F894DEBF0FBECDBF8F838F8109
:101EB000882319F480E30E941B0C19821BC08981BE
:101EC000482F552747FD50958F819AE0692F0E9432
:101ED000BE23892F282FCE010296FC01E40FF51FA7
:101EE00020838F819AE0692F0E94BE238F8389818E
:101EF0008F5F89838F81882311F78981815089833E
:101F00007EC08981282F332727FD3095CE01029688
:101F1000FC01E20FF31F8081282F30E039872887EA
:101F2000888599858430910509F44FC028853985C5
:101F300025303105D4F48885998581309105C9F122
:101F400028853985223031052CF4888599850097BC
:101F500061F152C0288539852230310571F18885BB
:101F600099858330910569F147C0288539852730E7
:101F70003105B9F188859985883091055CF428850B
:101F800039852530310529F1888599858630910577
:101F900021F132C0288539852830310531F1888515
:101FA00099858930910529F127C080E30E941B0C97
:101FB00023C081E30E941B0C1FC082E30E941B0C04
:101FC0001BC083E30E941B0C17C084E30E941B0C00
:101FD00013C085E30E941B0C0FC086E30E941B0CFC
:101FE0000BC087E30E941B0C07C088E30E941B0CF8
:101FF00003C089E30E941B0C8981815089838981F8
:1020000088230CF07ECF29960FB6F894DEBF0FBE62
:10201000CDBFCF91DF910895DF93CF9300D0CDB79F
:10202000DEB789836A838981882321F48A81805875
:102030000E940F0E8981813021F48A8180540E9490
:102040000F0E0F900F90CF91DF910895DF93CF93F4
:10205000CDB7DEB781E00E940F0ECF91DF910895DA
:10206000DF93CF93CDB7DEB78CE10E940F0ECF91F7
:10207000DF910895DF93CF93CDB7DEB788E10E945B
:102080000F0ECF91DF910895DF93CF93CDB7DEB7D9
:1020900082E00E940F0ECF91DF910895DF93CF93DE
:1020A000CDB7DEB727970FB6F894DEBF0FBECDBF12
:1020B0009D838C836E834F838AE190E00E94261378
:1020C0009A83898389819A81009709F46FC08091EE
:1020D000900090919100009741F489819A819093AA
:1020E0009100809390000E94B5128E81823010F092
:1020F00081E08E83E981FA81118E108EE981FA8167
:102100008E81868BE981FA818F81878BE981FA81C3
:102110008C819D819183808389819A8102960E941E
:10212000BC1389819A810C960E94BC13E981FA81C3
:1021300089819A8191878087E981FA8189819A8151
:10214000938B828B8E81282F30E089E090E0821B78
:10215000930BE981FA8195878487E981FA819689D1
:1021600080919200891728F4E981FA818689809309
:102170009200E981FA818689282F30E0C901880F11
:10218000991F880F991F880F991F820F931FAC0109
:1021900047565F4F89819A819C012E5F3F4FCA014C
:1021A000B9010E94CC1381E08B8302C08FEF8B8337
:1021B0008B8127960FB6F894DEBF0FBECDBFCF91AF
:1021C000DF910895DF93CF9300D000D000D0CDB73A
:1021D000DEB79C838B837E836D8320919300309147
:1021E00094008B819C81820F931F9A8389838091B5
:1021F00090009091910002960E948414E0919000CA
:10220000F091910089819A81938382832091930038
:102210003091940089819A818217930770F480919C
:10222000BF009091C00020919000309191002E5FEE
:102230003F4FB9010E9418140DC08091BD009091CC
:10224000BE0020919000309191002E5F3F4FB90168
:102250000E9418148D819E81009761F080919000FA
:10226000909191009C01245F3F4F8D819E81B90127
:102270000E94181426960FB6F894DEBF0FBECDBF8D
:10228000CF91DF910895DF93CF9300D0CDB7DEB724
:102290003AC0F894E091C600F091C700868197811A
:1022A0009A83898389819A810C960E9484147894F8
:1022B00089819A8102960E948414E981FA81968923
:1022C00080919200891728F4E981FA8186898093A8
:1022D0009200E981FA818689282F30E0C901880FB0
:1022E000991F880F991F880F991F820F931FAC01A8
:1022F00047565F4F89819A819C012E5F3F4FCA01EB
:10230000B9010E94CC138091C100882309F0C1CF8C
:102310000F900F90CF91DF910895DF93CF9300D06E
:1023200000D0CDB7DEB70E94A51F20919500309157
:102330009600821B930B909398008093970085C022
:1023400080919300909194000196909394008093D3
:102350009300809197009091980001979093980036
:10236000809397008091930090919400009709F0DA
:1023700064C08091BD009091BE009A838983809152
:10238000BF009091C0009093BE008093BD008981F2
:102390009A819093C0008093BF004FC0E091BD0030
:1023A000F091BE000580F681E02D868197819C83A7
:1023B0008B83EB81FC81228133818091930090910A
:1023C00094008217930708F440C0F8948B819C8195
:1023D00002960E948414EB81FC8184899589009780
:1023E00029F08B819C810C960E9484147894EB8157
:1023F000FC81968980919200891728F4EB81FC81F9
:10240000868980939200EB81FC818689282F30E0B9
:10241000C901880F991F880F991F880F991F820F74
:10242000931FAC0147565F4F8B819C819C012E5FAF
:102430003F4FCA01B9010E94CC13E091BD00F09159
:10244000BE008081882309F0A9CF809197009091E8
:102450009800009709F074CF8091930090919400B8
:1024600090939600809395000F900F900F900F908F
:10247000CF91DF910895DF93CF9300D0CDB7DEB732
:102480000E9443110E948D110AC0809192008823FE
:1024900009F466C0809192008150809392008091EF
:1024A0009200282F30E0C901880F991F880F991FCB
:1024B000880F991F820F931FFC01E756FF4F808101
:1024C000882319F380919200282F30E0C901880FEA
:1024D000991F880F991F880F991F820F931F875686
:1024E0009F4F9A838983E981FA810180F281E02DEF
:1024F00082819381E981FA8192838183E981FA81E2
:102500002181328189819A8103962817390759F4EC
:10251000E981FA810180F281E02D82819381E98154
:10252000FA8192838183E981FA810180F281E02D31
:10253000868197819093910080939000E091900024
:10254000F091910040815181809190009091910093
:10255000E0919000F09191002789622FFA0109958E
:102560000F900F90CF91DF910895DF93CF930F924B
:10257000CDB7DEB7198213C08981282F30E0C90199
:10258000880F991F880F991F880F991F820F931F1B
:1025900087569F4F0E94921389818F5F898389811B
:1025A000823050F38BEA90E00E94921384EB90E02B
:1025B0000E94921381EC90E00E9492138BEA90E0CB
:1025C0009093BE008093BD0084EB90E09093C00098
:1025D0008093BF000F90CF91DF910895DF93CF9349
:1025E00000D000D00F92CDB7DEB79D838C83EC81F5
:1025F000FD810580F681E02D868197819B838A830A
:102600008A819B810C960E9484148A819B819C0103
:10261000245F3F4F81EC90E0B9010E94CC13EA8126
:10262000FB819689E0919000F0919100868998173E
:1026300018F081E0898301C0198289810F900F9081
:102640000F900F900F90CF91DF910895DF93CF936C
:1026500000D000D0CDB7DEB79C838B831A8219825D
:102660000E940F1F8091CA009091CB002B813C816A
:10267000820F931F24E0803B920718F52091CA0037
:102680003091CB008B819C81280F391F8091CA002B
:102690009091CB0082179307A0F48091CA0090918B
:1026A000CB0084539F4F9A8389832091CA00309135
:1026B000CB008B819C81820F931F9093CB008093E2
:1026C000CA000E941B1F89819A810F900F900F9062
:1026D0000F90CF91DF910895DF93CF9300D0CDB7C6
:1026E000DEB79A8389830F900F90CF91DF91089581
:1026F000DF93CF93CDB7DEB71092CB001092CA0014
:10270000CF91DF910895DF93CF93CDB7DEB72091BE
:10271000CA003091CB0080EB94E0821B930BCF91E9
:10272000DF910895DF93CF9300D0CDB7DEB79A83C2
:10273000898389819A810396E981FA8192838183D1
:10274000E981FA818FEF9FEF9483838389819A8156
:102750000396E981FA819683858389819A8103961C
:10276000E981FA8190878783E981FA8110820F904D
:102770000F90CF91DF910895DF93CF9300D0CDB725
:10278000DEB79A838983E981FA81118610860F90DA
:102790000F90CF91DF910895DF93CF9300D000D0B9
:1027A00000D0CDB7DEB79C838B837E836D83EB81B6
:1027B000FC81818192819A838983E981FA81828176
:1027C0009381ED81FE8193838283EB81FC81818102
:1027D0009281ED81FE8195838483E981FA81028073
:1027E000F381E02D8D819E81958384838D819E81EF
:1027F000E981FA81938382838D819E81EB81FC81C3
:1028000092838183ED81FE818B819C81918780877A
:10281000EB81FC8180818F5FEB81FC818083269638
:102820000FB6F894DEBF0FBECDBFCF91DF910895F4
:10283000DF93CF93CDB7DEB728970FB6F894DEBFFE
:102840000FBECDBF9E838D8378876F83EF81F88520
:10285000808191819A83898389819A812FEF8F3F2B
:10286000920739F4ED81FE81878190859C838B836B
:1028700018C08D819E8103969C838B8306C0EB815B
:10288000FC81828193819C838B83EB81FC8102801C
:10289000F381E02D2081318189819A81821793070C
:1028A00070F7EB81FC8182819381EF81F8859383BE
:1028B0008283EF81F8850280F381E02D8F819885F6
:1028C00095838483EF81F8858B819C8195838483B4
:1028D0008F819885EB81FC8193838283EF81F885DA
:1028E0008D819E8191878087ED81FE8180818F5FC0
:1028F000ED81FE81808328960FB6F894DEBF0FBE6F
:10290000CDBFCF91DF910895DF93CF9300D000D05A
:10291000CDB7DEB79C838B83EB81FC81A281B38131
:10292000EB81FC818481958115969C938E931497FD
:10293000EB81FC81A481B581EB81FC818281938153
:1029400013969C938E931297EB81FC8180859185E1
:102950009A838983E981FA81218132818B819C81EB
:102960002817390741F4EB81FC8184819581E98145
:10297000FA8192838183EB81FC8111861086E98143
:10298000FA8180818150E981FA8180830F900F90D4
:102990000F900F90CF91DF910895DF93CF9300D0E8
:1029A0000F92CDB7DEB79B838A8380910306909107
:1029B000040660E070E045E050E020E00E94E61987
:1029C00089838981813079F480E690E00E94230F29
:1029D000809103069091040660E070E040E050E0D2
:1029E00020E00E94FB1888EE93E00E94971EDDCF46
:1029F000DF93CF9300D00F92CDB7DEB79B838A834E
:102A0000809103069091040660E070E045E050E09C
:102A100020E00E94E61989838981813079F48DE66E
:102A200090E00E94230F809103069091040660E0DD
:102A300070E040E050E020E00E94FB1888EE93E058
:102A40000E94971EDDCFAF92BF92CF92DF92EF929E
:102A5000FF920F93DF93CF93CDB7DEB781E060E0B5
:102A60000E945218909304068093030680910306F7
:102A700090910406009759F0809103069091040606
:102A800060E070E040E050E020E00E94FB180E940F
:102A9000960981E061E00E941D088DEC94E160E000
:102AA00070E04AEF50E020E030E005E0EE24FF2443
:102AB000CC24DD24AA24BB240E94D31C813029F419
:102AC00081E066E041E00E94A30688EF94E160E0C7
:102AD00070E04AEF50E020E030E005E0EE24FF2413
:102AE000CC24DD24AA24BB240E94D31C813029F4E9
:102AF00081E067E041E00E94A3060E94CC1EFFCF68
:102B0000DF93CF93CDB7DEB728970FB6F894DEBF2B
:102B10000FBECDBF9C838B837E836D8358874F838D
:102B2000EB81FC8181E180838B819C8101979C8377
:102B30008B83EB81FC8182E280838B819C81019776
:102B40009C838B83EB81FC8183E380838B819C81DD
:102B500001979C838B838D819E819A838983898150
:102B6000EB81FC8180838B819C8101979C838B838B
:102B700089819A81892F99279A8389838981EB8119
:102B8000FC8180838B819C8101979C838B83EB816B
:102B9000FC8110828B819C8101979C838B83EB81CC
:102BA000FC8180E880838B819C8101979C838B834F
:102BB000EB81FC8110828B819C8101979C838B83AC
:102BC000EB81FC8182E080838B819C8101979C83D7
:102BD0008B83EB81FC8183E080838B819C810197D7
:102BE0009C838B83EB81FC8184E080838B819C813F
:102BF00001979C838B83EB81FC8185E080838B81B3
:102C00009C8101979C838B83EB81FC8186E0808390
:102C10008B819C8101979C838B83EB81FC8187E076
:102C200080838B819C8101979C838B83EB81FC81CA
:102C300088E080838B819C8101979C838B83EB81CF
:102C4000FC8189E080838B819C8101979C838B83AD
:102C5000EB81FC8180E180838B819C8101979C8347
:102C60008B83EB81FC8181E180838B819C81019747
:102C70009C838B83EB81FC8182E180838B819C81AF
:102C800001979C838B83EB81FC8183E180838B8123
:102C90009C8101979C838B83EB81FC8184E1808301
:102CA0008B819C8101979C838B83EB81FC8185E1E7
:102CB00080838B819C8101979C838B83EB81FC813A
:102CC00086E180838B819C8101979C838B83EB8140
:102CD000FC8187E180838B819C8101979C838B831E
:102CE000EB81FC8188E180838B819C8101979C83AF
:102CF0008B83EB81FC8189E180838B819C810197AF
:102D00009C838B83EB81FC8180E280838B819C811F
:102D100001979C838B83EB81FC8181E280838B8193
:102D20009C8101979C838B83EB81FC8182E2808371
:102D30008B819C8101979C838B83EB81FC8183E257
:102D400080838B819C8101979C838B838F81988565
:102D50009A8389838981EB81FC8180838B819C812B
:102D600001979C838B8389819A81892F99279A83E4
:102D700089838981EB81FC8180838B819C81019790
:102D80009C838B83EB81FC8186E280838B819C8199
:102D900001979C838B83EB81FC8187E280838B810D
:102DA0009C8101979C838B83EB81FC8188E28083EB
:102DB0008B819C8101979C838B83EB81FC8189E2D1
:102DC00080838B819C8101979C838B83EB81FC8129
:102DD00080E380838B819C8101979C838B83EB8133
:102DE000FC8181E380838B819C8101979C838B8311
:102DF0008B819C8128960FB6F894DEBF0FBECDBFA5
:102E0000CF91DF910895DF93CF93CDB7DEB70E94C6
:102E1000F317A0917C05B0917D05CD91CDBFDD91DB
:102E2000DEBFFF91EF91DF91CF91BF91AF919F9165
:102E30008F917F916F915F914F913F912F911F9152
:102E40000F91FF90EF90DF90CF90BF90AF909F9049
:102E50008F907F906F905F904F903F902F901F903A
:102E60000F900FBE0F90089581E0CF91DF910895EC
:102E7000DF93CF93CDB7DEB7CF91DF9108950F9257
:102E80000FB6F8940F921F9211242F923F924F92F7
:102E90005F926F927F928F929F92AF92BF92CF92EA
:102EA000DF92EF92FF920F931F932F933F934F93D5
:102EB0005F936F937F938F939F93AF93BF93CF93C2
:102EC000DF93EF93FF93A0917C05B0917D050DB644
:102ED0000D920EB60D920E94AF20A0917C05B0918C
:102EE0007D05CD91CDBFDD91DEBFFF91EF91DF91EB
:102EF000CF91BF91AF919F918F917F916F915F9192
:102F00004F913F912F911F910F91FF90EF90DF9084
:102F1000CF90BF90AF909F908F907F906F905F9079
:102F20004F903F902F901F900F900FBE0F900895DD
:102F30000F920FB6F8940F921F9211242F923F9286
:102F40004F925F926F927F928F929F92AF92BF92B9
:102F5000CF92DF92EF92FF920F931F932F933F93A5
:102F60004F935F936F937F938F939F93AF93BF9391
:102F7000CF93DF93EF93FF93A0917C05B0917D05F4
:102F80000DB60D920EB60D920E94DA1F0E94AF2070
:102F9000A0917C05B0917D05CD91CDBFDD91DEBFC7
:102FA000FF91EF91DF91CF91BF91AF919F918F9161
:102FB0007F916F915F914F913F912F911F910F9151
:102FC000FF90EF90DF90CF90BF90AF909F908F9049
:102FD0007F906F905F904F903F902F901F900F9039
:102FE0000FBE0F900895DF93CF9300D000D000D094
:102FF000CDB7DEB780E49FE1A0E0B0E08B839C8397
:10300000AD83BE838B819C81AD81BE81689415F8B0
:10301000B695A795979587951694D1F78B839C8342
:10302000AD83BE838B819C81AD81BE810197A10957
:10303000B1098B839C83AD83BE838B8189838B8114
:103040009C81AD81BE81892F9A2FAB2FBB278B83AB
:103050009C83AD83BE838B818A83EBE4F0E08A811D
:103060008083EAE4F0E0898180838BE08983EEE469
:10307000F0E089818083E9E5F0E0808189838981BE
:1030800080618983E9E5F0E08981808326960FB627
:10309000F894DEBF0FBECDBFCF91DF9108950E949F
:1030A00098171895DF93CF93CDB7DEB728970FB653
:1030B000F894DEBF0FBECDBF8F8368871A82198256
:1030C0008F81882309F48CC08FE190E00E94261341
:1030D0009E838D838D819E81009709F481C08F81AD
:1030E000282F30E08885882F90E0AC01249FC00114
:1030F000259F900D349F900D112401969C838B8306
:103100008B819C810E942613ED81FE8191838083B7
:10311000ED81FE8180819181009709F45DC0ED8190
:10312000FE81408151818F81282F30E08885882F52
:1031300090E0BC01269FC001279F900D369F900D07
:103140001124840F951FED81FE8193838283ED818D
:10315000FE81128EED81FE8180819181ED81FE8163
:1031600095838483ED81FE81408151818F81882FF9
:1031700090E09C01215030408885882F90E0BC0170
:10318000269FC001279F900D369F900D1124840F1C
:10319000951FED81FE8197838683ED81FE818F816E
:1031A000838FED81FE818885848FED81FE818FEF95
:1031B000858FED81FE818FEF868F8D819E810896B0
:1031C0000E9492138D819E8141960E9492138D815F
:1031D0009E819A83898304C08D819E810E946C1395
:1031E00089819A8128960FB6F894DEBF0FBECDBFB5
:1031F000CF91DF910895DF93CF93CDB7DEB72C97B2
:103200000FB6F894DEBF0FBECDBF9E838D83788747
:103210006F835A8749872B8719820FB6F8940F92CC
:10322000ED81FE81928DED81FE81838D9817D8F41A
:103230008D819E812F813885B9014B850E94361B77
:10324000ED81FE818189882349F08D819E8141969F
:103250000E944B21813011F40E943F170F900FBE46
:1032600081E08C875CC089859A85009721F40F9056
:103270000FBE1C8654C08981882331F4CE0102968A
:103280000E94B32181E089830F900FBE0E940F1F1F
:103290000FB6F8940F92ED81FE81858D8F3F19F462
:1032A000ED81FE81158EED81FE81868D8F3F19F4B3
:1032B000ED81FE81168E0F900FBECE0102969E010B
:1032C000275F3F4FB9010E94CC21882309F58D81EA
:1032D0009E810E949A1C8823A1F08D819E81089670
:1032E00029853A85B9010E9415218D819E810E9410
:1032F000131C0E941B1F882309F08FCF0E943F17C9
:103300008CCF8D819E810E94131C0E941B1F85CF34
:103310008D819E810E94131C0E941B1F1C868C8520
:103320002C960FB6F894DEBF0FBECDBFCF91DF91C4
:103330000895DF93CF93CDB7DEB729970FB6F894F2
:10334000DEBF0FBECDBF9C838B837E836D8358878A
:103350004F8329871982EB81FC81928DEB81FC815F
:10336000838D981740F58B819C812D813E81B90119
:1033700049850E94361BEB81FC81868D8F3F89F445
:10338000EB81FC818189882399F08B819C81419616
:103390000E944B21882361F0EF81F88581E08083D2
:1033A00007C0EB81FC81868D8F5FEB81FC81868F6E
:1033B00081E08A8301C01A828A8129960FB6F89427
:1033C000DEBF0FBECDBFCF91DF910895DF93CF93C6
:1033D000CDB7DEB72E970FB6F894DEBF0FBECDBFC8
:1033E00098878F837A8769875C874B872D871B82B5
:1033F0000FB6F8940F92EF81F885828D882309F437
:103400003FC0EF81F885868197819A8389838F8178
:10341000988529853A85B9010E94CB1B8D85882323
:10342000B1F4EF81F885828D8150EF81F885828F2C
:10343000EF81F88580858823F1F08F819885089643
:103440000E944B218130B9F40E943F1714C0EF81D4
:10345000F88589819A8197838683EF81F8858189B0
:10346000882349F08F81988541960E944B218823BB
:1034700011F00E943F170F900FBE81E08E875CC055
:103480008B859C85009721F40F900FBE1E8654C03B
:103490008B81882331F4CE0104960E94B32181E010
:1034A0008B830F900FBE0E940F1F0FB6F8940F92E0
:1034B000EF81F885858D8F3F19F4EF81F885158EA2
:1034C000EF81F885868D8F3F19F4EF81F885168E90
:1034D0000F900FBECE0104969E01255F3F4FB901AC
:1034E0000E94CC21882309F58F8198850E94671C52
:1034F0008823A1F08F81988541962B853C85B90161
:103500000E9415218F8198850E94131C0E941B1F09
:10351000882309F06DCF0E943F176ACF8F8198856D
:103520000E94131C0E941B1F63CF8F8198850E94ED
:10353000131C0E941B1F1E868E852E960FB6F894B4
:10354000DEBF0FBECDBFCF91DF910895DF93CF9344
:10355000CDB7DEB728970FB6F894DEBF0FBECDBF4C
:103560009C838B837E836D8358874F831982EB8185
:10357000FC81828D882371F18B819C812D813E811C
:10358000B9010E94CB1BEB81FC81828D8150EB81C4
:10359000FC81828FEB81FC81858D8F3F89F4EB81EB
:1035A000FC818085882399F08B819C8108960E94FC
:1035B0004B21882361F0EF81F88581E0808307C08B
:1035C000EB81FC81858D8F5FEB81FC81858F81E0B4
:1035D0008A8301C01A828A8128960FB6F894DEBFCA
:1035E0000FBECDBFCF91DF910895DF93CF9300D071
:1035F0000F92CDB7DEB79B838A830FB6F8940F92F4
:10360000EA81FB81828D89830F900FBE89810F90A3
:103610000F900F90CF91DF910895DF93CF9300D05B
:103620000F92CDB7DEB79B838A83EA81FB81828DBF
:10363000898389810F900F900F90CF91DF9108952A
:10364000DF93CF9300D0CDB7DEB79A838983E9812A
:10365000FA81808191810E946C1389819A810E94F4
:103660006C130F900F90CF91DF910895DF93CF935C
:1036700000D000D00F92CDB7DEB79A8389837C83C8
:103680006B834D83E981FA81848D882309F474C0AA
:103690008D81882399F5E981FA8164817581E981B9
:1036A000FA81848D482F50E02B813C81CB01B901F8
:1036B0000E940124E981FA8124813581E981FA811E
:1036C000848D882F90E0820F931FE981FA81958382
:1036D0008483E981FA8124813581E981FA818281BB
:1036E00093812817390708F447C0E981FA8180815E
:1036F0009181E981FA81958384833EC0E981FA81D1
:1037000066817781E981FA81848D482F50E02B8191
:103710003C81CB01B9010E940124E981FA81268113
:103720003781E981FA81848D882F90E09095819589
:103730009F4F820F931FE981FA8197838683E981E6
:10374000FA8126813781E981FA8180819181281768
:10375000390790F4E981FA8122813381E981FA8184
:10376000848D882F90E0909581959F4F820F931FB5
:10377000E981FA8197838683E981FA81828D8F5F5F
:10378000E981FA81828F0F900F900F900F900F9028
:10379000CF91DF910895DF93CF9300D000D0CDB7C4
:1037A000DEB79A8389837C836B83E981FA81808188
:1037B0009181009789F1E981FA8126813781E98138
:1037C000FA81848D882F90E0820F931FE981FA811E
:1037D00097838683E981FA8126813781E981FA819D
:1037E000828193812817390740F0E981FA8180812D
:1037F0009181E981FA8197838683E981FA81468103
:103800005781E981FA81848D282F30E08B819C815A
:10381000BA01A9010E9401240F900F900F900F9000
:10382000CF91DF910895DF93CF9300D0CDB7DEB76E
:103830009A8389830FB6F8940F9215C0E981FA81B3
:1038400081898823A9F089819A8141960E944B2120
:10385000882311F00E942922E981FA81868D815006
:10386000E981FA81868FE981FA81868D181634F311
:10387000E981FA818FEF868F0F900FBE0FB6F89413
:103880000F9215C0E981FA8180858823A9F089818A
:103890009A8108960E944B21882311F00E942922C8
:1038A000E981FA81858D8150E981FA81858FE981ED
:1038B000FA81858D181634F3E981FA818FEF858FAF
:1038C0000F900FBE0F900F90CF91DF910895DF936F
:1038D000CF9300D00F92CDB7DEB79B838A830FB60C
:1038E000F8940F92EA81FB81828D1982882311F46A
:1038F00081E089830F900FBE89810F900F900F9008
:10390000CF91DF910895DF93CF9300D00F92CDB781
:10391000DEB79B838A83EA81FB81828D19828823AB
:1039200011F481E0898389810F900F900F90CF91DE
:10393000DF910895DF93CF9300D00F92CDB7DEB71C
:103940009B838A830FB6F8940F92EA81FB81928D54
:10395000EA81FB81838D1982981711F481E08983B4
:103960000F900FBE89810F900F900F90CF91DF9134
:103970000895DF93CF9300D00F92CDB7DEB79B832E
:103980008A83EA81FB81928DEA81FB81838D198292
:10399000981711F481E0898389810F900F900F901F
:1039A000CF91DF910895AF92BF92CF92DF92EF92C5
:1039B000FF920F931F93DF93CF93CDB7DEB764973A
:1039C0000FB6F894DEBF0FBECDBF9F838E8379877D
:1039D00068875B874A873D872C870E87F88AEF8642
:1039E000DA8AC98ABC8AAB8A8A859B8529893A8901
:1039F000B9010E9458239C838B838B819C81009703
:103A000009F499C0EB81FC812789308D8A859B85DB
:103A10000197820F931F9A8389838B819C812885CC
:103A20003985EB89FC89AA85BB85B9014E859F0143
:103A30008D010E943D2289819A812E813F814C8592
:103A40005D85B9010E948015EB81FC8191838083A3
:103A50008F859889009731F0EF85F8898B819C815B
:103A6000918380830FB6F8940F9280917F058F5FCA
:103A700080937F0580917C0590917D05009769F486
:103A80008B819C8190937D0580937C0580917F053F
:103A90008130A9F40E94942212C080918405882369
:103AA00071F4E0917C05F0917D0596898E858917EA
:103AB00030F08B819C8190937D0580937C05EB8118
:103AC000FC81968980918205891728F4EB81FC811D
:103AD000868980938205809189058F5F809389050F
:103AE000EB81FC81968980918305891728F4EB810D
:103AF000FC81868980938305EB81FC818689282F50
:103B000030E0C901880F991F880F991F880F991FEE
:103B1000820F931FAC0146575A4F8B819C819C01A9
:103B20002E5F3F4FCA01B9010E94CC1381E08D8303
:103B30000F900FBE02C08FEF8D838D81813071F4A5
:103B400080918405882351F0E0917C05F0917D05FA
:103B500096898E85981710F40E943F178D81649680
:103B60000FB6F894DEBF0FBECDBFCF91DF911F918E
:103B70000F91FF90EF90DF90CF90BF90AF9008959E
:103B8000DF93CF9300D000D000D0CDB7DEB79C83B9
:103B90008B830FB6F8940F9220917C0530917D05B0
:103BA0008B819C818217930711F41C821B828B816D
:103BB0009C81009739F480917C0590917D059E83CE
:103BC0008D8304C08B819C819E838D838D819E819A
:103BD0009A83898389819A8102960E948414E9815B
:103BE000FA8184899589009729F089819A810C96B8
:103BF0000E94841489819A819C012E5F3F4F8AEF35
:103C000095E0B9010E94CC1380917E058F5F80936F
:103C10007E05809189058F5F809389050F900FBE87
:103C200080918405882331F08B819C81009711F469
:103C30000E943F1726960FB6F894DEBF0FBECDBF89
:103C4000CF91DF910895DF93CF93CDB7DEB728975B
:103C50000FB6F894DEBF0FBECDBF9E838D837887ED
:103C60006F8319820E940F1FED81FE8120813181B7
:103C70008F819885820F931F9C838B83ED81FE81BA
:103C80002081318180918005909181058217930771
:103C9000A8F4ED81FE81208131818B819C81821786
:103CA000930700F520918005309181058B819C81DF
:103CB00028173907B8F481E0898314C0ED81FE81AB
:103CC000208131818B819C818217930748F020915C
:103CD0008005309181058B819C812817390710F46C
:103CE00081E08983ED81FE818B819C81918380833A
:103CF0008981882359F080917C0590917D050296F9
:103D00000E9484148B819C810E940F230E941B1FA0
:103D10008A838A81882311F40E943F1728960FB660
:103D2000F894DEBF0FBECDBFCF91DF910895DF9332
:103D3000CF9300D000D00F92CDB7DEB79D838C8398
:103D400019828C819D810097D1F00E940F1F2091D4
:103D50008005309181058C819D81820F931F9B830B
:103D60008A8380917C0590917D0502960E9484143F
:103D70008A819B810E940F230E941B1F8983898156
:103D8000882311F40E943F170F900F900F900F900F
:103D90000F90CF91DF910895AF92BF92CF92DF92B3
:103DA000EF92FF920F93DF93CF930F92CDB7DEB7D1
:103DB00021E830E083E392E2B90145E550E020E0FC
:103DC00030E000E0EE24FF24CC24DD24AA24BB2430
:103DD0000E94D31C89838981813051F4F89481E059
:103DE0008093840510928105109280050E9403172C
:103DF0000F90CF91DF910F91FF90EF90DF90CF90D8
:103E0000BF90AF900895DF93CF93CDB7DEB7F8940E
:103E1000109284050E943817CF91DF910895DF93A7
:103E2000CF93CDB7DEB7809185058F5F80938505F1
:103E3000CF91DF910895DF93CF9300D000D0CDB71D
:103E4000DEB71A820FB6F8940F92809185058150E3
:103E50008093850580918505882309F06CC0809149
:103E60007F05882309F467C0198241C0E091F605F7
:103E7000F091F705868197819C838B838B819C8150
:103E80000C960E9484148B819C8102960E9484145B
:103E9000EB81FC81968980918305891728F4EB8159
:103EA000FC81868980938305EB81FC818689282F9C
:103EB00030E0C901880F991F880F991F880F991F3B
:103EC000820F931F86579A4F2B813C812E5F3F4F65
:103ED000B9010E94CC13EB81FC819689E0917C05AD
:103EE000F0917D058689981710F081E08983809193
:103EF000F105882309F0BACF80918605882371F0F7
:103F000007C00E94DA1F8091860581508093860544
:103F1000809186058823A9F781E089838981813092
:103F200021F080918705813031F481E08A831092FD
:103F300087050E943F170F900FBE8A810F900F9048
:103F40000F900F90CF91DF910895DF93CF9300D022
:103F5000CDB7DEB70FB6F8940F928091800590919F
:103F600081059A8389830F900FBE89819A810F9072
:103F70000F90CF91DF910895DF93CF9300D00F92F0
:103F8000CDB7DEB7198280918005909181059B8322
:103F90008A838A819B810F900F900F90CF91DF9140
:103FA0000895DF93CF93CDB7DEB780917F05CF9192
:103FB000DF910895DF93CF9300D000D000D0CDB72C
:103FC000DEB780918505882309F0BBC0809180050C
:103FD0009091810501969093810580938005809151
:103FE0008005909181050097D1F58091ED05909124
:103FF000EE059C838B838091EF059091F005909363
:10400000EE058093ED058B819C819093F005809364
:10401000EF05809188058F5F80938805E091ED051D
:10402000F091EE058081882339F48FEF9FEF909314
:104030008F0080938E0013C0E091ED05F091EE05A6
:104040000580F681E02D868197819E838D83ED81A9
:10405000FE818281938190938F0080938E002091C6
:1040600080053091810580918E0090918F002817F6
:10407000390708F46BC0E091ED05F091EE05808101
:10408000882339F48FEF9FEF90938F0080938E00F9
:104090005DC0E091ED05F091EE050580F681E02D23
:1040A000868197819E838D83ED81FE8182819381BC
:1040B0009A838983209180053091810589819A8135
:1040C0002817390738F489819A8190938F0080935B
:1040D0008E003CC08D819E8102960E948414ED81E9
:1040E000FE8184899589009729F08D819E810C96A7
:1040F0000E948414ED81FE81968980918305891741
:1041000028F4ED81FE81868980938305ED81FE810F
:104110008689282F30E0C901880F991F880F991FC1
:10412000880F991F820F931FAC0146575A4F8D81FC
:104130009E819C012E5F3F4FCA01B9010E94CC13A2
:104140009ACF809186058F5F8093860526960FB65D
:10415000F894DEBF0FBECDBFCF91DF910895DF93FE
:10416000CF9300D0CDB7DEB780918505882349F085
:1041700081E08093870554C08091830581508093AE
:10418000830580918305282F30E0C901880F991F8E
:10419000880F991F880F991F820F931FFC01E65704
:1041A000FA4F8081882341F380918305282F30E0E6
:1041B000C901880F991F880F991F880F991F820FB7
:1041C000931F86579A4F9A838983E981FA810180E8
:1041D000F281E02D82819381E981FA81928381834A
:1041E000E981FA812181328189819A810396281798
:1041F000390759F4E981FA810180F281E02D828149
:104200009381E981FA8192838183E981FA81018036
:10421000F281E02D8681978190937D0580937C05C6
:104220000F900F90CF91DF910895DF93CF9300D03F
:1042300000D000D0CDB7DEB79C838B837E836D83A7
:104240004B815C8180917C0590917D059C01245F70
:104250003F4FCA01B9010E94181480917C059091CA
:104260007D0502960E94841420918005309181057D
:104270008D819E81820F931F9A83898389819A8180
:104280000E940F2326960FB6F894DEBF0FBECDBF57
:10429000CF91DF910895DF93CF9300D000D00F929C
:1042A000CDB7DEB79D838C83EC81FD810580F681DF
:1042B000E02D868197819B838A838A819B810C96DE
:1042C0000E94841480918505882361F58A819B81F1
:1042D00002960E948414EA81FB819689809183056D
:1042E000891728F4EA81FB81868980938305EA8116
:1042F000FB818689282F30E0C901880F991F880F1C
:10430000991F880F991F820F931FAC0146575A4F70
:104310008A819B819C012E5F3F4FCA01B9010E9497
:10432000CC130AC08A819B819C01245F3F4F81EF9F
:1043300095E0B9010E94CC13EA81FB819689E09156
:104340007C05F0917D058689981718F081E08983B6
:1043500001C0198289810F900F900F900F900F90DC
:10436000CF91DF910895DF93CF9300D0CDB7DEB723
:104370009A83898380918805E981FA81808380917D
:10438000800590918105E981FA81928381830F9064
:104390000F90CF91DF910895DF93CF9300D000D09D
:1043A0000F92CDB7DEB79B838A837D836C830FB674
:1043B000F8940F92EA81FB8190818091880598178B
:1043C00071F0EA81FB812181328180918005909199
:1043D00081058217930718F081E089832FC020910F
:1043E000800530918105EA81FB8181819281281BC2
:1043F000390BEC81FD818081918128173907E0F428
:10440000EC81FD8140815181EA81FB8121813281F2
:104410008091800590918105B901681B790BCB01D2
:10442000840F951FEC81FD81918380838A819B811C
:104430000E94B321198202C081E089830F900FBED0
:1044400089810F900F900F900F900F90CF91DF9177
:104450000895DF93CF93CDB7DEB781E080938705D2
:10446000CF91DF910895DF93CF9300D0CDB7DEB722
:104470009A8389830E94D122FDCF0F931F93DF93EC
:10448000CF93CDB7DEB729970FB6F894DEBF0FBE36
:10449000CDBF9A8389837C836B834D833F832E8337
:1044A0001987088789819A8149962B813C81B901B6
:1044B00048E050E00E941124E981FA8110A28D8128
:1044C000893010F088E08D83E981FA818D81868BB7
:1044D00089819A8102960E94BC1389819A810C96E7
:1044E0000E94BC13E981FA8189819A819187808732
:1044F0008D81282F30E089E090E0821B930BE981C9
:10450000FA8195878487E981FA8189819A81938BE1
:10451000828B29960FB6F894DEBF0FBECDBFCF9128
:10452000DF911F910F910895DF93CF930F92CDB735
:10453000DEB7198213C08981282F30E0C901880FA6
:10454000991F880F991F880F991F820F931F8657F5
:104550009A4F0E94921389818F5F89838981893064
:1045600050F38BED95E00E94921384EE95E00E944B
:10457000921381EF95E00E9492138AEF95E00E94DA
:1045800092138BED95E09093EE058093ED0584EE0C
:1045900095E09093F0058093EF050F90CF91DF9118
:1045A0000895DF93CF9300D00F92CDB7DEB78091FF
:1045B0007E05882371F10E940F1F8091FA051B82EE
:1045C000882311F481E08B830E941B1F8B81882339
:1045D00001F50FB6F8940F92E091FF05F0910006F7
:1045E000868197819A83898389819A8102960E9424
:1045F000841480917F05815080937F0580917E0592
:10460000815080937E050F900FBE89819A810E9410
:10461000A8230F900F900F90CF91DF910895DF9313
:10462000CF9300D0CDB7DEB79A838983E0917C0524
:10463000F0917D0589819A81938382832091800501
:104640003091810589819A818217930770F4809156
:10465000EF059091F00520917C0530917D052E5F4E
:104660003F4FB9010E9418141EC04091ED055091B2
:10467000EE0580917C0590917D059C012E5F3F4F5A
:10468000CA01B9010E94181420918E0030918F0048
:1046900089819A818217930730F489819A81909356
:1046A0008F0080938E000F900F90CF91DF9108952F
:1046B000DF93CF93CDB7DEB728970FB6F894DEBF60
:1046C0000FBECDBF9C838B837E836D8381E290E0A0
:1046D0000E9426139A83898389819A81009769F1C0
:1046E0008D819E81009739F48B819C810E942613D5
:1046F00098878F8304C08D819E8198878F83E981FD
:10470000FA818F819885908F878BE981FA818789DB
:10471000908D009739F489819A810E946C131A82D6
:1047200019820BC0E981FA818789908D2B813C81A8
:1047300065EA70E0A9010E940A2489819A8128967D
:104740000FB6F894DEBF0FBECDBFCF91DF910895B5
:10475000DF93CF9300D0CDB7DEB79A838983E98109
:10476000FA818789908D0E946C1389819A810E94B9
:104770006C130F900F90CF91DF910895991B79E002
:1047800004C0991F961708F0961B881F7A95C9F7E1
:10479000809508952F923F924F925F926F927F92F1
:1047A0008F929F92AF92BF92CF92DF92EF92FF9241
:1047B0000F931F93CF93DF93CDB7DEB7CA1BDB0BED
:1047C0000FB6F894DEBF0FBECDBF09942A88398892
:1047D00048885F846E847D848C849B84AA84B98499
:1047E000C884DF80EE80FD800C811B81AA81B981A5
:1047F000CE0FD11D0FB6F894DEBF0FBECDBFED01B9
:104800000895FB01DC0102C001900D92415050401F
:10481000D8F70895DC0101C06D9341505040E0F796
:104820000895FB01DC014150504048F001900D9289
:104830000020C9F701C01D9241505040E0F7089593
:04484000F894FFCF1A
:104844004B68616C6964204D6F736164005A616BDD
:104854006172696120416264756C6C6B616465723C
:104864000049444C45000000000000000000FFFF28
:00000001FF
