:100000000C942A000C9447000C9447000C94470071
:100010000C9447000C9447000C9447000C94420C3D
:100020000C9447000C9447000C9447000C94470034
:100030000C9447000C9447000C9447000C94470024
:100040000C9447000C9447000C9447000C94470014
:100050000C94470011241FBECFE5D8E0DEBFCDBF12
:1000600010E0A0E6B0E0E4EAFFE202C005900D92E5
:10007000A836B107D9F715E0A8E6B0E001C01D9297
:10008000AB3DB107E1F70E94FB080C94D0170C942C
:100090000000DF93CF93CDB7DEB727970FB6F89464
:1000A000DEBF0FBECDBF89836A834B838B818130D6
:1000B00009F06FC08981282F30E03F832E838E8125
:1000C0009F818130910549F12E813F812230310598
:1000D0002CF48E819F81009761F0D2C02E813F81E8
:1000E0002230310571F18E819F8183309105E9F1D4
:1000F000C7C0AAE3B0E0EAE3F0E08081482F8A813C
:10010000282F30E081E090E0022E02C0880F991F76
:100110000A94E2F7842B8C93B3C0A7E3B0E0E7E343
:10012000F0E08081482F8A81282F30E081E090E044
:10013000022E02C0880F991F0A94E2F7842B8C9339
:100140009FC0A4E3B0E0E4E3F0E08081482F8A811F
:10015000282F30E081E090E0022E02C0880F991F26
:100160000A94E2F7842B8C938BC0A1E3B0E0E1E327
:10017000F0E08081482F8A81282F30E081E090E0F4
:10018000022E02C0880F991F0A94E2F7842B8C93E9
:1001900077C08B81882309F073C08981282F30E0D4
:1001A0003D832C838C819D818130910559F12C8177
:1001B0003D81223031052CF48C819D81009769F0BE
:1001C0005FC02C813D812230310589F18C819D8178
:1001D0008330910509F440C053C0AAE3B0E0EAE3DC
:1001E000F0E08081482F8A81282F30E081E090E084
:1001F000022E02C0880F991F0A94E2F7809584238B
:100200008C933EC0A7E3B0E0E7E3F0E08081482FA5
:100210008A81282F30E081E090E0022E02C0880F12
:10022000991F0A94E2F7809584238C9329C0A4E354
:10023000B0E0E4E3F0E08081482F8A81282F30E0AD
:1002400081E090E0022E02C0880F991F0A94E2F725
:10025000809584238C9314C0A1E3B0E0E1E3F0E047
:100260008081482F8A81282F30E081E090E0022EA3
:1002700002C0880F991F0A94E2F7809584238C931B
:1002800027960FB6F894DEBF0FBECDBFCF91DF919A
:100290000895DF93CF93CDB7DEB727970FB6F894C5
:1002A000DEBF0FBECDBF89836A834B838B818130D4
:1002B00009F06FC08981282F30E03F832E838E8123
:1002C0009F818130910549F12E813F812230310596
:1002D0002CF48E819F81009761F0D2C02E813F81E6
:1002E0002230310571F18E819F8183309105E9F1D2
:1002F000C7C0ABE3B0E0EBE3F0E08081482F8A8138
:10030000282F30E081E090E0022E02C0880F991F74
:100310000A94E2F7842B8C93B3C0A8E3B0E0E8E33F
:10032000F0E08081482F8A81282F30E081E090E042
:10033000022E02C0880F991F0A94E2F7842B8C9337
:100340009FC0A5E3B0E0E5E3F0E08081482F8A811B
:10035000282F30E081E090E0022E02C0880F991F24
:100360000A94E2F7842B8C938BC0A2E3B0E0E2E323
:10037000F0E08081482F8A81282F30E081E090E0F2
:10038000022E02C0880F991F0A94E2F7842B8C93E7
:1003900077C08B81882309F073C08981282F30E0D2
:1003A0003D832C838C819D818130910559F12C8175
:1003B0003D81223031052CF48C819D81009769F0BC
:1003C0005FC02C813D812230310589F18C819D8176
:1003D0008330910509F440C053C0ABE3B0E0EBE3D8
:1003E000F0E08081482F8A81282F30E081E090E082
:1003F000022E02C0880F991F0A94E2F78095842389
:100400008C933EC0A8E3B0E0E8E3F0E08081482FA1
:100410008A81282F30E081E090E0022E02C0880F10
:10042000991F0A94E2F7809584238C9329C0A5E351
:10043000B0E0E5E3F0E08081482F8A81282F30E0AA
:1004400081E090E0022E02C0880F991F0A94E2F723
:10045000809584238C9314C0A2E3B0E0E2E3F0E043
:100460008081482F8A81282F30E081E090E0022EA1
:1004700002C0880F991F0A94E2F7809584238C9319
:1004800027960FB6F894DEBF0FBECDBFCF91DF9198
:100490000895DF93CF9300D000D00F92CDB7DEB791
:1004A0008A836B8319828A81282F30E03D832C83D5
:1004B0004C815D814130510541F18C819D818230BB
:1004C000910534F42C813D812115310561F052C034
:1004D0004C815D814230510551F18C819D81833089
:1004E0009105B9F147C0E9E3F0E08081282F30E0C1
:1004F0008B81882F90E0A90102C0559547958A9578
:10050000E2F7CA018170898335C0E6E3F0E08081BB
:10051000282F30E08B81882F90E0A90102C05595EB
:1005200047958A95E2F7CA018170898323C0E3E386
:10053000F0E08081282F30E08B81882F90E0A901A6
:1005400002C0559547958A95E2F7CA018170898363
:1005500011C0E0E3F0E08081282F30E08B81882F0C
:1005600090E0A90102C0559547958A95E2F7CA0126
:100570008170898389810F900F900F900F900F9059
:10058000CF91DF910895DF93CF9300D000D000D0BA
:10059000CDB7DEB789836A838A81813099F58981F5
:1005A000282F30E03E832D838D819E8181309105FF
:1005B000D1F02D813E81223031052CF48D819E8138
:1005C000009761F050C02D813E812230310581F0CD
:1005D0008D819E818330910581F045C0EAE3F0E092
:1005E0008FEF808340C0E7E3F0E08FEF80833BC074
:1005F000E4E3F0E08FEF808336C0E1E3F0E08FEFDB
:10060000808331C08A81882371F58981282F30E069
:100610003C832B838B819C8181309105C9F02B8198
:100620003C81223031052CF48B819C81009761F054
:100630001AC02B813C812230310571F08B819C8165
:100640008330910569F00FC0EAE3F0E010820BC03F
:10065000E7E3F0E0108207C0E4E3F0E0108203C0BB
:10066000E1E3F0E0108226960FB6F894DEBF0FBEED
:10067000CDBFCF91DF910895DF93CF9300D000D00D
:10068000CDB7DEB789836A838981282F30E03C8328
:100690002B838B819C8181309105D1F02B813C8112
:1006A000223031052CF48B819C81009761F01EC0B3
:1006B0002B813C812230310581F08B819C818330FC
:1006C000910581F013C0EBE3F0E08A8180830EC0D6
:1006D000E8E3F0E08A81808309C0E5E3F0E08A8105
:1006E000808304C0E2E3F0E08A8180830F900F9062
:1006F0000F900F90CF91DF910895DF93CF9300D0AB
:1007000000D0CDB7DEB789836A838981282F30E096
:100710003C832B838B819C818130910549F12B8116
:100720003C81223031052CF48B819C81009761F053
:100730005AC02B813C812230310571F18B819C8123
:1007400083309105E9F14FC0ABE3B0E0EBE3F0E0BB
:100750008081482F8A81282F30E081E090E0022EAE
:1007600002C0880F991F0A94E2F784278C933BC03C
:10077000A8E3B0E0E8E3F0E08081482F8A81282FE9
:1007800030E081E090E0022E02C0880F991F0A94A9
:10079000E2F784278C9327C0A5E3B0E0E5E3F0E01F
:1007A0008081482F8A81282F30E081E090E0022E5E
:1007B00002C0880F991F0A94E2F784278C9313C014
:1007C000A2E3B0E0E2E3F0E08081482F8A81282FA5
:1007D00030E081E090E0022E02C0880F991F0A9459
:1007E000E2F784278C930F900F900F900F90CF918A
:1007F000DF910895DF93CF9300D000D0CDB7DEB75F
:100800008A8319828A81282F30E03C832B838B8155
:100810009C8181309105D1F02B813C8122303105C2
:100820002CF48B819C81009761F01EC02B813C8150
:100830002230310581F08B819C818330910581F0DC
:1008400013C0E9E3F0E0808189830EC0E6E3F0E0C5
:100850008081898309C0E3E3F0E08081898304C05B
:10086000E0E3F0E08081898389810F900F900F9001
:100870000F90CF91DF910895DF93CF93CDB7DEB77F
:1008800027970FB6F894DEBF0FBECDBF9D838C8334
:100890006E834F838AE190E00E9414079A838983D4
:1008A00089819A81009709F46FC0809168009091C6
:1008B0006900009741F489819A819093690080933F
:1008C00068000E94A3068E81823010F081E08E8342
:1008D000E981FA81118E108EE981FA818E81868BF1
:1008E000E981FA818F81878BE981FA818C819D81F1
:1008F0009183808389819A8102960E94AA078981C7
:100900009A810C960E94AA07E981FA8189819A81CD
:1009100091878087E981FA8189819A81938B828B83
:100920008E81282F30E089E090E0821B930BE981D3
:10093000FA8195878487E981FA81968980916A0096
:10094000891728F4E981FA81868980936A00E98110
:10095000FA818689282F30E0C901880F991F880FF6
:10096000991F880F991F820F931FAC014F585F4F3B
:1009700089819A819C012E5F3F4FCA01B9010E9473
:10098000BA0781E08B8302C08FEF8B838B81279620
:100990000FB6F894DEBF0FBECDBFCF91DF910895A3
:1009A000DF93CF9300D000D000D0CDB7DEB79C83CB
:1009B0008B837E836D8320916B0030916C008B81E3
:1009C0009C81820F931F9A83898380916800909104
:1009D000690002960E947208E0916800F091690037
:1009E00089819A819383828320916B0030916C007E
:1009F00089819A818217930770F480919700909172
:100A0000980020916800309169002E5F3F4FB90136
:100A10000E9406080DC0809195009091960020914B
:100A20006800309169002E5F3F4FB9010E940608AF
:100A30008D819E81009761F080916800909169009E
:100A40009C01245F3F4F8D819E81B9010E94060861
:100A500026960FB6F894DEBF0FBECDBFCF91DF91C3
:100A60000895DF93CF9300D0CDB7DEB73AC0F894A6
:100A7000E0919E00F0919F00868197819A838983FF
:100A800089819A810C960E947208789489819A8152
:100A900002960E947208E981FA81968980916A0023
:100AA000891728F4E981FA81868980936A00E981AF
:100AB000FA818689282F30E0C901880F991F880F95
:100AC000991F880F991F820F931FAC014F585F4FDA
:100AD00089819A819C012E5F3F4FCA01B9010E9412
:100AE000BA0780919900882309F0C1CF0F900F9029
:100AF000CF91DF910895DF93CF9300D000D0CDB791
:100B0000DEB70E94981320916D0030916E00821B19
:100B1000930B9093700080936F0085C080916B0061
:100B200090916C00019690936C0080936B00809183
:100B30006F009091700001979093700080936F0008
:100B400080916B0090916C00009709F064C08091D7
:100B50009500909196009A83898380919700909157
:100B60009800909396008093950089819A81909344
:100B70009800809397004FC0E0919500F091960007
:100B80000580F681E02D868197819C838B83EB81A4
:100B9000FC812281338180916B0090916C008217DF
:100BA000930708F440C0F8948B819C8102960E94C0
:100BB0007208EB81FC8184899589009729F08B81EB
:100BC0009C810C960E9472087894EB81FC81968936
:100BD00080916A00891728F4EB81FC8186898093D3
:100BE0006A00EB81FC818689282F30E0C901880FDB
:100BF000991F880F991F880F991F820F931FAC01AF
:100C00004F585F4F8B819C819C012E5F3F4FCA01E3
:100C1000B9010E94BA07E0919500F0919600808199
:100C2000882309F0A9CF80916F0090917000009700
:100C300009F074CF80916B0090916C0090936E00DE
:100C400080936D000F900F900F900F90CF91DF91D8
:100C50000895DF93CF9300D0CDB7DEB70E94310562
:100C60000E947B050AC080916A00882309F466C04F
:100C700080916A00815080936A0080916A00282FD9
:100C800030E0C901880F991F880F991F880F991F9D
:100C9000820F931FFC01EF58FF4F8081882319F3C7
:100CA00080916A00282F30E0C901880F991F880FB2
:100CB000991F880F991F820F931F8F589F4F9A83F8
:100CC0008983E981FA810180F281E02D828193811B
:100CD000E981FA8192838183E981FA8121813281DC
:100CE00089819A8103962817390759F4E981FA8195
:100CF0000180F281E02D82819381E981FA819283E2
:100D00008183E981FA810180F281E02D86819781DA
:100D10009093690080936800E0916800F091690009
:100D2000408151818091680090916900E091680054
:100D3000F09169002789622FFA0109950F900F90B1
:100D4000CF91DF910895DF93CF930F92CDB7DEB7A8
:100D5000198213C08981282F30E0C901880F991F9B
:100D6000880F991F880F991F820F931F8F589F4FCD
:100D70000E94800789818F5F89838981823050F347
:100D800083E890E00E9480078CE890E00E94800752
:100D900089E990E00E94800783E890E090939600B4
:100DA000809395008CE890E0909398008093970052
:100DB0000F90CF91DF910895DF93CF9300D000D0B3
:100DC0000F92CDB7DEB79D838C83EC81FD810580CA
:100DD000F681E02D868197819B838A838A819B811E
:100DE0000C960E9472088A819B819C01245F3F4F70
:100DF00089E990E0B9010E94BA07EA81FB819689EE
:100E0000E0916800F09169008689981718F081E0F8
:100E1000898301C0198289810F900F900F900F90E4
:100E20000F90CF91DF910895DF93CF9300D000D042
:100E3000CDB7DEB79C838B831A8219820E9402137E
:100E40008091A2009091A3002B813C81820F931F7F
:100E500024E0803B920718F52091A2003091A30076
:100E60008B819C81280F391F8091A2009091A30053
:100E700082179307A0F48091A2009091A3008C5553
:100E80009F4F9A8389832091A2003091A3008B8188
:100E90009C81820F931F9093A3008093A2000E94D5
:100EA0000E1389819A810F900F900F900F90CF9120
:100EB000DF910895DF93CF9300D0CDB7DEB79A834B
:100EC00089830F900F90CF91DF910895DF93CF9397
:100ED000CDB7DEB71092A3001092A200CF91DF91A0
:100EE0000895DF93CF93CDB7DEB72091A200309164
:100EF000A30080EB94E0821B930BCF91DF910895C8
:100F0000DF93CF9300D0CDB7DEB79A8389838981F1
:100F10009A810396E981FA8192838183E981FA813A
:100F20008FEF9FEF9483838389819A810396E98170
:100F3000FA819683858389819A810396E981FA8172
:100F400090878783E981FA8110820F900F90CF916B
:100F5000DF910895DF93CF9300D0CDB7DEB79A83AA
:100F60008983E981FA81118610860F900F90CF91C5
:100F7000DF910895DF93CF9300D000D000D0CDB79C
:100F8000DEB79C838B837E836D83EB81FC818181C3
:100F900092819A838983E981FA8182819381ED81AB
:100FA000FE8193838283EB81FC8181819281ED813B
:100FB000FE8195838483E981FA810280F381E02DAB
:100FC0008D819E81958384838D819E81E981FA81C3
:100FD000938382838D819E81EB81FC8192838183C7
:100FE000ED81FE818B819C8191878087EB81FC81E3
:100FF00080818F5FEB81FC81808326960FB6F89409
:10100000DEBF0FBECDBFCF91DF910895DF93CF93A9
:10101000CDB7DEB728970FB6F894DEBF0FBECDBFB1
:101020009E838D8378876F83EF81F885808191819E
:101030009A83898389819A812FEF8F3F920739F4B0
:10104000ED81FE81878190859C838B8318C08D8183
:101050009E8103969C838B8306C0EB81FC818281F9
:1010600093819C838B83EB81FC810280F381E02D53
:101070002081318189819A818217930770F7EB81F2
:10108000FC8182819381EF81F88593838283EF8154
:10109000F8850280F381E02D8F8198859583848384
:1010A000EF81F8858B819C81958384838F819885DE
:1010B000EB81FC8193838283EF81F8858D819E8112
:1010C00091878087ED81FE8180818F5FED81FE8138
:1010D000808328960FB6F894DEBF0FBECDBFCF91A8
:1010E000DF910895DF93CF9300D000D0CDB7DEB766
:1010F0009C838B83EB81FC81A281B381EB81FC819A
:101100008481958115969C938E931497EB81FC8135
:10111000A481B581EB81FC818281938113969C939C
:101120008E931297EB81FC81808591859A838983C8
:10113000E981FA81218132818B819C8128173907CD
:1011400041F4EB81FC8184819581E981FA8192836C
:101150008183EB81FC8111861086E981FA8180818F
:101160008150E981FA8180830F900F900F900F904A
:10117000CF91DF910895DF93CF9300D0CDB7DEB745
:101180009A83898380E060E00E947D0380EA9FE08B
:101190000E948A12F7CFDF93CF9300D0CDB7DEB78E
:1011A0009A83898380E061E00E947D0388EB9BE065
:1011B0000E948A12F7CFDF93CF9300D0CDB7DEB76E
:1011C0009A83898380E062E00E947D0380ED97E04E
:1011D0000E948A12F7CFDF93CF9300D0CDB7DEB74E
:1011E0009A83898380E063E00E947D0388EE93E028
:1011F0000E948A12F7CFAF92BF92CF92DF92EF9206
:10120000FF920F93DF93CF93CDB7DEB728970FB63A
:10121000F894DEBF0FBECDBF80E061E00E94C30244
:1012200080E060E00E943C038BEB98E060E070E0BF
:101230004BE950E020E030E001E0EE24FF24CC2434
:10124000DD24AA24BB240E94C610813029F480E04A
:1012500066E041E00E9449018BEC98E060E070E0BC
:101260004BE950E020E030E002E0EE24FF24CC2403
:10127000DD24AA24BB240E94C6108BED98E060E018
:1012800070E04BE950E020E030E003E0EE24FF2482
:10129000CC24DD24AA24BB240E94C6108BEE98E047
:1012A00060E070E04BE950E020E030E004E0EE2444
:1012B000FF24CC24DD24AA24BB240E94C6100E9453
:1012C000BF1280E090E028960FB6F894DEBF0FBE04
:1012D000CDBFCF91DF910F91FF90EF90DF90CF9036
:1012E000BF90AF900895DF93CF93CDB7DEB7289727
:1012F0000FB6F894DEBF0FBECDBF9C838B837E8379
:101300006D8358874F83EB81FC8181E180838B81E2
:101310009C8101979C838B83EB81FC8182E280839B
:101320008B819C8101979C838B83EB81FC8183E380
:1013300080838B819C8101979C838B838D819E818F
:101340009A8389838981EB81FC8180838B819C8155
:1013500001979C838B8389819A81892F99279A830E
:1013600089838981EB81FC8180838B819C810197BA
:101370009C838B83EB81FC8110828B819C81019704
:101380009C838B83EB81FC8180E880838B819C81B3
:1013900001979C838B83EB81FC8110828B819C81E4
:1013A00001979C838B83EB81FC8182E080838B811E
:1013B0009C8101979C838B83EB81FC8183E08083FC
:1013C0008B819C8101979C838B83EB81FC8184E0E2
:1013D00080838B819C8101979C838B83EB81FC8133
:1013E00085E080838B819C8101979C838B83EB813B
:1013F000FC8186E080838B819C8101979C838B8319
:10140000EB81FC8187E080838B819C8101979C83A9
:101410008B83EB81FC8188E080838B819C810197A9
:101420009C838B83EB81FC8189E080838B819C8111
:1014300001979C838B83EB81FC8180E180838B818E
:101440009C8101979C838B83EB81FC8181E180836C
:101450008B819C8101979C838B83EB81FC8182E152
:1014600080838B819C8101979C838B83EB81FC81A2
:1014700083E180838B819C8101979C838B83EB81AB
:10148000FC8184E180838B819C8101979C838B8389
:10149000EB81FC8185E180838B819C8101979C831A
:1014A0008B83EB81FC8186E180838B819C8101971A
:1014B0009C838B83EB81FC8187E180838B819C8182
:1014C00001979C838B83EB81FC8188E180838B81F6
:1014D0009C8101979C838B83EB81FC8189E18083D4
:1014E0008B819C8101979C838B83EB81FC8180E2C3
:1014F00080838B819C8101979C838B83EB81FC8112
:1015000081E280838B819C8101979C838B83EB811B
:10151000FC8182E280838B819C8101979C838B83F9
:10152000EB81FC8183E280838B819C8101979C838A
:101530008B838F8198859A8389838981EB81FC8154
:1015400080838B819C8101979C838B8389819A8185
:10155000892F99279A8389838981EB81FC818083F4
:101560008B819C8101979C838B83EB81FC8186E23C
:1015700080838B819C8101979C838B83EB81FC8191
:1015800087E280838B819C8101979C838B83EB8195
:10159000FC8188E280838B819C8101979C838B8373
:1015A000EB81FC8189E280838B819C8101979C8304
:1015B0008B83EB81FC8180E380838B819C8101970D
:1015C0009C838B83EB81FC8181E380838B819C8175
:1015D00001979C838B838B819C8128960FB6F8940E
:1015E000DEBF0FBECDBFCF91DF910895DF93CF93C4
:1015F000CDB7DEB70E94E60BA0915405B09155051A
:10160000CD91CDBFDD91DEBFFF91EF91DF91CF9105
:10161000BF91AF919F918F917F916F915F914F910A
:101620003F912F911F910F91FF90EF90DF90CF90FE
:10163000BF90AF909F908F907F906F905F904F90F2
:101640003F902F901F900F900FBE0F90089581E054
:10165000CF91DF910895DF93CF93CDB7DEB7CF91D0
:10166000DF9108950F920FB6F8940F921F921124F4
:101670002F923F924F925F926F927F928F929F92A2
:10168000AF92BF92CF92DF92EF92FF920F931F9390
:101690002F933F934F935F936F937F938F939F937A
:1016A000AF93BF93CF93DF93EF93FF93A091540534
:1016B000B09155050DB60D920EB60D920E94A21472
:1016C000A0915405B0915505CD91CDBFDD91DEBF00
:1016D000FF91EF91DF91CF91BF91AF919F918F914A
:1016E0007F916F915F914F913F912F911F910F913A
:1016F000FF90EF90DF90CF90BF90AF909F908F9032
:101700007F906F905F904F903F902F901F900F9021
:101710000FBE0F9008950F920FB6F8940F921F927C
:1017200011242F923F924F925F926F927F928F92ED
:101730009F92AF92BF92CF92DF92EF92FF920F9360
:101740001F932F933F934F935F936F937F938F9349
:101750009F93AF93BF93CF93DF93EF93FF93A091AA
:101760005405B09155050DB60D920EB60D920E941E
:10177000CD130E94A214A0915405B0915505CD91AE
:10178000CDBFDD91DEBFFF91EF91DF91CF91BF9192
:10179000AF919F918F917F916F915F914F913F9109
:1017A0002F911F910F91FF90EF90DF90CF90BF90FE
:1017B000AF909F908F907F906F905F904F903F90F1
:1017C0002F901F900F900FBE0F900895DF93CF932F
:1017D00000D000D000D0CDB7DEB780E49FE1A0E01C
:1017E000B0E08B839C83AD83BE838B819C81AD8174
:1017F000BE81689415F8B695A79597958795169428
:10180000D1F78B839C83AD83BE838B819C81AD811B
:10181000BE810197A109B1098B839C83AD83BE83EF
:101820008B8189838B819C81AD81BE81892F9A2F89
:10183000AB2FBB278B839C83AD83BE838B818A8335
:10184000EBE4F0E08A818083EAE4F0E08981808340
:101850008BE08983EEE4F0E089818083E9E5F0E0C4
:1018600080818983898180618983E9E5F0E08981CC
:10187000808326960FB6F894DEBF0FBECDBFCF9102
:10188000DF9108950E948B0B1895DF93CF93CDB70E
:10189000DEB728970FB6F894DEBF0FBECDBF8F839B
:1018A00068871A8219828F81882309F48CC08FE19E
:1018B00090E00E9414079E838D838D819E81009706
:1018C00009F481C08F81282F30E08885882F90E02F
:1018D000AC01249FC001259F900D349F900D1124D1
:1018E00001969C838B838B819C810E941407ED81E0
:1018F000FE8191838083ED81FE81808191810097BB
:1019000009F45DC0ED81FE81408151818F81282FD6
:1019100030E08885882F90E0BC01269FC001279F7A
:10192000900D369F900D1124840F951FED81FE813F
:1019300093838283ED81FE81128EED81FE81808111
:101940009181ED81FE8195838483ED81FE814081CB
:1019500051818F81882F90E09C01215030408885F3
:10196000882F90E0BC01269FC001279F900D369FD5
:10197000900D1124840F951FED81FE81978386833E
:10198000ED81FE818F81838FED81FE818885848F3B
:10199000ED81FE818FEF858FED81FE818FEF868F48
:1019A0008D819E8108960E9480078D819E8141963F
:1019B0000E9480078D819E819A83898304C08D81D6
:1019C0009E810E945A0789819A8128960FB6F894C1
:1019D000DEBF0FBECDBFCF91DF910895DF93CF93D0
:1019E000CDB7DEB72C970FB6F894DEBF0FBECDBFD4
:1019F0009E838D8378876F835A8749872B871982C7
:101A00000FB6F8940F92ED81FE81928DED81FE81EB
:101A1000838D9817D8F48D819E812F813885B901E7
:101A20004B850E94290FED81FE818189882349F031
:101A30008D819E8141960E943E15813011F40E9455
:101A4000320B0F900FBE81E08C875CC089859A8530
:101A5000009721F40F900FBE1C8654C08981882303
:101A600031F4CE0102960E94A61581E089830F9081
:101A70000FBE0E9402130FB6F8940F92ED81FE8103
:101A8000858D8F3F19F4ED81FE81158EED81FE81EC
:101A9000868D8F3F19F4ED81FE81168E0F900FBE5B
:101AA000CE0102969E01275F3F4FB9010E94BF15EC
:101AB000882309F58D819E810E948D108823A1F0D5
:101AC0008D819E81089629853A85B9010E94081565
:101AD0008D819E810E9406100E940E13882309F0BA
:101AE0008FCF0E94320B8CCF8D819E810E94061079
:101AF0000E940E1385CF8D819E810E9406100E9448
:101B00000E131C868C852C960FB6F894DEBF0FBE84
:101B1000CDBFCF91DF910895DF93CF93CDB7DEB7DF
:101B200029970FB6F894DEBF0FBECDBF9C838B8381
:101B30007E836D8358874F8329871982EB81FC81CF
:101B4000928DEB81FC81838D981740F58B819C8170
:101B50002D813E81B90149850E94290FEB81FC81CD
:101B6000868D8F3F89F4EB81FC818189882399F0F0
:101B70008B819C8141960E943E15882361F0EF8104
:101B8000F88581E0808307C0EB81FC81868D8F5FC3
:101B9000EB81FC81868F81E08A8301C01A828A8171
:101BA00029960FB6F894DEBF0FBECDBFCF91DF915F
:101BB0000895DF93CF93CDB7DEB72E970FB6F89485
:101BC000DEBF0FBECDBF98878F837A8769875C871A
:101BD0004B872D871B820FB6F8940F92EF81F88503
:101BE000828D882309F43FC0EF81F8858681978133
:101BF0009A8389838F81988529853A85B9010E94C6
:101C0000BE0F8D858823B1F4EF81F885828D8150D8
:101C1000EF81F885828FEF81F88580858823F1F048
:101C20008F81988508960E943E158130B9F40E94F4
:101C3000320B14C0EF81F88589819A81978386835E
:101C4000EF81F8858189882349F08F8198854196B5
:101C50000E943E15882311F00E94320B0F900FBE98
:101C600081E08E875CC08B859C85009721F40F9066
:101C70000FBE1E8654C08B81882331F4CE0104969A
:101C80000E94A61581E08B830F900FBE0E94021365
:101C90000FB6F8940F92EF81F885858D8F3F19F478
:101CA000EF81F885158EEF81F885868D8F3F19F4C9
:101CB000EF81F885168E0F900FBECE0104969E011F
:101CC000255F3F4FB9010E94BF15882309F58F8119
:101CD00098850E945A108823A1F08F81988541969B
:101CE0002B853C85B9010E9408158F8198850E943B
:101CF00006100E940E13882309F06DCF0E94320B4C
:101D00006ACF8F8198850E9406100E940E1363CFC0
:101D10008F8198850E9406100E940E131E868E8564
:101D20002E960FB6F894DEBF0FBECDBFCF91DF91D8
:101D30000895DF93CF93CDB7DEB728970FB6F89409
:101D4000DEBF0FBECDBF9C838B837E836D835887A0
:101D50004F831982EB81FC81828D882371F18B8105
:101D60009C812D813E81B9010E94BE0FEB81FC81D7
:101D7000828D8150EB81FC81828FEB81FC81858D8E
:101D80008F3F89F4EB81FC818085882399F08B81DA
:101D90009C8108960E943E15882361F0EF81F885AA
:101DA00081E0808307C0EB81FC81858D8F5FEB81B3
:101DB000FC81858F81E08A8301C01A828A812896FE
:101DC0000FB6F894DEBF0FBECDBFCF91DF9108955F
:101DD000DF93CF9300D00F92CDB7DEB79B838A837A
:101DE0000FB6F8940F92EA81FB81828D89830F9060
:101DF0000FBE89810F900F900F90CF91DF910895C2
:101E0000DF93CF9300D00F92CDB7DEB79B838A8349
:101E1000EA81FB81828D898389810F900F900F90D9
:101E2000CF91DF910895DF93CF9300D0CDB7DEB788
:101E30009A838983E981FA81808191810E945A077E
:101E400089819A810E945A070F900F90CF91DF915C
:101E50000895DF93CF9300D000D00F92CDB7DEB7B7
:101E60009A8389837C836B834D83E981FA81848D96
:101E7000882309F474C08D81882399F5E981FA815A
:101E800064817581E981FA81848D482F50E02B812E
:101E90003C81CB01B9010E94B117E981FA8124810B
:101EA0003581E981FA81848D882F90E0820F931F1C
:101EB000E981FA8195838483E981FA8124813581DE
:101EC000E981FA81828193812817390708F447C094
:101ED000E981FA8180819181E981FA819583848306
:101EE0003EC0E981FA8166817781E981FA81848D3A
:101EF000482F50E02B813C81CB01B9010E94B117E2
:101F0000E981FA8126813781E981FA81848D882FE0
:101F100090E0909581959F4F820F931FE981FA8100
:101F200097838683E981FA8126813781E981FA8165
:101F3000808191812817390790F4E981FA81228103
:101F40003381E981FA81848D882F90E09095819585
:101F50009F4F820F931FE981FA8197838683E981DE
:101F6000FA81828D8F5FE981FA81828F0F900F90C5
:101F70000F900F900F90CF91DF910895DF93CF9343
:101F800000D000D0CDB7DEB79A8389837C836B8382
:101F9000E981FA8180819181009789F1E981FA8153
:101FA00026813781E981FA81848D882F90E0820F24
:101FB000931FE981FA8197838683E981FA812681DB
:101FC0003781E981FA81828193812817390740F0AE
:101FD000E981FA8180819181E981FA819783868301
:101FE000E981FA8146815781E981FA81848D282F20
:101FF00030E08B819C81BA01A9010E94B1170F903A
:102000000F900F900F90CF91DF910895DF93CF93B2
:1020100000D0CDB7DEB79A8389830FB6F8940F92BC
:1020200015C0E981FA8181898823A9F089819A8183
:1020300041960E943E15882311F00E941C16E981EA
:10204000FA81868D8150E981FA81868FE981FA8152
:10205000868D181634F3E981FA818FEF868F0F9001
:102060000FBE0FB6F8940F9215C0E981FA818085F2
:102070008823A9F089819A8108960E943E158823B9
:1020800011F00E941C16E981FA81858D8150E98149
:10209000FA81858FE981FA81858D181634F3E981FB
:1020A000FA818FEF858F0F900FBE0F900F90CF9119
:1020B000DF910895DF93CF9300D00F92CDB7DEB7B5
:1020C0009B838A830FB6F8940F92EA81FB81828DFD
:1020D0001982882311F481E089830F900FBE8981D2
:1020E0000F900F900F90CF91DF910895DF93CF93D2
:1020F00000D00F92CDB7DEB79B838A83EA81FB8144
:10210000828D1982882311F481E0898389810F905F
:102110000F900F90CF91DF910895DF93CF9300D070
:102120000F92CDB7DEB79B838A830FB6F8940F92D8
:10213000EA81FB81928DEA81FB81838D1982981758
:1021400011F481E089830F900FBE89810F900F9069
:102150000F90CF91DF910895DF93CF9300D00F922E
:10216000CDB7DEB79B838A83EA81FB81928DEA81BA
:10217000FB81838D1982981711F481E0898389810D
:102180000F900F900F90CF91DF910895AF92BF9273
:10219000CF92DF92EF92FF920F931F93DF93CF9333
:1021A000CDB7DEB764970FB6F894DEBF0FBECDBFD4
:1021B0009F838E83798768875B874A873D872C87D3
:1021C0000E87F88AEF86DA8AC98ABC8AAB8A8A8542
:1021D0009B8529893A89B9010E944B179C838B837F
:1021E0008B819C81009709F499C0EB81FC81278940
:1021F000308D8A859B850197820F931F9A838983EF
:102200008B819C8128853985EB89FC89AA85BB85D2
:10221000B9014E859F018D010E94301689819A81F6
:102220002E813F814C855D85B9010E947309EB8148
:10223000FC81918380838F859889009731F0EF85A9
:10224000F8898B819C81918380830FB6F8940F92DB
:10225000809157058F5F8093570580915405909129
:102260005505009769F48B819C8190935505809367
:102270005405809157058130A9F40E94871612C039
:1022800080915C05882371F4E0915405F091550527
:1022900096898E85891730F08B819C8190935505A6
:1022A00080935405EB81FC81968980915A058917AA
:1022B00028F4EB81FC81868980935A058091610521
:1022C0008F5F80936105EB81FC81968980915B052E
:1022D000891728F4EB81FC81868980935B05EB816B
:1022E000FC818689282F30E0C901880F991F880F4B
:1022F000991F880F991F820F931FAC014E595A4F97
:102300008B819C819C012E5F3F4FCA01B9010E94C5
:10231000BA0781E08D830F900FBE02C08FEF8D83CF
:102320008D81813071F480915C05882351F0E091BA
:102330005405F091550596898E85981710F40E94E2
:10234000320B8D8164960FB6F894DEBF0FBECDBF01
:10235000CF91DF911F910F91FF90EF90DF90CF9081
:10236000BF90AF900895DF93CF9300D000D000D0FE
:10237000CDB7DEB79C838B830FB6F8940F92209174
:102380005405309155058B819C818217930711F478
:102390001C821B828B819C81009739F480915405AB
:1023A000909155059E838D8304C08B819C819E8373
:1023B0008D838D819E819A83898389819A810296FA
:1023C0000E947208E981FA8184899589009729F031
:1023D00089819A810C960E94720889819A819C0158
:1023E0002E5F3F4F82ED95E0B9010E94BA078091C0
:1023F00056058F5F80935605809161058F5F8093AE
:1024000061050F900FBE80915C05882331F08B81B0
:102410009C81009711F40E94320B26960FB6F89417
:10242000DEBF0FBECDBFCF91DF910895DF93CF9375
:10243000CDB7DEB728970FB6F894DEBF0FBECDBF7D
:102440009E838D8378876F8319820E940213ED81AA
:10245000FE81208131818F819885820F931F9C831B
:102460008B83ED81FE81208131818091580590918F
:10247000590582179307A8F4ED81FE8120813181EF
:102480008B819C818217930700F52091580530912C
:1024900059058B819C8128173907B8F481E089831D
:1024A00014C0ED81FE81208131818B819C81821756
:1024B000930748F020915805309159058B819C81F4
:1024C0002817390710F481E08983ED81FE818B8123
:1024D0009C81918380838981882359F08091540560
:1024E0009091550502960E9472088B819C810E94F2
:1024F00002170E940E138A838A81882311F40E9496
:10250000320B28960FB6F894DEBF0FBECDBFCF9129
:10251000DF910895DF93CF9300D000D00F92CDB715
:10252000DEB79D838C8319828C819D810097D1F0C9
:102530000E94021320915805309159058C819D818C
:10254000820F931F9B838A83809154059091550538
:1025500002960E9472088A819B810E9402170E9443
:102560000E1389838981882311F40E94320B0F9006
:102570000F900F900F900F90CF91DF910895AF9231
:10258000BF92CF92DF92EF92FF920F93DF93CF93A0
:102590000F92CDB7DEB720E630E086E296E1B901D2
:1025A0004BE950E020E030E000E0EE24FF24CC24B2
:1025B000DD24AA24BB240E94C6108983898181302E
:1025C00051F4F89481E080935C05109259051092C3
:1025D00058050E94F60A0F90CF91DF910F91FF905E
:1025E000EF90DF90CF90BF90AF900895DF93CF939F
:1025F000CDB7DEB7F89410925C050E942B0BCF91FB
:10260000DF910895DF93CF93CDB7DEB780915D055D
:102610008F5F80935D05CF91DF910895DF93CF9316
:1026200000D000D0CDB7DEB71A820FB6F8940F9263
:1026300080915D05815080935D0580915D058823C3
:1026400009F06CC080915705882309F467C019828E
:1026500041C0E091CE05F091CF05868197819C83A2
:102660008B838B819C810C960E9472088B819C814C
:1026700002960E947208EB81FC81968980915B052D
:10268000891728F4EB81FC81868980935B05EB81B7
:10269000FC818689282F30E0C901880F991F880F97
:1026A000991F880F991F820F931F8E599A4F2B8164
:1026B0003C812E5F3F4FB9010E94BA07EB81FC813C
:1026C0009689E0915405F09155058689981710F088
:1026D00081E089838091C905882309F0BACF809170
:1026E0005E05882371F007C00E94CD1380915E05BE
:1026F000815080935E0580915E058823A9F781E073
:1027000089838981813021F080915F05813031F4A6
:1027100081E08A8310925F050E94320B0F900FBEFA
:102720008A810F900F900F900F90CF91DF910895B5
:10273000DF93CF9300D0CDB7DEB70FB6F8940F92EA
:1027400080915805909159059A8389830F900FBE07
:1027500089819A810F900F90CF91DF910895DF9337
:10276000CF9300D00F92CDB7DEB719828091580574
:10277000909159059B838A838A819B810F900F904A
:102780000F90CF91DF910895DF93CF93CDB7DEB750
:1027900080915705CF91DF910895DF93CF9300D0BB
:1027A00000D000D0CDB7DEB780915D05882309F059
:1027B000BBC0809158059091590501969093590599
:1027C0008093580580915805909159050097D1F54F
:1027D0008091C5059091C6059C838B838091C70528
:1027E0009091C8059093C6058093C5058B819C8107
:1027F0009093C8058093C705809160058F5F809393
:102800006005E091C505F091C6058081882339F403
:102810008FEF9FEF909366008093650013C0E09167
:10282000C505F091C6050580F681E02D868197816A
:102830009E838D83ED81FE818281938190936600DA
:10284000809365002091580530915905809165006D
:10285000909166002817390708F46BC0E091C50510
:10286000F091C6058081882339F48FEF9FEF909314
:102870006600809365005DC0E091C505F091C605D6
:102880000580F681E02D868197819E838D83ED8181
:10289000FE81828193819A838983209158053091AA
:1028A000590589819A812817390738F489819A81D5
:1028B00090936600809365003CC08D819E81029656
:1028C0000E947208ED81FE8184899589009729F024
:1028D0008D819E810C960E947208ED81FE81968901
:1028E00080915B05891728F4ED81FE8186898093AC
:1028F0005B05ED81FE818689282F30E0C901880FB4
:10290000991F880F991F880F991F820F931FAC0181
:102910004E595A4F8D819E819C012E5F3F4FCA01B7
:10292000B9010E94BA079ACF80915E058F5F8093AC
:102930005E0526960FB6F894DEBF0FBECDBFCF91D1
:10294000DF910895DF93CF9300D0CDB7DEB78091AC
:102950005D05882349F081E080935F0554C0809134
:102960005B05815080935B0580915B05282F30E0EB
:10297000C901880F991F880F991F880F991F820F0F
:10298000931FFC01EE59FA4F8081882341F3809117
:102990005B05282F30E0C901880F991F880F991F08
:1029A000880F991F820F931F8E599A4F9A8389839C
:1029B000E981FA810180F281E02D82819381E981B0
:1029C000FA8192838183E981FA812181328189812F
:1029D0009A8103962817390759F4E981FA81018011
:1029E000F281E02D82819381E981FA819283818352
:1029F000E981FA810180F281E02D868197819093AF
:102A00005505809354050F900F90CF91DF91089555
:102A1000DF93CF9300D000D000D0CDB7DEB79C833A
:102A20008B837E836D834B815C8180915405909173
:102A300055059C01245F3F4FCA01B9010E94060859
:102A4000809154059091550502960E94720820913C
:102A50005805309159058D819E81820F931F9A836D
:102A6000898389819A810E94021726960FB6F8946D
:102A7000DEBF0FBECDBFCF91DF910895DF93CF931F
:102A800000D000D00F92CDB7DEB79D838C83EC8150
:102A9000FD810580F681E02D868197819B838A8365
:102AA0008A819B810C960E94720880915D05882323
:102AB00061F58A819B8102960E947208EA81FB81FE
:102AC000968980915B05891728F4EA81FB818689C4
:102AD00080935B05EA81FB818689282F30E0C9015C
:102AE000880F991F880F991F880F991F820F931FB6
:102AF000AC014E595A4F8A819B819C012E5F3F4FFA
:102B0000CA01B9010E94BA070AC08A819B819C014F
:102B1000245F3F4F89EC95E0B9010E94BA07EA8132
:102B2000FB819689E0915405F091550586899817A7
:102B300018F081E0898301C0198289810F900F907C
:102B40000F900F900F90CF91DF910895DF93CF9367
:102B500000D0CDB7DEB79A83898380916005E98183
:102B6000FA8180838091580590915905E981FA8115
:102B7000928381830F900F90CF91DF910895DF931F
:102B8000CF9300D000D00F92CDB7DEB79B838A835E
:102B90007D836C830FB6F8940F92EA81FB8190815C
:102BA00080916005981771F0EA81FB812181328163
:102BB00080915805909159058217930718F081E08C
:102BC00089832FC02091580530915905EA81FB81F6
:102BD00081819281281B390BEC81FD81808191815B
:102BE00028173907E0F4EC81FD8140815181EA81A9
:102BF000FB81218132818091580590915905B9015D
:102C0000681B790BCB01840F951FEC81FD819183AB
:102C100080838A819B810E94A615198202C081E06F
:102C200089830F900FBE89810F900F900F900F90A6
:102C30000F90CF91DF910895DF93CF93CDB7DEB79B
:102C400081E080935F05CF91DF910895DF93CF936B
:102C500000D0CDB7DEB79A8389830E94C416FDCF1A
:102C60000F931F93DF93CF93CDB7DEB729970FB69E
:102C7000F894DEBF0FBECDBF9A8389837C836B83BC
:102C80004D833F832E831987088789819A814996CE
:102C90002B813C81B90148E050E00E94C117E981D5
:102CA000FA8110A28D81893010F088E08D83E9814E
:102CB000FA818D81868B89819A8102960E94AA076A
:102CC00089819A810C960E94AA07E981FA818981FB
:102CD0009A81918780878D81282F30E089E090E06C
:102CE000821B930BE981FA8195878487E981FA81B8
:102CF00089819A81938B828B29960FB6F894DEBFD7
:102D00000FBECDBFCF91DF911F910F910895DF933B
:102D1000CF930F92CDB7DEB7198213C08981282FC8
:102D200030E0C901880F991F880F991F880F991FDC
:102D3000820F931F8E599A4F0E94800789818F5F5F
:102D400089838981893050F383EB95E00E94800765
:102D50008CEB95E00E94800789EC95E00E9480074B
:102D600082ED95E00E94800783EB95E09093C60585
:102D70008093C5058CEB95E09093C8058093C705BB
:102D80000F90CF91DF910895DF93CF9300D00F92F2
:102D9000CDB7DEB780915605882371F10E940213EA
:102DA0008091D2051B82882311F481E08B830E94DD
:102DB0000E138B81882301F50FB6F8940F92E091E2
:102DC000D705F091D805868197819A838983898177
:102DD0009A8102960E9472088091570581508093D3
:102DE0005705809156058150809356050F900FBE70
:102DF00089819A810E949B170F900F900F90CF911D
:102E0000DF910895DF93CF9300D0CDB7DEB79A83DB
:102E10008983E0915405F091550589819A819383C6
:102E20008283209158053091590589819A818217B2
:102E3000930770F48091C7059091C80520915405BF
:102E4000309155052E5F3F4FB9010E9406081EC004
:102E50004091C5055091C605809154059091550546
:102E60009C012E5F3F4FCA01B9010E9406082091C4
:102E700065003091660089819A818217930730F44A
:102E800089819A8190936600809365000F900F90DE
:102E9000CF91DF910895DF93CF93CDB7DEB7289719
:102EA0000FB6F894DEBF0FBECDBF9C838B837E83AD
:102EB0006D8381E290E00E9414079A83898389815F
:102EC0009A81009769F18D819E81009739F48B81F9
:102ED0009C810E94140798878F8304C08D819E81F6
:102EE00098878F83E981FA818F819885908F878B6E
:102EF000E981FA818789908D009739F489819A81D7
:102F00000E945A071A8219820BC0E981FA818789C7
:102F1000908D2B813C8165EA70E0A9010E94BA176F
:102F200089819A8128960FB6F894DEBF0FBECDBF77
:102F3000CF91DF910895DF93CF9300D0CDB7DEB767
:102F40009A838983E981FA818789908D0E945A0743
:102F500089819A810E945A070F900F90CF91DF913B
:102F60000895FB01DC0102C001900D9241505040D8
:102F7000D8F70895DC0101C06D9341505040E0F74F
:102F80000895FB01DC014150504048F001900D9242
:102F90000020C9F701C01D9241505040E0F708954C
:042FA000F894FFCFD3
:082FA40049444C4500FFFF0009
:00000001FF
